{
  "abi": [
    {
      "inputs": [
        {
          "internalType": "uint256",
          "name": "budget",
          "type": "uint256"
        },
        {
          "internalType": "address",
          "name": "creator",
          "type": "address"
        }
      ],
      "stateMutability": "nonpayable",
      "type": "constructor"
    },
    {
      "anonymous": false,
      "inputs": [
        {
          "indexed": false,
          "internalType": "int256",
          "name": "scheduleID",
          "type": "int256"
        },
        {
          "indexed": false,
          "internalType": "uint256",
          "name": "valueReleased",
          "type": "uint256"
        }
      ],
      "name": "fundsReleased",
      "type": "event"
    },
    {
      "anonymous": false,
      "inputs": [
        {
          "indexed": false,
          "internalType": "address",
          "name": "clientAddress",
          "type": "address"
        }
      ],
      "name": "projectAccepted",
      "type": "event"
    },
    {
      "anonymous": false,
      "inputs": [],
      "name": "projectEnded",
      "type": "event"
    },
    {
      "anonymous": false,
      "inputs": [
        {
          "indexed": false,
          "internalType": "string",
          "name": "shortCode",
          "type": "string"
        }
      ],
      "name": "scheduleAdded",
      "type": "event"
    },
    {
      "anonymous": false,
      "inputs": [
        {
          "indexed": false,
          "internalType": "int256",
          "name": "scheduleID",
          "type": "int256"
        }
      ],
      "name": "taskApproved",
      "type": "event"
    },
    {
      "anonymous": false,
      "inputs": [
        {
          "indexed": false,
          "internalType": "int256",
          "name": "scheduleID",
          "type": "int256"
        }
      ],
      "name": "taskFunded",
      "type": "event"
    },
    {
      "anonymous": false,
      "inputs": [
        {
          "indexed": false,
          "internalType": "int256",
          "name": "scheduleID",
          "type": "int256"
        }
      ],
      "name": "taskStarted",
      "type": "event"
    },
    {
      "inputs": [],
      "name": "acceptProject",
      "outputs": [],
      "stateMutability": "nonpayable",
      "type": "function"
    },
    {
      "inputs": [
        {
          "internalType": "string",
          "name": "_shortCode",
          "type": "string"
        },
        {
          "internalType": "string",
          "name": "_description",
          "type": "string"
        },
        {
          "internalType": "uint256",
          "name": "_value",
          "type": "uint256"
        }
      ],
      "name": "addSchedule",
      "outputs": [],
      "stateMutability": "nonpayable",
      "type": "function"
    },
    {
      "inputs": [
        {
          "internalType": "int256",
          "name": "_scheduleID",
          "type": "int256"
        }
      ],
      "name": "approveTask",
      "outputs": [],
      "stateMutability": "nonpayable",
      "type": "function"
    },
    {
      "inputs": [],
      "name": "budget_amt",
      "outputs": [
        {
          "internalType": "uint256",
          "name": "",
          "type": "uint256"
        }
      ],
      "stateMutability": "view",
      "type": "function"
    },
    {
      "inputs": [],
      "name": "clientAddress",
      "outputs": [
        {
          "internalType": "address",
          "name": "",
          "type": "address"
        }
      ],
      "stateMutability": "view",
      "type": "function"
    },
    {
      "inputs": [],
      "name": "endProject",
      "outputs": [],
      "stateMutability": "nonpayable",
      "type": "function"
    },
    {
      "inputs": [],
      "name": "freelancerAddress",
      "outputs": [
        {
          "internalType": "address payable",
          "name": "",
          "type": "address"
        }
      ],
      "stateMutability": "view",
      "type": "function"
    },
    {
      "inputs": [
        {
          "internalType": "int256",
          "name": "_scheduleID",
          "type": "int256"
        }
      ],
      "name": "fundTask",
      "outputs": [],
      "stateMutability": "payable",
      "type": "function"
    },
    {
      "inputs": [],
      "name": "getBalance",
      "outputs": [
        {
          "internalType": "uint256",
          "name": "balance",
          "type": "uint256"
        }
      ],
      "stateMutability": "view",
      "type": "function"
    },
    {
      "inputs": [],
      "name": "initialize",
      "outputs": [],
      "stateMutability": "payable",
      "type": "function"
    },
    {
      "inputs": [],
      "name": "projectState",
      "outputs": [
        {
          "internalType": "enum freelancer.ProjectState",
          "name": "",
          "type": "uint8"
        }
      ],
      "stateMutability": "view",
      "type": "function"
    },
    {
      "inputs": [
        {
          "internalType": "int256",
          "name": "_scheduleID",
          "type": "int256"
        }
      ],
      "name": "releaseFunds",
      "outputs": [],
      "stateMutability": "payable",
      "type": "function"
    },
    {
      "inputs": [
        {
          "internalType": "int256",
          "name": "",
          "type": "int256"
        }
      ],
      "name": "scheduleRegister",
      "outputs": [
        {
          "internalType": "string",
          "name": "shortCode",
          "type": "string"
        },
        {
          "internalType": "string",
          "name": "description",
          "type": "string"
        },
        {
          "internalType": "uint256",
          "name": "value",
          "type": "uint256"
        },
        {
          "internalType": "enum freelancer.ScheduleState",
          "name": "scheduleState",
          "type": "uint8"
        }
      ],
      "stateMutability": "view",
      "type": "function"
    },
    {
      "inputs": [
        {
          "internalType": "int256",
          "name": "_scheduleID",
          "type": "int256"
        }
      ],
      "name": "startTask",
      "outputs": [],
      "stateMutability": "nonpayable",
      "type": "function"
    },
    {
      "inputs": [],
      "name": "totalSchedules",
      "outputs": [
        {
          "internalType": "int256",
          "name": "",
          "type": "int256"
        }
      ],
      "stateMutability": "view",
      "type": "function"
    }
  ],
  "devdoc": {
    "kind": "dev",
    "methods": {},
    "version": 1
  },
  "evm": {
    "assembly": "    /* \"Freelance.sol\":441:5329  contract freelancer{... */\n  mstore(0x40, 0x80)\n    /* \"Freelance.sol\":787:788  0 */\n  0x00\n    /* \"Freelance.sol\":756:788  int256 public totalSchedules = 0 */\n  dup1\n  sstore\n    /* \"Freelance.sol\":2344:2520  constructor(uint budget,address creator)... */\n  callvalue\n  dup1\n  iszero\n  tag_1\n  jumpi\n  0x00\n  dup1\n  revert\ntag_1:\n  pop\n  mload(0x40)\n  sub(codesize, bytecodeSize)\n  dup1\n  bytecodeSize\n  dup4\n  codecopy\n  dup2\n  dup2\n  add\n  0x40\n  mstore\n  dup2\n  add\n  swap1\n  tag_2\n  swap2\n  swap1\n  tag_3\n  jump\t// in\ntag_2:\n    /* \"Freelance.sol\":2414:2420  budget */\n  dup2\n    /* \"Freelance.sol\":2403:2413  budget_amt */\n  0x03\n    /* \"Freelance.sol\":2403:2420  budget_amt=budget */\n  dup2\n  swap1\n  sstore\n  pop\n    /* \"Freelance.sol\":2447:2454  creator */\n  dup1\n    /* \"Freelance.sol\":2431:2444  clientAddress */\n  0x02\n  0x00\n    /* \"Freelance.sol\":2431:2454  clientAddress = creator */\n  0x0100\n  exp\n  dup2\n  sload\n  dup2\n  0xffffffffffffffffffffffffffffffffffffffff\n  mul\n  not\n  and\n  swap1\n  dup4\n  0xffffffffffffffffffffffffffffffffffffffff\n  and\n  mul\n  or\n  swap1\n  sstore\n  pop\n    /* \"Freelance.sol\":2480:2502  ProjectState.initiated */\n  0x00\n    /* \"Freelance.sol\":2465:2477  projectState */\n  0x02\n  0x14\n    /* \"Freelance.sol\":2465:2502  projectState = ProjectState.initiated */\n  0x0100\n  exp\n  dup2\n  sload\n  dup2\n  0xff\n  mul\n  not\n  and\n  swap1\n  dup4\n  0x02\n  dup2\n  gt\n  iszero\n  tag_6\n  jumpi\n  tag_7\n  tag_8\n  jump\t// in\ntag_7:\ntag_6:\n  mul\n  or\n  swap1\n  sstore\n  pop\n    /* \"Freelance.sol\":2344:2520  constructor(uint budget,address creator)... */\n  pop\n  pop\n    /* \"Freelance.sol\":441:5329  contract freelancer{... */\n  jump(tag_9)\n    /* \"#utility.yul\":88:205   */\ntag_11:\n    /* \"#utility.yul\":197:198   */\n  0x00\n    /* \"#utility.yul\":194:195   */\n  dup1\n    /* \"#utility.yul\":187:199   */\n  revert\n    /* \"#utility.yul\":334:411   */\ntag_13:\n    /* \"#utility.yul\":371:378   */\n  0x00\n    /* \"#utility.yul\":400:405   */\n  dup2\n    /* \"#utility.yul\":389:405   */\n  swap1\n  pop\n    /* \"#utility.yul\":334:411   */\n  swap2\n  swap1\n  pop\n  jump\t// out\n    /* \"#utility.yul\":417:539   */\ntag_14:\n    /* \"#utility.yul\":490:514   */\n  tag_26\n    /* \"#utility.yul\":508:513   */\n  dup2\n    /* \"#utility.yul\":490:514   */\n  tag_13\n  jump\t// in\ntag_26:\n    /* \"#utility.yul\":483:488   */\n  dup2\n    /* \"#utility.yul\":480:515   */\n  eq\n    /* \"#utility.yul\":470:533   */\n  tag_27\n  jumpi\n    /* \"#utility.yul\":529:530   */\n  0x00\n    /* \"#utility.yul\":526:527   */\n  dup1\n    /* \"#utility.yul\":519:531   */\n  revert\n    /* \"#utility.yul\":470:533   */\ntag_27:\n    /* \"#utility.yul\":417:539   */\n  pop\n  jump\t// out\n    /* \"#utility.yul\":545:688   */\ntag_15:\n    /* \"#utility.yul\":602:607   */\n  0x00\n    /* \"#utility.yul\":633:639   */\n  dup2\n    /* \"#utility.yul\":627:640   */\n  mload\n    /* \"#utility.yul\":618:640   */\n  swap1\n  pop\n    /* \"#utility.yul\":649:682   */\n  tag_29\n    /* \"#utility.yul\":676:681   */\n  dup2\n    /* \"#utility.yul\":649:682   */\n  tag_14\n  jump\t// in\ntag_29:\n    /* \"#utility.yul\":545:688   */\n  swap3\n  swap2\n  pop\n  pop\n  jump\t// out\n    /* \"#utility.yul\":694:820   */\ntag_16:\n    /* \"#utility.yul\":731:738   */\n  0x00\n    /* \"#utility.yul\":771:813   */\n  0xffffffffffffffffffffffffffffffffffffffff\n    /* \"#utility.yul\":764:769   */\n  dup3\n    /* \"#utility.yul\":760:814   */\n  and\n    /* \"#utility.yul\":749:814   */\n  swap1\n  pop\n    /* \"#utility.yul\":694:820   */\n  swap2\n  swap1\n  pop\n  jump\t// out\n    /* \"#utility.yul\":826:922   */\ntag_17:\n    /* \"#utility.yul\":863:870   */\n  0x00\n    /* \"#utility.yul\":892:916   */\n  tag_32\n    /* \"#utility.yul\":910:915   */\n  dup3\n    /* \"#utility.yul\":892:916   */\n  tag_16\n  jump\t// in\ntag_32:\n    /* \"#utility.yul\":881:916   */\n  swap1\n  pop\n    /* \"#utility.yul\":826:922   */\n  swap2\n  swap1\n  pop\n  jump\t// out\n    /* \"#utility.yul\":928:1050   */\ntag_18:\n    /* \"#utility.yul\":1001:1025   */\n  tag_34\n    /* \"#utility.yul\":1019:1024   */\n  dup2\n    /* \"#utility.yul\":1001:1025   */\n  tag_17\n  jump\t// in\ntag_34:\n    /* \"#utility.yul\":994:999   */\n  dup2\n    /* \"#utility.yul\":991:1026   */\n  eq\n    /* \"#utility.yul\":981:1044   */\n  tag_35\n  jumpi\n    /* \"#utility.yul\":1040:1041   */\n  0x00\n    /* \"#utility.yul\":1037:1038   */\n  dup1\n    /* \"#utility.yul\":1030:1042   */\n  revert\n    /* \"#utility.yul\":981:1044   */\ntag_35:\n    /* \"#utility.yul\":928:1050   */\n  pop\n  jump\t// out\n    /* \"#utility.yul\":1056:1199   */\ntag_19:\n    /* \"#utility.yul\":1113:1118   */\n  0x00\n    /* \"#utility.yul\":1144:1150   */\n  dup2\n    /* \"#utility.yul\":1138:1151   */\n  mload\n    /* \"#utility.yul\":1129:1151   */\n  swap1\n  pop\n    /* \"#utility.yul\":1160:1193   */\n  tag_37\n    /* \"#utility.yul\":1187:1192   */\n  dup2\n    /* \"#utility.yul\":1160:1193   */\n  tag_18\n  jump\t// in\ntag_37:\n    /* \"#utility.yul\":1056:1199   */\n  swap3\n  swap2\n  pop\n  pop\n  jump\t// out\n    /* \"#utility.yul\":1205:1712   */\ntag_3:\n    /* \"#utility.yul\":1284:1290   */\n  0x00\n    /* \"#utility.yul\":1292:1298   */\n  dup1\n    /* \"#utility.yul\":1341:1343   */\n  0x40\n    /* \"#utility.yul\":1329:1338   */\n  dup4\n    /* \"#utility.yul\":1320:1327   */\n  dup6\n    /* \"#utility.yul\":1316:1339   */\n  sub\n    /* \"#utility.yul\":1312:1344   */\n  slt\n    /* \"#utility.yul\":1309:1428   */\n  iszero\n  tag_39\n  jumpi\n    /* \"#utility.yul\":1347:1426   */\n  tag_40\n  tag_11\n  jump\t// in\ntag_40:\n    /* \"#utility.yul\":1309:1428   */\ntag_39:\n    /* \"#utility.yul\":1467:1468   */\n  0x00\n    /* \"#utility.yul\":1492:1556   */\n  tag_41\n    /* \"#utility.yul\":1548:1555   */\n  dup6\n    /* \"#utility.yul\":1539:1545   */\n  dup3\n    /* \"#utility.yul\":1528:1537   */\n  dup7\n    /* \"#utility.yul\":1524:1546   */\n  add\n    /* \"#utility.yul\":1492:1556   */\n  tag_15\n  jump\t// in\ntag_41:\n    /* \"#utility.yul\":1482:1556   */\n  swap3\n  pop\n    /* \"#utility.yul\":1438:1566   */\n  pop\n    /* \"#utility.yul\":1605:1607   */\n  0x20\n    /* \"#utility.yul\":1631:1695   */\n  tag_42\n    /* \"#utility.yul\":1687:1694   */\n  dup6\n    /* \"#utility.yul\":1678:1684   */\n  dup3\n    /* \"#utility.yul\":1667:1676   */\n  dup7\n    /* \"#utility.yul\":1663:1685   */\n  add\n    /* \"#utility.yul\":1631:1695   */\n  tag_19\n  jump\t// in\ntag_42:\n    /* \"#utility.yul\":1621:1695   */\n  swap2\n  pop\n    /* \"#utility.yul\":1576:1705   */\n  pop\n    /* \"#utility.yul\":1205:1712   */\n  swap3\n  pop\n  swap3\n  swap1\n  pop\n  jump\t// out\n    /* \"#utility.yul\":1718:1898   */\ntag_8:\n    /* \"#utility.yul\":1766:1843   */\n  0x4e487b7100000000000000000000000000000000000000000000000000000000\n    /* \"#utility.yul\":1763:1764   */\n  0x00\n    /* \"#utility.yul\":1756:1844   */\n  mstore\n    /* \"#utility.yul\":1863:1867   */\n  0x21\n    /* \"#utility.yul\":1860:1861   */\n  0x04\n    /* \"#utility.yul\":1853:1868   */\n  mstore\n    /* \"#utility.yul\":1887:1891   */\n  0x24\n    /* \"#utility.yul\":1884:1885   */\n  0x00\n    /* \"#utility.yul\":1877:1892   */\n  revert\n    /* \"Freelance.sol\":441:5329  contract freelancer{... */\ntag_9:\n  dataSize(sub_0)\n  dup1\n  dataOffset(sub_0)\n  0x00\n  codecopy\n  0x00\n  return\nstop\n\nsub_0: assembly {\n        /* \"Freelance.sol\":441:5329  contract freelancer{... */\n      mstore(0x40, 0x80)\n      jumpi(tag_1, lt(calldatasize, 0x04))\n      shr(0xe0, calldataload(0x00))\n      dup1\n      0x8129fc1c\n      gt\n      tag_17\n      jumpi\n      dup1\n      0xbab56910\n      gt\n      tag_18\n      jumpi\n      dup1\n      0xbab56910\n      eq\n      tag_13\n      jumpi\n      dup1\n      0xbb6fc950\n      eq\n      tag_14\n      jumpi\n      dup1\n      0xc3966409\n      eq\n      tag_15\n      jumpi\n      dup1\n      0xc916b6de\n      eq\n      tag_16\n      jumpi\n      jump(tag_1)\n    tag_18:\n      dup1\n      0x8129fc1c\n      eq\n      tag_9\n      jumpi\n      dup1\n      0x84bf66ac\n      eq\n      tag_10\n      jumpi\n      dup1\n      0x965720af\n      eq\n      tag_11\n      jumpi\n      dup1\n      0xb7896a30\n      eq\n      tag_12\n      jumpi\n      jump(tag_1)\n    tag_17:\n      dup1\n      0x257961bf\n      gt\n      tag_19\n      jumpi\n      dup1\n      0x257961bf\n      eq\n      tag_5\n      jumpi\n      dup1\n      0x2c2ab5ea\n      eq\n      tag_6\n      jumpi\n      dup1\n      0x6dc5434c\n      eq\n      tag_7\n      jumpi\n      dup1\n      0x748807ab\n      eq\n      tag_8\n      jumpi\n      jump(tag_1)\n    tag_19:\n      dup1\n      0x054f84ed\n      eq\n      tag_2\n      jumpi\n      dup1\n      0x06a4e7cb\n      eq\n      tag_3\n      jumpi\n      dup1\n      0x12065fe0\n      eq\n      tag_4\n      jumpi\n    tag_1:\n      0x00\n      dup1\n      revert\n        /* \"Freelance.sol\":3437:3811  function fundTask(int256 _scheduleID)... */\n    tag_2:\n      tag_20\n      0x04\n      dup1\n      calldatasize\n      sub\n      dup2\n      add\n      swap1\n      tag_21\n      swap2\n      swap1\n      tag_22\n      jump\t// in\n    tag_21:\n      tag_23\n      jump\t// in\n    tag_20:\n      stop\n        /* \"Freelance.sol\":795:835  address payable public freelancerAddress */\n    tag_3:\n      callvalue\n      dup1\n      iszero\n      tag_24\n      jumpi\n      0x00\n      dup1\n      revert\n    tag_24:\n      pop\n      tag_25\n      tag_26\n      jump\t// in\n    tag_25:\n      mload(0x40)\n      tag_27\n      swap2\n      swap1\n      tag_28\n      jump\t// in\n    tag_27:\n      mload(0x40)\n      dup1\n      swap2\n      sub\n      swap1\n      return\n        /* \"Freelance.sol\":5187:5326  function getBalance()... */\n    tag_4:\n      callvalue\n      dup1\n      iszero\n      tag_29\n      jumpi\n      0x00\n      dup1\n      revert\n    tag_29:\n      pop\n      tag_30\n      tag_31\n      jump\t// in\n    tag_30:\n      mload(0x40)\n      tag_32\n      swap2\n      swap1\n      tag_33\n      jump\t// in\n    tag_32:\n      mload(0x40)\n      dup1\n      swap2\n      sub\n      swap1\n      return\n        /* \"Freelance.sol\":916:938  uint public budget_amt */\n    tag_5:\n      callvalue\n      dup1\n      iszero\n      tag_34\n      jumpi\n      0x00\n      dup1\n      revert\n    tag_34:\n      pop\n      tag_35\n      tag_36\n      jump\t// in\n    tag_35:\n      mload(0x40)\n      tag_37\n      swap2\n      swap1\n      tag_33\n      jump\t// in\n    tag_37:\n      mload(0x40)\n      dup1\n      swap2\n      sub\n      swap1\n      return\n        /* \"Freelance.sol\":842:870  address public clientAddress */\n    tag_6:\n      callvalue\n      dup1\n      iszero\n      tag_38\n      jumpi\n      0x00\n      dup1\n      revert\n    tag_38:\n      pop\n      tag_39\n      tag_40\n      jump\t// in\n    tag_39:\n      mload(0x40)\n      tag_41\n      swap2\n      swap1\n      tag_42\n      jump\t// in\n    tag_41:\n      mload(0x40)\n      dup1\n      swap2\n      sub\n      swap1\n      return\n        /* \"Freelance.sol\":4203:4521  function approveTask(int256 _scheduleID)... */\n    tag_7:\n      callvalue\n      dup1\n      iszero\n      tag_43\n      jumpi\n      0x00\n      dup1\n      revert\n    tag_43:\n      pop\n      tag_44\n      0x04\n      dup1\n      calldatasize\n      sub\n      dup2\n      add\n      swap1\n      tag_45\n      swap2\n      swap1\n      tag_22\n      jump\t// in\n    tag_45:\n      tag_46\n      jump\t// in\n    tag_44:\n      stop\n        /* \"Freelance.sol\":877:909  ProjectState public projectState */\n    tag_8:\n      callvalue\n      dup1\n      iszero\n      tag_47\n      jumpi\n      0x00\n      dup1\n      revert\n    tag_47:\n      pop\n      tag_48\n      tag_49\n      jump\t// in\n    tag_48:\n      mload(0x40)\n      tag_50\n      swap2\n      swap1\n      tag_51\n      jump\t// in\n    tag_50:\n      mload(0x40)\n      dup1\n      swap2\n      sub\n      swap1\n      return\n        /* \"Freelance.sol\":2532:2694  function initialize()... */\n    tag_9:\n      tag_52\n      tag_53\n      jump\t// in\n    tag_52:\n      stop\n        /* \"Freelance.sol\":2702:3184  function addSchedule(string memory _shortCode, string memory _description, uint256 _value)... */\n    tag_10:\n      callvalue\n      dup1\n      iszero\n      tag_54\n      jumpi\n      0x00\n      dup1\n      revert\n    tag_54:\n      pop\n      tag_55\n      0x04\n      dup1\n      calldatasize\n      sub\n      dup2\n      add\n      swap1\n      tag_56\n      swap2\n      swap1\n      tag_57\n      jump\t// in\n    tag_56:\n      tag_58\n      jump\t// in\n    tag_55:\n      stop\n        /* \"Freelance.sol\":756:788  int256 public totalSchedules = 0 */\n    tag_11:\n      callvalue\n      dup1\n      iszero\n      tag_59\n      jumpi\n      0x00\n      dup1\n      revert\n    tag_59:\n      pop\n      tag_60\n      tag_61\n      jump\t// in\n    tag_60:\n      mload(0x40)\n      tag_62\n      swap2\n      swap1\n      tag_63\n      jump\t// in\n    tag_62:\n      mload(0x40)\n      dup1\n      swap2\n      sub\n      swap1\n      return\n        /* \"Freelance.sol\":3823:4195  function startTask(int256 _scheduleID)... */\n    tag_12:\n      callvalue\n      dup1\n      iszero\n      tag_64\n      jumpi\n      0x00\n      dup1\n      revert\n    tag_64:\n      pop\n      tag_65\n      0x04\n      dup1\n      calldatasize\n      sub\n      dup2\n      add\n      swap1\n      tag_66\n      swap2\n      swap1\n      tag_22\n      jump\t// in\n    tag_66:\n      tag_67\n      jump\t// in\n    tag_65:\n      stop\n        /* \"Freelance.sol\":951:1002  mapping(int256 => schedule) public scheduleRegister */\n    tag_13:\n      callvalue\n      dup1\n      iszero\n      tag_68\n      jumpi\n      0x00\n      dup1\n      revert\n    tag_68:\n      pop\n      tag_69\n      0x04\n      dup1\n      calldatasize\n      sub\n      dup2\n      add\n      swap1\n      tag_70\n      swap2\n      swap1\n      tag_22\n      jump\t// in\n    tag_70:\n      tag_71\n      jump\t// in\n    tag_69:\n      mload(0x40)\n      tag_72\n      swap5\n      swap4\n      swap3\n      swap2\n      swap1\n      tag_73\n      jump\t// in\n    tag_72:\n      mload(0x40)\n      dup1\n      swap2\n      sub\n      swap1\n      return\n        /* \"Freelance.sol\":4533:4986  function releaseFunds(int256 _scheduleID)... */\n    tag_14:\n      tag_74\n      0x04\n      dup1\n      calldatasize\n      sub\n      dup2\n      add\n      swap1\n      tag_75\n      swap2\n      swap1\n      tag_22\n      jump\t// in\n    tag_75:\n      tag_76\n      jump\t// in\n    tag_74:\n      stop\n        /* \"Freelance.sol\":4998:5175  function endProject()... */\n    tag_15:\n      callvalue\n      dup1\n      iszero\n      tag_77\n      jumpi\n      0x00\n      dup1\n      revert\n    tag_77:\n      pop\n      tag_78\n      tag_79\n      jump\t// in\n    tag_78:\n      stop\n        /* \"Freelance.sol\":3196:3425  function acceptProject()... */\n    tag_16:\n      callvalue\n      dup1\n      iszero\n      tag_80\n      jumpi\n      0x00\n      dup1\n      revert\n    tag_80:\n      pop\n      tag_81\n      tag_82\n      jump\t// in\n    tag_81:\n      stop\n        /* \"Freelance.sol\":3437:3811  function fundTask(int256 _scheduleID)... */\n    tag_23:\n        /* \"Freelance.sol\":3532:3553  ProjectState.accepted */\n      0x01\n        /* \"Freelance.sol\":1537:1543  _state */\n      dup1\n        /* \"Freelance.sol\":1521:1543  projectState == _state */\n      0x02\n      dup2\n      gt\n      iszero\n      tag_84\n      jumpi\n      tag_85\n      tag_86\n      jump\t// in\n    tag_85:\n    tag_84:\n        /* \"Freelance.sol\":1521:1533  projectState */\n      0x02\n      0x14\n      swap1\n      sload\n      swap1\n      0x0100\n      exp\n      swap1\n      div\n      0xff\n      and\n        /* \"Freelance.sol\":1521:1543  projectState == _state */\n      0x02\n      dup2\n      gt\n      iszero\n      tag_87\n      jumpi\n      tag_88\n      tag_86\n      jump\t// in\n    tag_88:\n    tag_87:\n      eq\n        /* \"Freelance.sol\":1513:1544  require(projectState == _state) */\n      tag_89\n      jumpi\n      0x00\n      dup1\n      revert\n    tag_89:\n        /* \"Freelance.sol\":3580:3591  _scheduleID */\n      dup2\n        /* \"Freelance.sol\":3593:3614  ScheduleState.planned */\n      0x00\n        /* \"Freelance.sol\":1681:1682  1 */\n      0x01\n        /* \"Freelance.sol\":1664:1678  totalSchedules */\n      sload(0x00)\n        /* \"Freelance.sol\":1664:1682  totalSchedules - 1 */\n      tag_91\n      swap2\n      swap1\n      tag_92\n      jump\t// in\n    tag_91:\n        /* \"Freelance.sol\":1649:1660  _scheduleID */\n      dup3\n        /* \"Freelance.sol\":1649:1682  _scheduleID <= totalSchedules - 1 */\n      sgt\n      iszero\n        /* \"Freelance.sol\":1648:1740  (_scheduleID <= totalSchedules - 1) && scheduleRegister[_scheduleID].scheduleState == _state */\n      dup1\n      iszero\n      tag_93\n      jumpi\n      pop\n        /* \"Freelance.sol\":1734:1740  _state */\n      dup1\n        /* \"Freelance.sol\":1687:1740  scheduleRegister[_scheduleID].scheduleState == _state */\n      0x04\n      dup2\n      gt\n      iszero\n      tag_94\n      jumpi\n      tag_95\n      tag_86\n      jump\t// in\n    tag_95:\n    tag_94:\n        /* \"Freelance.sol\":1687:1703  scheduleRegister */\n      0x04\n        /* \"Freelance.sol\":1687:1716  scheduleRegister[_scheduleID] */\n      0x00\n        /* \"Freelance.sol\":1704:1715  _scheduleID */\n      dup5\n        /* \"Freelance.sol\":1687:1716  scheduleRegister[_scheduleID] */\n      dup2\n      mstore\n      0x20\n      add\n      swap1\n      dup2\n      mstore\n      0x20\n      add\n      0x00\n      keccak256\n        /* \"Freelance.sol\":1687:1730  scheduleRegister[_scheduleID].scheduleState */\n      0x03\n      add\n      0x00\n      swap1\n      sload\n      swap1\n      0x0100\n      exp\n      swap1\n      div\n      0xff\n      and\n        /* \"Freelance.sol\":1687:1740  scheduleRegister[_scheduleID].scheduleState == _state */\n      0x04\n      dup2\n      gt\n      iszero\n      tag_96\n      jumpi\n      tag_97\n      tag_86\n      jump\t// in\n    tag_97:\n    tag_96:\n      eq\n        /* \"Freelance.sol\":1648:1740  (_scheduleID <= totalSchedules - 1) && scheduleRegister[_scheduleID].scheduleState == _state */\n    tag_93:\n        /* \"Freelance.sol\":1640:1741  require((_scheduleID <= totalSchedules - 1) && scheduleRegister[_scheduleID].scheduleState == _state) */\n      tag_98\n      jumpi\n      0x00\n      dup1\n      revert\n    tag_98:\n        /* \"Freelance.sol\":3638:3649  _scheduleID */\n      dup4\n        /* \"Freelance.sol\":3651:3660  msg.value */\n      callvalue\n        /* \"Freelance.sol\":1886:1894  _funding */\n      dup1\n        /* \"Freelance.sol\":1847:1863  scheduleRegister */\n      0x04\n        /* \"Freelance.sol\":1847:1876  scheduleRegister[_scheduleID] */\n      0x00\n        /* \"Freelance.sol\":1864:1875  _scheduleID */\n      dup5\n        /* \"Freelance.sol\":1847:1876  scheduleRegister[_scheduleID] */\n      dup2\n      mstore\n      0x20\n      add\n      swap1\n      dup2\n      mstore\n      0x20\n      add\n      0x00\n      keccak256\n        /* \"Freelance.sol\":1847:1882  scheduleRegister[_scheduleID].value */\n      0x02\n      add\n      sload\n        /* \"Freelance.sol\":1847:1894  scheduleRegister[_scheduleID].value == _funding */\n      eq\n        /* \"Freelance.sol\":1839:1895  require(scheduleRegister[_scheduleID].value == _funding) */\n      tag_100\n      jumpi\n      0x00\n      dup1\n      revert\n    tag_100:\n        /* \"Freelance.sol\":1222:1235  clientAddress */\n      0x02\n      0x00\n      swap1\n      sload\n      swap1\n      0x0100\n      exp\n      swap1\n      div\n      0xffffffffffffffffffffffffffffffffffffffff\n      and\n        /* \"Freelance.sol\":1208:1235  msg.sender == clientAddress */\n      0xffffffffffffffffffffffffffffffffffffffff\n      and\n        /* \"Freelance.sol\":1208:1218  msg.sender */\n      caller\n        /* \"Freelance.sol\":1208:1235  msg.sender == clientAddress */\n      0xffffffffffffffffffffffffffffffffffffffff\n      and\n      eq\n        /* \"Freelance.sol\":1200:1236  require(msg.sender == clientAddress) */\n      tag_102\n      jumpi\n      0x00\n      dup1\n      revert\n    tag_102:\n        /* \"Freelance.sol\":3744:3764  ScheduleState.funded */\n      0x01\n        /* \"Freelance.sol\":3698:3714  scheduleRegister */\n      0x04\n        /* \"Freelance.sol\":3698:3727  scheduleRegister[_scheduleID] */\n      0x00\n        /* \"Freelance.sol\":3715:3726  _scheduleID */\n      dup9\n        /* \"Freelance.sol\":3698:3727  scheduleRegister[_scheduleID] */\n      dup2\n      mstore\n      0x20\n      add\n      swap1\n      dup2\n      mstore\n      0x20\n      add\n      0x00\n      keccak256\n        /* \"Freelance.sol\":3698:3741  scheduleRegister[_scheduleID].scheduleState */\n      0x03\n      add\n      0x00\n        /* \"Freelance.sol\":3698:3764  scheduleRegister[_scheduleID].scheduleState = ScheduleState.funded */\n      0x0100\n      exp\n      dup2\n      sload\n      dup2\n      0xff\n      mul\n      not\n      and\n      swap1\n      dup4\n      0x04\n      dup2\n      gt\n      iszero\n      tag_104\n      jumpi\n      tag_105\n      tag_86\n      jump\t// in\n    tag_105:\n    tag_104:\n      mul\n      or\n      swap1\n      sstore\n      pop\n        /* \"Freelance.sol\":3780:3803  taskFunded(_scheduleID) */\n      0xd58e7b4972479e30bd65e34280dcda90802a617a803cb4b39764a2a30d3a8eae\n        /* \"Freelance.sol\":3791:3802  _scheduleID */\n      dup7\n        /* \"Freelance.sol\":3780:3803  taskFunded(_scheduleID) */\n      mload(0x40)\n      tag_106\n      swap2\n      swap1\n      tag_63\n      jump\t// in\n    tag_106:\n      mload(0x40)\n      dup1\n      swap2\n      sub\n      swap1\n      log1\n        /* \"Freelance.sol\":1752:1753  _ */\n      pop\n      pop\n        /* \"Freelance.sol\":1549:1550  _ */\n      pop\n      pop\n        /* \"Freelance.sol\":3437:3811  function fundTask(int256 _scheduleID)... */\n      pop\n      pop\n      jump\t// out\n        /* \"Freelance.sol\":795:835  address payable public freelancerAddress */\n    tag_26:\n      0x01\n      0x00\n      swap1\n      sload\n      swap1\n      0x0100\n      exp\n      swap1\n      div\n      0xffffffffffffffffffffffffffffffffffffffff\n      and\n      dup2\n      jump\t// out\n        /* \"Freelance.sol\":5187:5326  function getBalance()... */\n    tag_31:\n        /* \"Freelance.sol\":5257:5272  uint256 balance */\n      0x00\n        /* \"Freelance.sol\":5297:5318  address(this).balance */\n      selfbalance\n        /* \"Freelance.sol\":5290:5318  return address(this).balance */\n      swap1\n      pop\n        /* \"Freelance.sol\":5187:5326  function getBalance()... */\n      swap1\n      jump\t// out\n        /* \"Freelance.sol\":916:938  uint public budget_amt */\n    tag_36:\n      sload(0x03)\n      dup2\n      jump\t// out\n        /* \"Freelance.sol\":842:870  address public clientAddress */\n    tag_40:\n      0x02\n      0x00\n      swap1\n      sload\n      swap1\n      0x0100\n      exp\n      swap1\n      div\n      0xffffffffffffffffffffffffffffffffffffffff\n      and\n      dup2\n      jump\t// out\n        /* \"Freelance.sol\":4203:4521  function approveTask(int256 _scheduleID)... */\n    tag_46:\n        /* \"Freelance.sol\":4284:4305  ProjectState.accepted */\n      0x01\n        /* \"Freelance.sol\":1537:1543  _state */\n      dup1\n        /* \"Freelance.sol\":1521:1543  projectState == _state */\n      0x02\n      dup2\n      gt\n      iszero\n      tag_109\n      jumpi\n      tag_110\n      tag_86\n      jump\t// in\n    tag_110:\n    tag_109:\n        /* \"Freelance.sol\":1521:1533  projectState */\n      0x02\n      0x14\n      swap1\n      sload\n      swap1\n      0x0100\n      exp\n      swap1\n      div\n      0xff\n      and\n        /* \"Freelance.sol\":1521:1543  projectState == _state */\n      0x02\n      dup2\n      gt\n      iszero\n      tag_111\n      jumpi\n      tag_112\n      tag_86\n      jump\t// in\n    tag_112:\n    tag_111:\n      eq\n        /* \"Freelance.sol\":1513:1544  require(projectState == _state) */\n      tag_113\n      jumpi\n      0x00\n      dup1\n      revert\n    tag_113:\n        /* \"Freelance.sol\":4332:4343  _scheduleID */\n      dup2\n        /* \"Freelance.sol\":4345:4366  ScheduleState.started */\n      0x02\n        /* \"Freelance.sol\":1681:1682  1 */\n      0x01\n        /* \"Freelance.sol\":1664:1678  totalSchedules */\n      sload(0x00)\n        /* \"Freelance.sol\":1664:1682  totalSchedules - 1 */\n      tag_115\n      swap2\n      swap1\n      tag_92\n      jump\t// in\n    tag_115:\n        /* \"Freelance.sol\":1649:1660  _scheduleID */\n      dup3\n        /* \"Freelance.sol\":1649:1682  _scheduleID <= totalSchedules - 1 */\n      sgt\n      iszero\n        /* \"Freelance.sol\":1648:1740  (_scheduleID <= totalSchedules - 1) && scheduleRegister[_scheduleID].scheduleState == _state */\n      dup1\n      iszero\n      tag_116\n      jumpi\n      pop\n        /* \"Freelance.sol\":1734:1740  _state */\n      dup1\n        /* \"Freelance.sol\":1687:1740  scheduleRegister[_scheduleID].scheduleState == _state */\n      0x04\n      dup2\n      gt\n      iszero\n      tag_117\n      jumpi\n      tag_118\n      tag_86\n      jump\t// in\n    tag_118:\n    tag_117:\n        /* \"Freelance.sol\":1687:1703  scheduleRegister */\n      0x04\n        /* \"Freelance.sol\":1687:1716  scheduleRegister[_scheduleID] */\n      0x00\n        /* \"Freelance.sol\":1704:1715  _scheduleID */\n      dup5\n        /* \"Freelance.sol\":1687:1716  scheduleRegister[_scheduleID] */\n      dup2\n      mstore\n      0x20\n      add\n      swap1\n      dup2\n      mstore\n      0x20\n      add\n      0x00\n      keccak256\n        /* \"Freelance.sol\":1687:1730  scheduleRegister[_scheduleID].scheduleState */\n      0x03\n      add\n      0x00\n      swap1\n      sload\n      swap1\n      0x0100\n      exp\n      swap1\n      div\n      0xff\n      and\n        /* \"Freelance.sol\":1687:1740  scheduleRegister[_scheduleID].scheduleState == _state */\n      0x04\n      dup2\n      gt\n      iszero\n      tag_119\n      jumpi\n      tag_120\n      tag_86\n      jump\t// in\n    tag_120:\n    tag_119:\n      eq\n        /* \"Freelance.sol\":1648:1740  (_scheduleID <= totalSchedules - 1) && scheduleRegister[_scheduleID].scheduleState == _state */\n    tag_116:\n        /* \"Freelance.sol\":1640:1741  require((_scheduleID <= totalSchedules - 1) && scheduleRegister[_scheduleID].scheduleState == _state) */\n      tag_121\n      jumpi\n      0x00\n      dup1\n      revert\n    tag_121:\n        /* \"Freelance.sol\":1222:1235  clientAddress */\n      0x02\n      0x00\n      swap1\n      sload\n      swap1\n      0x0100\n      exp\n      swap1\n      div\n      0xffffffffffffffffffffffffffffffffffffffff\n      and\n        /* \"Freelance.sol\":1208:1235  msg.sender == clientAddress */\n      0xffffffffffffffffffffffffffffffffffffffff\n      and\n        /* \"Freelance.sol\":1208:1218  msg.sender */\n      caller\n        /* \"Freelance.sol\":1208:1235  msg.sender == clientAddress */\n      0xffffffffffffffffffffffffffffffffffffffff\n      and\n      eq\n        /* \"Freelance.sol\":1200:1236  require(msg.sender == clientAddress) */\n      tag_123\n      jumpi\n      0x00\n      dup1\n      revert\n    tag_123:\n        /* \"Freelance.sol\":4450:4472  ScheduleState.approved */\n      0x03\n        /* \"Freelance.sol\":4404:4420  scheduleRegister */\n      0x04\n        /* \"Freelance.sol\":4404:4433  scheduleRegister[_scheduleID] */\n      0x00\n        /* \"Freelance.sol\":4421:4432  _scheduleID */\n      dup7\n        /* \"Freelance.sol\":4404:4433  scheduleRegister[_scheduleID] */\n      dup2\n      mstore\n      0x20\n      add\n      swap1\n      dup2\n      mstore\n      0x20\n      add\n      0x00\n      keccak256\n        /* \"Freelance.sol\":4404:4447  scheduleRegister[_scheduleID].scheduleState */\n      0x03\n      add\n      0x00\n        /* \"Freelance.sol\":4404:4472  scheduleRegister[_scheduleID].scheduleState = ScheduleState.approved */\n      0x0100\n      exp\n      dup2\n      sload\n      dup2\n      0xff\n      mul\n      not\n      and\n      swap1\n      dup4\n      0x04\n      dup2\n      gt\n      iszero\n      tag_125\n      jumpi\n      tag_126\n      tag_86\n      jump\t// in\n    tag_126:\n    tag_125:\n      mul\n      or\n      swap1\n      sstore\n      pop\n        /* \"Freelance.sol\":4488:4513  taskApproved(_scheduleID) */\n      0x38f72d6c98702d265aec82b55e4b637d84fa97622b2244cd84dca2f171a0cefc\n        /* \"Freelance.sol\":4501:4512  _scheduleID */\n      dup5\n        /* \"Freelance.sol\":4488:4513  taskApproved(_scheduleID) */\n      mload(0x40)\n      tag_127\n      swap2\n      swap1\n      tag_63\n      jump\t// in\n    tag_127:\n      mload(0x40)\n      dup1\n      swap2\n      sub\n      swap1\n      log1\n        /* \"Freelance.sol\":1549:1550  _ */\n      pop\n      pop\n        /* \"Freelance.sol\":4203:4521  function approveTask(int256 _scheduleID)... */\n      pop\n      pop\n      jump\t// out\n        /* \"Freelance.sol\":877:909  ProjectState public projectState */\n    tag_49:\n      0x02\n      0x14\n      swap1\n      sload\n      swap1\n      0x0100\n      exp\n      swap1\n      div\n      0xff\n      and\n      dup2\n      jump\t// out\n        /* \"Freelance.sol\":2532:2694  function initialize()... */\n    tag_53:\n        /* \"Freelance.sol\":2595:2638  addSchedule('DP','Design Phase',budget_amt) */\n      tag_129\n      mload(0x40)\n      dup1\n      0x40\n      add\n      0x40\n      mstore\n      dup1\n      0x02\n      dup2\n      mstore\n      0x20\n      add\n      0x4450000000000000000000000000000000000000000000000000000000000000\n      dup2\n      mstore\n      pop\n      mload(0x40)\n      dup1\n      0x40\n      add\n      0x40\n      mstore\n      dup1\n      0x0c\n      dup2\n      mstore\n      0x20\n      add\n      0x44657369676e2050686173650000000000000000000000000000000000000000\n      dup2\n      mstore\n      pop\n        /* \"Freelance.sol\":2627:2637  budget_amt */\n      sload(0x03)\n        /* \"Freelance.sol\":2595:2606  addSchedule */\n      tag_58\n        /* \"Freelance.sol\":2595:2638  addSchedule('DP','Design Phase',budget_amt) */\n      jump\t// in\n    tag_129:\n        /* \"Freelance.sol\":2649:2664  acceptProject() */\n      tag_130\n        /* \"Freelance.sol\":2649:2662  acceptProject */\n      tag_82\n        /* \"Freelance.sol\":2649:2664  acceptProject() */\n      jump\t// in\n    tag_130:\n        /* \"Freelance.sol\":2675:2686  fundTask(0) */\n      tag_131\n        /* \"Freelance.sol\":2684:2685  0 */\n      0x00\n        /* \"Freelance.sol\":2675:2683  fundTask */\n      tag_23\n        /* \"Freelance.sol\":2675:2686  fundTask(0) */\n      jump\t// in\n    tag_131:\n        /* \"Freelance.sol\":2532:2694  function initialize()... */\n      jump\t// out\n        /* \"Freelance.sol\":2702:3184  function addSchedule(string memory _shortCode, string memory _description, uint256 _value)... */\n    tag_58:\n        /* \"Freelance.sol\":2833:2855  ProjectState.initiated */\n      0x00\n        /* \"Freelance.sol\":1537:1543  _state */\n      dup1\n        /* \"Freelance.sol\":1521:1543  projectState == _state */\n      0x02\n      dup2\n      gt\n      iszero\n      tag_133\n      jumpi\n      tag_134\n      tag_86\n      jump\t// in\n    tag_134:\n    tag_133:\n        /* \"Freelance.sol\":1521:1533  projectState */\n      0x02\n      0x14\n      swap1\n      sload\n      swap1\n      0x0100\n      exp\n      swap1\n      div\n      0xff\n      and\n        /* \"Freelance.sol\":1521:1543  projectState == _state */\n      0x02\n      dup2\n      gt\n      iszero\n      tag_135\n      jumpi\n      tag_136\n      tag_86\n      jump\t// in\n    tag_136:\n    tag_135:\n      eq\n        /* \"Freelance.sol\":1513:1544  require(projectState == _state) */\n      tag_137\n      jumpi\n      0x00\n      dup1\n      revert\n    tag_137:\n        /* \"Freelance.sol\":1222:1235  clientAddress */\n      0x02\n      0x00\n      swap1\n      sload\n      swap1\n      0x0100\n      exp\n      swap1\n      div\n      0xffffffffffffffffffffffffffffffffffffffff\n      and\n        /* \"Freelance.sol\":1208:1235  msg.sender == clientAddress */\n      0xffffffffffffffffffffffffffffffffffffffff\n      and\n        /* \"Freelance.sol\":1208:1218  msg.sender */\n      caller\n        /* \"Freelance.sol\":1208:1235  msg.sender == clientAddress */\n      0xffffffffffffffffffffffffffffffffffffffff\n      and\n      eq\n        /* \"Freelance.sol\":1200:1236  require(msg.sender == clientAddress) */\n      tag_139\n      jumpi\n      0x00\n      dup1\n      revert\n    tag_139:\n        /* \"Freelance.sol\":2893:2910  schedule memory s */\n      tag_141\n      tag_142\n      jump\t// in\n    tag_141:\n        /* \"Freelance.sol\":2935:2945  _shortCode */\n      dup5\n        /* \"Freelance.sol\":2921:2922  s */\n      dup2\n        /* \"Freelance.sol\":2921:2932  s.shortCode */\n      0x00\n      add\n        /* \"Freelance.sol\":2921:2945  s.shortCode = _shortCode */\n      dup2\n      swap1\n      mstore\n      pop\n        /* \"Freelance.sol\":2972:2984  _description */\n      dup4\n        /* \"Freelance.sol\":2956:2957  s */\n      dup2\n        /* \"Freelance.sol\":2956:2969  s.description */\n      0x20\n      add\n        /* \"Freelance.sol\":2956:2984  s.description = _description */\n      dup2\n      swap1\n      mstore\n      pop\n        /* \"Freelance.sol\":3013:3034  ScheduleState.planned */\n      0x00\n        /* \"Freelance.sol\":2995:2996  s */\n      dup2\n        /* \"Freelance.sol\":2995:3010  s.scheduleState */\n      0x60\n      add\n        /* \"Freelance.sol\":2995:3034  s.scheduleState = ScheduleState.planned */\n      swap1\n      0x04\n      dup2\n      gt\n      iszero\n      tag_143\n      jumpi\n      tag_144\n      tag_86\n      jump\t// in\n    tag_144:\n    tag_143:\n      swap1\n      dup2\n      0x04\n      dup2\n      gt\n      iszero\n      tag_145\n      jumpi\n      tag_146\n      tag_86\n      jump\t// in\n    tag_146:\n    tag_145:\n      dup2\n      mstore\n      pop\n      pop\n        /* \"Freelance.sol\":3055:3061  _value */\n      dup3\n        /* \"Freelance.sol\":3045:3046  s */\n      dup2\n        /* \"Freelance.sol\":3045:3052  s.value */\n      0x40\n      add\n        /* \"Freelance.sol\":3045:3061  s.value = _value */\n      dup2\n      dup2\n      mstore\n      pop\n      pop\n        /* \"Freelance.sol\":3107:3108  s */\n      dup1\n        /* \"Freelance.sol\":3072:3088  scheduleRegister */\n      0x04\n        /* \"Freelance.sol\":3072:3104  scheduleRegister[totalSchedules] */\n      0x00\n        /* \"Freelance.sol\":3089:3103  totalSchedules */\n      dup1\n      sload\n        /* \"Freelance.sol\":3072:3104  scheduleRegister[totalSchedules] */\n      dup2\n      mstore\n      0x20\n      add\n      swap1\n      dup2\n      mstore\n      0x20\n      add\n      0x00\n      keccak256\n        /* \"Freelance.sol\":3072:3108  scheduleRegister[totalSchedules] = s */\n      0x00\n      dup3\n      add\n      mload\n      dup2\n      0x00\n      add\n      swap1\n      dup1\n      mload\n      swap1\n      0x20\n      add\n      swap1\n      tag_147\n      swap3\n      swap2\n      swap1\n      tag_148\n      jump\t// in\n    tag_147:\n      pop\n      0x20\n      dup3\n      add\n      mload\n      dup2\n      0x01\n      add\n      swap1\n      dup1\n      mload\n      swap1\n      0x20\n      add\n      swap1\n      tag_149\n      swap3\n      swap2\n      swap1\n      tag_148\n      jump\t// in\n    tag_149:\n      pop\n      0x40\n      dup3\n      add\n      mload\n      dup2\n      0x02\n      add\n      sstore\n      0x60\n      dup3\n      add\n      mload\n      dup2\n      0x03\n      add\n      exp(0x0100, 0x00)\n      dup2\n      sload\n      dup2\n      0xff\n      mul\n      not\n      and\n      swap1\n      dup4\n      0x04\n      dup2\n      gt\n      iszero\n      tag_150\n      jumpi\n      tag_151\n      tag_86\n      jump\t// in\n    tag_151:\n    tag_150:\n      mul\n      or\n      swap1\n      sstore\n      pop\n      swap1\n      pop\n      pop\n        /* \"Freelance.sol\":3119:3133  totalSchedules */\n      0x00\n      dup1\n        /* \"Freelance.sol\":3119:3135  totalSchedules++ */\n      dup2\n      sload\n      dup1\n      swap3\n      swap2\n      swap1\n      tag_152\n      swap1\n      tag_153\n      jump\t// in\n    tag_152:\n      swap2\n      swap1\n      pop\n      sstore\n      pop\n        /* \"Freelance.sol\":3151:3176  scheduleAdded(_shortCode) */\n      0xf29fdea51f7ec4cf45bbb7eb61e67fa64cf90101b5ea7415c5b02b69bac9c594\n        /* \"Freelance.sol\":3165:3175  _shortCode */\n      dup6\n        /* \"Freelance.sol\":3151:3176  scheduleAdded(_shortCode) */\n      mload(0x40)\n      tag_154\n      swap2\n      swap1\n      tag_155\n      jump\t// in\n    tag_154:\n      mload(0x40)\n      dup1\n      swap2\n      sub\n      swap1\n      log1\n        /* \"Freelance.sol\":2882:3184  {... */\n      pop\n        /* \"Freelance.sol\":2702:3184  function addSchedule(string memory _shortCode, string memory _description, uint256 _value)... */\n      pop\n      pop\n      pop\n      pop\n      jump\t// out\n        /* \"Freelance.sol\":756:788  int256 public totalSchedules = 0 */\n    tag_61:\n      sload(0x00)\n      dup2\n      jump\t// out\n        /* \"Freelance.sol\":3823:4195  function startTask(int256 _scheduleID)... */\n    tag_67:\n        /* \"Freelance.sol\":3902:3923  ProjectState.accepted */\n      0x01\n        /* \"Freelance.sol\":1537:1543  _state */\n      dup1\n        /* \"Freelance.sol\":1521:1543  projectState == _state */\n      0x02\n      dup2\n      gt\n      iszero\n      tag_157\n      jumpi\n      tag_158\n      tag_86\n      jump\t// in\n    tag_158:\n    tag_157:\n        /* \"Freelance.sol\":1521:1533  projectState */\n      0x02\n      0x14\n      swap1\n      sload\n      swap1\n      0x0100\n      exp\n      swap1\n      div\n      0xff\n      and\n        /* \"Freelance.sol\":1521:1543  projectState == _state */\n      0x02\n      dup2\n      gt\n      iszero\n      tag_159\n      jumpi\n      tag_160\n      tag_86\n      jump\t// in\n    tag_160:\n    tag_159:\n      eq\n        /* \"Freelance.sol\":1513:1544  require(projectState == _state) */\n      tag_161\n      jumpi\n      0x00\n      dup1\n      revert\n    tag_161:\n        /* \"Freelance.sol\":3950:3961  _scheduleID */\n      dup2\n        /* \"Freelance.sol\":3963:3983  ScheduleState.funded */\n      0x01\n        /* \"Freelance.sol\":1681:1682  1 */\n      dup1\n        /* \"Freelance.sol\":1664:1678  totalSchedules */\n      sload(0x00)\n        /* \"Freelance.sol\":1664:1682  totalSchedules - 1 */\n      tag_163\n      swap2\n      swap1\n      tag_92\n      jump\t// in\n    tag_163:\n        /* \"Freelance.sol\":1649:1660  _scheduleID */\n      dup3\n        /* \"Freelance.sol\":1649:1682  _scheduleID <= totalSchedules - 1 */\n      sgt\n      iszero\n        /* \"Freelance.sol\":1648:1740  (_scheduleID <= totalSchedules - 1) && scheduleRegister[_scheduleID].scheduleState == _state */\n      dup1\n      iszero\n      tag_164\n      jumpi\n      pop\n        /* \"Freelance.sol\":1734:1740  _state */\n      dup1\n        /* \"Freelance.sol\":1687:1740  scheduleRegister[_scheduleID].scheduleState == _state */\n      0x04\n      dup2\n      gt\n      iszero\n      tag_165\n      jumpi\n      tag_166\n      tag_86\n      jump\t// in\n    tag_166:\n    tag_165:\n        /* \"Freelance.sol\":1687:1703  scheduleRegister */\n      0x04\n        /* \"Freelance.sol\":1687:1716  scheduleRegister[_scheduleID] */\n      0x00\n        /* \"Freelance.sol\":1704:1715  _scheduleID */\n      dup5\n        /* \"Freelance.sol\":1687:1716  scheduleRegister[_scheduleID] */\n      dup2\n      mstore\n      0x20\n      add\n      swap1\n      dup2\n      mstore\n      0x20\n      add\n      0x00\n      keccak256\n        /* \"Freelance.sol\":1687:1730  scheduleRegister[_scheduleID].scheduleState */\n      0x03\n      add\n      0x00\n      swap1\n      sload\n      swap1\n      0x0100\n      exp\n      swap1\n      div\n      0xff\n      and\n        /* \"Freelance.sol\":1687:1740  scheduleRegister[_scheduleID].scheduleState == _state */\n      0x04\n      dup2\n      gt\n      iszero\n      tag_167\n      jumpi\n      tag_168\n      tag_86\n      jump\t// in\n    tag_168:\n    tag_167:\n      eq\n        /* \"Freelance.sol\":1648:1740  (_scheduleID <= totalSchedules - 1) && scheduleRegister[_scheduleID].scheduleState == _state */\n    tag_164:\n        /* \"Freelance.sol\":1640:1741  require((_scheduleID <= totalSchedules - 1) && scheduleRegister[_scheduleID].scheduleState == _state) */\n      tag_169\n      jumpi\n      0x00\n      dup1\n      revert\n    tag_169:\n        /* \"Freelance.sol\":1304:1317  clientAddress */\n      0x02\n      0x00\n      swap1\n      sload\n      swap1\n      0x0100\n      exp\n      swap1\n      div\n      0xffffffffffffffffffffffffffffffffffffffff\n      and\n        /* \"Freelance.sol\":1290:1317  msg.sender != clientAddress */\n      0xffffffffffffffffffffffffffffffffffffffff\n      and\n        /* \"Freelance.sol\":1290:1300  msg.sender */\n      caller\n        /* \"Freelance.sol\":1290:1317  msg.sender != clientAddress */\n      0xffffffffffffffffffffffffffffffffffffffff\n      and\n      eq\n      iszero\n        /* \"Freelance.sol\":1282:1318  require(msg.sender != clientAddress) */\n      tag_171\n      jumpi\n      0x00\n      dup1\n      revert\n    tag_171:\n        /* \"Freelance.sol\":4058:4068  msg.sender */\n      caller\n        /* \"Freelance.sol\":4030:4047  freelancerAddress */\n      0x01\n      0x00\n        /* \"Freelance.sol\":4030:4069  freelancerAddress = payable(msg.sender) */\n      0x0100\n      exp\n      dup2\n      sload\n      dup2\n      0xffffffffffffffffffffffffffffffffffffffff\n      mul\n      not\n      and\n      swap1\n      dup4\n      0xffffffffffffffffffffffffffffffffffffffff\n      and\n      mul\n      or\n      swap1\n      sstore\n      pop\n        /* \"Freelance.sol\":4126:4147  ScheduleState.started */\n      0x02\n        /* \"Freelance.sol\":4080:4096  scheduleRegister */\n      0x04\n        /* \"Freelance.sol\":4080:4109  scheduleRegister[_scheduleID] */\n      0x00\n        /* \"Freelance.sol\":4097:4108  _scheduleID */\n      dup7\n        /* \"Freelance.sol\":4080:4109  scheduleRegister[_scheduleID] */\n      dup2\n      mstore\n      0x20\n      add\n      swap1\n      dup2\n      mstore\n      0x20\n      add\n      0x00\n      keccak256\n        /* \"Freelance.sol\":4080:4123  scheduleRegister[_scheduleID].scheduleState */\n      0x03\n      add\n      0x00\n        /* \"Freelance.sol\":4080:4147  scheduleRegister[_scheduleID].scheduleState = ScheduleState.started */\n      0x0100\n      exp\n      dup2\n      sload\n      dup2\n      0xff\n      mul\n      not\n      and\n      swap1\n      dup4\n      0x04\n      dup2\n      gt\n      iszero\n      tag_173\n      jumpi\n      tag_174\n      tag_86\n      jump\t// in\n    tag_174:\n    tag_173:\n      mul\n      or\n      swap1\n      sstore\n      pop\n        /* \"Freelance.sol\":4163:4187  taskStarted(_scheduleID) */\n      0xde2dc33fbe2a5b6bf5e0ed721d44dc14441c4eef2cf4975ce14fd7bc0549489c\n        /* \"Freelance.sol\":4175:4186  _scheduleID */\n      dup5\n        /* \"Freelance.sol\":4163:4187  taskStarted(_scheduleID) */\n      mload(0x40)\n      tag_175\n      swap2\n      swap1\n      tag_63\n      jump\t// in\n    tag_175:\n      mload(0x40)\n      dup1\n      swap2\n      sub\n      swap1\n      log1\n        /* \"Freelance.sol\":1549:1550  _ */\n      pop\n      pop\n        /* \"Freelance.sol\":3823:4195  function startTask(int256 _scheduleID)... */\n      pop\n      pop\n      jump\t// out\n        /* \"Freelance.sol\":951:1002  mapping(int256 => schedule) public scheduleRegister */\n    tag_71:\n      mstore(0x20, 0x04)\n      dup1\n      0x00\n      mstore\n      keccak256(0x00, 0x40)\n      0x00\n      swap2\n      pop\n      swap1\n      pop\n      dup1\n      0x00\n      add\n      dup1\n      sload\n      tag_176\n      swap1\n      tag_177\n      jump\t// in\n    tag_176:\n      dup1\n      0x1f\n      add\n      0x20\n      dup1\n      swap2\n      div\n      mul\n      0x20\n      add\n      mload(0x40)\n      swap1\n      dup2\n      add\n      0x40\n      mstore\n      dup1\n      swap3\n      swap2\n      swap1\n      dup2\n      dup2\n      mstore\n      0x20\n      add\n      dup3\n      dup1\n      sload\n      tag_178\n      swap1\n      tag_177\n      jump\t// in\n    tag_178:\n      dup1\n      iszero\n      tag_179\n      jumpi\n      dup1\n      0x1f\n      lt\n      tag_180\n      jumpi\n      0x0100\n      dup1\n      dup4\n      sload\n      div\n      mul\n      dup4\n      mstore\n      swap2\n      0x20\n      add\n      swap2\n      jump(tag_179)\n    tag_180:\n      dup3\n      add\n      swap2\n      swap1\n      0x00\n      mstore\n      keccak256(0x00, 0x20)\n      swap1\n    tag_181:\n      dup2\n      sload\n      dup2\n      mstore\n      swap1\n      0x01\n      add\n      swap1\n      0x20\n      add\n      dup1\n      dup4\n      gt\n      tag_181\n      jumpi\n      dup3\n      swap1\n      sub\n      0x1f\n      and\n      dup3\n      add\n      swap2\n    tag_179:\n      pop\n      pop\n      pop\n      pop\n      pop\n      swap1\n      dup1\n      0x01\n      add\n      dup1\n      sload\n      tag_182\n      swap1\n      tag_177\n      jump\t// in\n    tag_182:\n      dup1\n      0x1f\n      add\n      0x20\n      dup1\n      swap2\n      div\n      mul\n      0x20\n      add\n      mload(0x40)\n      swap1\n      dup2\n      add\n      0x40\n      mstore\n      dup1\n      swap3\n      swap2\n      swap1\n      dup2\n      dup2\n      mstore\n      0x20\n      add\n      dup3\n      dup1\n      sload\n      tag_183\n      swap1\n      tag_177\n      jump\t// in\n    tag_183:\n      dup1\n      iszero\n      tag_184\n      jumpi\n      dup1\n      0x1f\n      lt\n      tag_185\n      jumpi\n      0x0100\n      dup1\n      dup4\n      sload\n      div\n      mul\n      dup4\n      mstore\n      swap2\n      0x20\n      add\n      swap2\n      jump(tag_184)\n    tag_185:\n      dup3\n      add\n      swap2\n      swap1\n      0x00\n      mstore\n      keccak256(0x00, 0x20)\n      swap1\n    tag_186:\n      dup2\n      sload\n      dup2\n      mstore\n      swap1\n      0x01\n      add\n      swap1\n      0x20\n      add\n      dup1\n      dup4\n      gt\n      tag_186\n      jumpi\n      dup3\n      swap1\n      sub\n      0x1f\n      and\n      dup3\n      add\n      swap2\n    tag_184:\n      pop\n      pop\n      pop\n      pop\n      pop\n      swap1\n      dup1\n      0x02\n      add\n      sload\n      swap1\n      dup1\n      0x03\n      add\n      0x00\n      swap1\n      sload\n      swap1\n      0x0100\n      exp\n      swap1\n      div\n      0xff\n      and\n      swap1\n      pop\n      dup5\n      jump\t// out\n        /* \"Freelance.sol\":4533:4986  function releaseFunds(int256 _scheduleID)... */\n    tag_76:\n        /* \"Freelance.sol\":4632:4653  ProjectState.accepted */\n      0x01\n        /* \"Freelance.sol\":1537:1543  _state */\n      dup1\n        /* \"Freelance.sol\":1521:1543  projectState == _state */\n      0x02\n      dup2\n      gt\n      iszero\n      tag_188\n      jumpi\n      tag_189\n      tag_86\n      jump\t// in\n    tag_189:\n    tag_188:\n        /* \"Freelance.sol\":1521:1533  projectState */\n      0x02\n      0x14\n      swap1\n      sload\n      swap1\n      0x0100\n      exp\n      swap1\n      div\n      0xff\n      and\n        /* \"Freelance.sol\":1521:1543  projectState == _state */\n      0x02\n      dup2\n      gt\n      iszero\n      tag_190\n      jumpi\n      tag_191\n      tag_86\n      jump\t// in\n    tag_191:\n    tag_190:\n      eq\n        /* \"Freelance.sol\":1513:1544  require(projectState == _state) */\n      tag_192\n      jumpi\n      0x00\n      dup1\n      revert\n    tag_192:\n        /* \"Freelance.sol\":4680:4691  _scheduleID */\n      dup2\n        /* \"Freelance.sol\":4693:4715  ScheduleState.approved */\n      0x03\n        /* \"Freelance.sol\":1681:1682  1 */\n      0x01\n        /* \"Freelance.sol\":1664:1678  totalSchedules */\n      sload(0x00)\n        /* \"Freelance.sol\":1664:1682  totalSchedules - 1 */\n      tag_194\n      swap2\n      swap1\n      tag_92\n      jump\t// in\n    tag_194:\n        /* \"Freelance.sol\":1649:1660  _scheduleID */\n      dup3\n        /* \"Freelance.sol\":1649:1682  _scheduleID <= totalSchedules - 1 */\n      sgt\n      iszero\n        /* \"Freelance.sol\":1648:1740  (_scheduleID <= totalSchedules - 1) && scheduleRegister[_scheduleID].scheduleState == _state */\n      dup1\n      iszero\n      tag_195\n      jumpi\n      pop\n        /* \"Freelance.sol\":1734:1740  _state */\n      dup1\n        /* \"Freelance.sol\":1687:1740  scheduleRegister[_scheduleID].scheduleState == _state */\n      0x04\n      dup2\n      gt\n      iszero\n      tag_196\n      jumpi\n      tag_197\n      tag_86\n      jump\t// in\n    tag_197:\n    tag_196:\n        /* \"Freelance.sol\":1687:1703  scheduleRegister */\n      0x04\n        /* \"Freelance.sol\":1687:1716  scheduleRegister[_scheduleID] */\n      0x00\n        /* \"Freelance.sol\":1704:1715  _scheduleID */\n      dup5\n        /* \"Freelance.sol\":1687:1716  scheduleRegister[_scheduleID] */\n      dup2\n      mstore\n      0x20\n      add\n      swap1\n      dup2\n      mstore\n      0x20\n      add\n      0x00\n      keccak256\n        /* \"Freelance.sol\":1687:1730  scheduleRegister[_scheduleID].scheduleState */\n      0x03\n      add\n      0x00\n      swap1\n      sload\n      swap1\n      0x0100\n      exp\n      swap1\n      div\n      0xff\n      and\n        /* \"Freelance.sol\":1687:1740  scheduleRegister[_scheduleID].scheduleState == _state */\n      0x04\n      dup2\n      gt\n      iszero\n      tag_198\n      jumpi\n      tag_199\n      tag_86\n      jump\t// in\n    tag_199:\n    tag_198:\n      eq\n        /* \"Freelance.sol\":1648:1740  (_scheduleID <= totalSchedules - 1) && scheduleRegister[_scheduleID].scheduleState == _state */\n    tag_195:\n        /* \"Freelance.sol\":1640:1741  require((_scheduleID <= totalSchedules - 1) && scheduleRegister[_scheduleID].scheduleState == _state) */\n      tag_200\n      jumpi\n      0x00\n      dup1\n      revert\n    tag_200:\n        /* \"Freelance.sol\":1139:1156  freelancerAddress */\n      0x01\n      0x00\n      swap1\n      sload\n      swap1\n      0x0100\n      exp\n      swap1\n      div\n      0xffffffffffffffffffffffffffffffffffffffff\n      and\n        /* \"Freelance.sol\":1125:1156  msg.sender == freelancerAddress */\n      0xffffffffffffffffffffffffffffffffffffffff\n      and\n        /* \"Freelance.sol\":1125:1135  msg.sender */\n      caller\n        /* \"Freelance.sol\":1125:1156  msg.sender == freelancerAddress */\n      0xffffffffffffffffffffffffffffffffffffffff\n      and\n      eq\n        /* \"Freelance.sol\":1117:1157  require(msg.sender == freelancerAddress) */\n      tag_202\n      jumpi\n      0x00\n      dup1\n      revert\n    tag_202:\n        /* \"Freelance.sol\":4757:4774  freelancerAddress */\n      0x01\n      0x00\n      swap1\n      sload\n      swap1\n      0x0100\n      exp\n      swap1\n      div\n      0xffffffffffffffffffffffffffffffffffffffff\n      and\n        /* \"Freelance.sol\":4757:4783  freelancerAddress.transfer */\n      0xffffffffffffffffffffffffffffffffffffffff\n      and\n        /* \"Freelance.sol\":4757:4820  freelancerAddress.transfer(scheduleRegister[_scheduleID].value) */\n      0x08fc\n        /* \"Freelance.sol\":4784:4800  scheduleRegister */\n      0x04\n        /* \"Freelance.sol\":4784:4813  scheduleRegister[_scheduleID] */\n      0x00\n        /* \"Freelance.sol\":4801:4812  _scheduleID */\n      dup8\n        /* \"Freelance.sol\":4784:4813  scheduleRegister[_scheduleID] */\n      dup2\n      mstore\n      0x20\n      add\n      swap1\n      dup2\n      mstore\n      0x20\n      add\n      0x00\n      keccak256\n        /* \"Freelance.sol\":4784:4819  scheduleRegister[_scheduleID].value */\n      0x02\n      add\n      sload\n        /* \"Freelance.sol\":4757:4820  freelancerAddress.transfer(scheduleRegister[_scheduleID].value) */\n      swap1\n      dup2\n      iszero\n      mul\n      swap1\n      mload(0x40)\n      0x00\n      mload(0x40)\n      dup1\n      dup4\n      sub\n      dup2\n      dup6\n      dup9\n      dup9\n      call\n      swap4\n      pop\n      pop\n      pop\n      pop\n      iszero\n      dup1\n      iszero\n      tag_205\n      jumpi\n      returndatasize\n      0x00\n      dup1\n      returndatacopy\n      revert(0x00, returndatasize)\n    tag_205:\n      pop\n        /* \"Freelance.sol\":4877:4899  ScheduleState.released */\n      0x04\n        /* \"Freelance.sol\":4831:4847  scheduleRegister */\n      dup1\n        /* \"Freelance.sol\":4831:4860  scheduleRegister[_scheduleID] */\n      0x00\n        /* \"Freelance.sol\":4848:4859  _scheduleID */\n      dup7\n        /* \"Freelance.sol\":4831:4860  scheduleRegister[_scheduleID] */\n      dup2\n      mstore\n      0x20\n      add\n      swap1\n      dup2\n      mstore\n      0x20\n      add\n      0x00\n      keccak256\n        /* \"Freelance.sol\":4831:4874  scheduleRegister[_scheduleID].scheduleState */\n      0x03\n      add\n      0x00\n        /* \"Freelance.sol\":4831:4899  scheduleRegister[_scheduleID].scheduleState = ScheduleState.released */\n      0x0100\n      exp\n      dup2\n      sload\n      dup2\n      0xff\n      mul\n      not\n      and\n      swap1\n      dup4\n      0x04\n      dup2\n      gt\n      iszero\n      tag_206\n      jumpi\n      tag_207\n      tag_86\n      jump\t// in\n    tag_207:\n    tag_206:\n      mul\n      or\n      swap1\n      sstore\n      pop\n        /* \"Freelance.sol\":4915:4978  fundsReleased(_scheduleID, scheduleRegister[_scheduleID].value) */\n      0xd73e163332c47993ba97b46887362ea1f01120cbc609242b41762901217bfd5d\n        /* \"Freelance.sol\":4929:4940  _scheduleID */\n      dup5\n        /* \"Freelance.sol\":4942:4958  scheduleRegister */\n      0x04\n        /* \"Freelance.sol\":4942:4971  scheduleRegister[_scheduleID] */\n      0x00\n        /* \"Freelance.sol\":4959:4970  _scheduleID */\n      dup8\n        /* \"Freelance.sol\":4942:4971  scheduleRegister[_scheduleID] */\n      dup2\n      mstore\n      0x20\n      add\n      swap1\n      dup2\n      mstore\n      0x20\n      add\n      0x00\n      keccak256\n        /* \"Freelance.sol\":4942:4977  scheduleRegister[_scheduleID].value */\n      0x02\n      add\n      sload\n        /* \"Freelance.sol\":4915:4978  fundsReleased(_scheduleID, scheduleRegister[_scheduleID].value) */\n      mload(0x40)\n      tag_208\n      swap3\n      swap2\n      swap1\n      tag_209\n      jump\t// in\n    tag_208:\n      mload(0x40)\n      dup1\n      swap2\n      sub\n      swap1\n      log1\n        /* \"Freelance.sol\":1549:1550  _ */\n      pop\n      pop\n        /* \"Freelance.sol\":4533:4986  function releaseFunds(int256 _scheduleID)... */\n      pop\n      pop\n      jump\t// out\n        /* \"Freelance.sol\":4998:5175  function endProject()... */\n    tag_79:\n        /* \"Freelance.sol\":1393:1406  clientAddress */\n      0x02\n      0x00\n      swap1\n      sload\n      swap1\n      0x0100\n      exp\n      swap1\n      div\n      0xffffffffffffffffffffffffffffffffffffffff\n      and\n        /* \"Freelance.sol\":1379:1406  msg.sender == clientAddress */\n      0xffffffffffffffffffffffffffffffffffffffff\n      and\n        /* \"Freelance.sol\":1379:1389  msg.sender */\n      caller\n        /* \"Freelance.sol\":1379:1406  msg.sender == clientAddress */\n      0xffffffffffffffffffffffffffffffffffffffff\n      and\n      eq\n        /* \"Freelance.sol\":1379:1441  msg.sender == clientAddress || msg.sender == freelancerAddress */\n      dup1\n      tag_211\n      jumpi\n      pop\n        /* \"Freelance.sol\":1424:1441  freelancerAddress */\n      0x01\n      0x00\n      swap1\n      sload\n      swap1\n      0x0100\n      exp\n      swap1\n      div\n      0xffffffffffffffffffffffffffffffffffffffff\n      and\n        /* \"Freelance.sol\":1410:1441  msg.sender == freelancerAddress */\n      0xffffffffffffffffffffffffffffffffffffffff\n      and\n        /* \"Freelance.sol\":1410:1420  msg.sender */\n      caller\n        /* \"Freelance.sol\":1410:1441  msg.sender == freelancerAddress */\n      0xffffffffffffffffffffffffffffffffffffffff\n      and\n      eq\n        /* \"Freelance.sol\":1379:1441  msg.sender == clientAddress || msg.sender == freelancerAddress */\n    tag_211:\n        /* \"Freelance.sol\":1371:1442  require(msg.sender == clientAddress || msg.sender == freelancerAddress) */\n      tag_212\n      jumpi\n      0x00\n      dup1\n      revert\n    tag_212:\n        /* \"Freelance.sol\":1989:1990  0 */\n      0x00\n        /* \"Freelance.sol\":1964:1985  address(this).balance */\n      selfbalance\n        /* \"Freelance.sol\":1964:1990  address(this).balance == 0 */\n      eq\n        /* \"Freelance.sol\":1956:1991  require(address(this).balance == 0) */\n      tag_214\n      jumpi\n      0x00\n      dup1\n      revert\n    tag_214:\n        /* \"Freelance.sol\":5118:5137  ProjectState.closed */\n      0x02\n        /* \"Freelance.sol\":5103:5115  projectState */\n      dup1\n      0x14\n        /* \"Freelance.sol\":5103:5137  projectState = ProjectState.closed */\n      0x0100\n      exp\n      dup2\n      sload\n      dup2\n      0xff\n      mul\n      not\n      and\n      swap1\n      dup4\n      0x02\n      dup2\n      gt\n      iszero\n      tag_216\n      jumpi\n      tag_217\n      tag_86\n      jump\t// in\n    tag_217:\n    tag_216:\n      mul\n      or\n      swap1\n      sstore\n      pop\n        /* \"Freelance.sol\":5153:5167  projectEnded() */\n      0xbef1ef6470add1875c12e547d844894de0608f7d47527676863b44153090bfe2\n      mload(0x40)\n      mload(0x40)\n      dup1\n      swap2\n      sub\n      swap1\n      log1\n        /* \"Freelance.sol\":4998:5175  function endProject()... */\n      jump\t// out\n        /* \"Freelance.sol\":3196:3425  function acceptProject()... */\n    tag_82:\n        /* \"Freelance.sol\":3261:3283  ProjectState.initiated */\n      0x00\n        /* \"Freelance.sol\":1537:1543  _state */\n      dup1\n        /* \"Freelance.sol\":1521:1543  projectState == _state */\n      0x02\n      dup2\n      gt\n      iszero\n      tag_219\n      jumpi\n      tag_220\n      tag_86\n      jump\t// in\n    tag_220:\n    tag_219:\n        /* \"Freelance.sol\":1521:1533  projectState */\n      0x02\n      0x14\n      swap1\n      sload\n      swap1\n      0x0100\n      exp\n      swap1\n      div\n      0xff\n      and\n        /* \"Freelance.sol\":1521:1543  projectState == _state */\n      0x02\n      dup2\n      gt\n      iszero\n      tag_221\n      jumpi\n      tag_222\n      tag_86\n      jump\t// in\n    tag_222:\n    tag_221:\n      eq\n        /* \"Freelance.sol\":1513:1544  require(projectState == _state) */\n      tag_223\n      jumpi\n      0x00\n      dup1\n      revert\n    tag_223:\n        /* \"Freelance.sol\":3317:3327  msg.sender */\n      caller\n        /* \"Freelance.sol\":3301:3314  clientAddress */\n      0x02\n      0x00\n        /* \"Freelance.sol\":3301:3327  clientAddress = msg.sender */\n      0x0100\n      exp\n      dup2\n      sload\n      dup2\n      0xffffffffffffffffffffffffffffffffffffffff\n      mul\n      not\n      and\n      swap1\n      dup4\n      0xffffffffffffffffffffffffffffffffffffffff\n      and\n      mul\n      or\n      swap1\n      sstore\n      pop\n        /* \"Freelance.sol\":3353:3374  ProjectState.accepted */\n      0x01\n        /* \"Freelance.sol\":3338:3350  projectState */\n      0x02\n      0x14\n        /* \"Freelance.sol\":3338:3374  projectState = ProjectState.accepted */\n      0x0100\n      exp\n      dup2\n      sload\n      dup2\n      0xff\n      mul\n      not\n      and\n      swap1\n      dup4\n      0x02\n      dup2\n      gt\n      iszero\n      tag_225\n      jumpi\n      tag_226\n      tag_86\n      jump\t// in\n    tag_226:\n    tag_225:\n      mul\n      or\n      swap1\n      sstore\n      pop\n        /* \"Freelance.sol\":3390:3417  projectAccepted(msg.sender) */\n      0x01bc39c23d192137df337abb0c6fe3f63a86ead52f73452ca64136a5dfd7ff43\n        /* \"Freelance.sol\":3406:3416  msg.sender */\n      caller\n        /* \"Freelance.sol\":3390:3417  projectAccepted(msg.sender) */\n      mload(0x40)\n      tag_227\n      swap2\n      swap1\n      tag_42\n      jump\t// in\n    tag_227:\n      mload(0x40)\n      dup1\n      swap2\n      sub\n      swap1\n      log1\n        /* \"Freelance.sol\":3196:3425  function acceptProject()... */\n      pop\n      jump\t// out\n    tag_142:\n      mload(0x40)\n      dup1\n      0x80\n      add\n      0x40\n      mstore\n      dup1\n      0x60\n      dup2\n      mstore\n      0x20\n      add\n      0x60\n      dup2\n      mstore\n      0x20\n      add\n      0x00\n      dup2\n      mstore\n      0x20\n      add\n      0x00\n      0x04\n      dup2\n      gt\n      iszero\n      tag_228\n      jumpi\n      tag_229\n      tag_86\n      jump\t// in\n    tag_229:\n    tag_228:\n      dup2\n      mstore\n      pop\n      swap1\n      jump\t// out\n    tag_148:\n      dup3\n      dup1\n      sload\n      tag_230\n      swap1\n      tag_177\n      jump\t// in\n    tag_230:\n      swap1\n      0x00\n      mstore\n      keccak256(0x00, 0x20)\n      swap1\n      0x1f\n      add\n      0x20\n      swap1\n      div\n      dup2\n      add\n      swap3\n      dup3\n      tag_232\n      jumpi\n      0x00\n      dup6\n      sstore\n      jump(tag_231)\n    tag_232:\n      dup3\n      0x1f\n      lt\n      tag_233\n      jumpi\n      dup1\n      mload\n      not(0xff)\n      and\n      dup4\n      dup1\n      add\n      or\n      dup6\n      sstore\n      jump(tag_231)\n    tag_233:\n      dup3\n      dup1\n      add\n      0x01\n      add\n      dup6\n      sstore\n      dup3\n      iszero\n      tag_231\n      jumpi\n      swap2\n      dup3\n      add\n    tag_234:\n      dup3\n      dup2\n      gt\n      iszero\n      tag_235\n      jumpi\n      dup3\n      mload\n      dup3\n      sstore\n      swap2\n      0x20\n      add\n      swap2\n      swap1\n      0x01\n      add\n      swap1\n      jump(tag_234)\n    tag_235:\n    tag_231:\n      pop\n      swap1\n      pop\n      tag_236\n      swap2\n      swap1\n      tag_237\n      jump\t// in\n    tag_236:\n      pop\n      swap1\n      jump\t// out\n    tag_237:\n    tag_238:\n      dup1\n      dup3\n      gt\n      iszero\n      tag_239\n      jumpi\n      0x00\n      dup2\n      0x00\n      swap1\n      sstore\n      pop\n      0x01\n      add\n      jump(tag_238)\n    tag_239:\n      pop\n      swap1\n      jump\t// out\n        /* \"#utility.yul\":7:82   */\n    tag_240:\n        /* \"#utility.yul\":40:46   */\n      0x00\n        /* \"#utility.yul\":73:75   */\n      0x40\n        /* \"#utility.yul\":67:76   */\n      mload\n        /* \"#utility.yul\":57:76   */\n      swap1\n      pop\n        /* \"#utility.yul\":7:82   */\n      swap1\n      jump\t// out\n        /* \"#utility.yul\":88:205   */\n    tag_241:\n        /* \"#utility.yul\":197:198   */\n      0x00\n        /* \"#utility.yul\":194:195   */\n      dup1\n        /* \"#utility.yul\":187:199   */\n      revert\n        /* \"#utility.yul\":211:328   */\n    tag_242:\n        /* \"#utility.yul\":320:321   */\n      0x00\n        /* \"#utility.yul\":317:318   */\n      dup1\n        /* \"#utility.yul\":310:322   */\n      revert\n        /* \"#utility.yul\":334:410   */\n    tag_243:\n        /* \"#utility.yul\":370:377   */\n      0x00\n        /* \"#utility.yul\":399:404   */\n      dup2\n        /* \"#utility.yul\":388:404   */\n      swap1\n      pop\n        /* \"#utility.yul\":334:410   */\n      swap2\n      swap1\n      pop\n      jump\t// out\n        /* \"#utility.yul\":416:536   */\n    tag_244:\n        /* \"#utility.yul\":488:511   */\n      tag_286\n        /* \"#utility.yul\":505:510   */\n      dup2\n        /* \"#utility.yul\":488:511   */\n      tag_243\n      jump\t// in\n    tag_286:\n        /* \"#utility.yul\":481:486   */\n      dup2\n        /* \"#utility.yul\":478:512   */\n      eq\n        /* \"#utility.yul\":468:530   */\n      tag_287\n      jumpi\n        /* \"#utility.yul\":526:527   */\n      0x00\n        /* \"#utility.yul\":523:524   */\n      dup1\n        /* \"#utility.yul\":516:528   */\n      revert\n        /* \"#utility.yul\":468:530   */\n    tag_287:\n        /* \"#utility.yul\":416:536   */\n      pop\n      jump\t// out\n        /* \"#utility.yul\":542:679   */\n    tag_245:\n        /* \"#utility.yul\":587:592   */\n      0x00\n        /* \"#utility.yul\":625:631   */\n      dup2\n        /* \"#utility.yul\":612:632   */\n      calldataload\n        /* \"#utility.yul\":603:632   */\n      swap1\n      pop\n        /* \"#utility.yul\":641:673   */\n      tag_289\n        /* \"#utility.yul\":667:672   */\n      dup2\n        /* \"#utility.yul\":641:673   */\n      tag_244\n      jump\t// in\n    tag_289:\n        /* \"#utility.yul\":542:679   */\n      swap3\n      swap2\n      pop\n      pop\n      jump\t// out\n        /* \"#utility.yul\":685:1012   */\n    tag_22:\n        /* \"#utility.yul\":743:749   */\n      0x00\n        /* \"#utility.yul\":792:794   */\n      0x20\n        /* \"#utility.yul\":780:789   */\n      dup3\n        /* \"#utility.yul\":771:778   */\n      dup5\n        /* \"#utility.yul\":767:790   */\n      sub\n        /* \"#utility.yul\":763:795   */\n      slt\n        /* \"#utility.yul\":760:879   */\n      iszero\n      tag_291\n      jumpi\n        /* \"#utility.yul\":798:877   */\n      tag_292\n      tag_241\n      jump\t// in\n    tag_292:\n        /* \"#utility.yul\":760:879   */\n    tag_291:\n        /* \"#utility.yul\":918:919   */\n      0x00\n        /* \"#utility.yul\":943:995   */\n      tag_293\n        /* \"#utility.yul\":987:994   */\n      dup5\n        /* \"#utility.yul\":978:984   */\n      dup3\n        /* \"#utility.yul\":967:976   */\n      dup6\n        /* \"#utility.yul\":963:985   */\n      add\n        /* \"#utility.yul\":943:995   */\n      tag_245\n      jump\t// in\n    tag_293:\n        /* \"#utility.yul\":933:995   */\n      swap2\n      pop\n        /* \"#utility.yul\":889:1005   */\n      pop\n        /* \"#utility.yul\":685:1012   */\n      swap3\n      swap2\n      pop\n      pop\n      jump\t// out\n        /* \"#utility.yul\":1018:1144   */\n    tag_246:\n        /* \"#utility.yul\":1055:1062   */\n      0x00\n        /* \"#utility.yul\":1095:1137   */\n      0xffffffffffffffffffffffffffffffffffffffff\n        /* \"#utility.yul\":1088:1093   */\n      dup3\n        /* \"#utility.yul\":1084:1138   */\n      and\n        /* \"#utility.yul\":1073:1138   */\n      swap1\n      pop\n        /* \"#utility.yul\":1018:1144   */\n      swap2\n      swap1\n      pop\n      jump\t// out\n        /* \"#utility.yul\":1150:1254   */\n    tag_247:\n        /* \"#utility.yul\":1195:1202   */\n      0x00\n        /* \"#utility.yul\":1224:1248   */\n      tag_296\n        /* \"#utility.yul\":1242:1247   */\n      dup3\n        /* \"#utility.yul\":1224:1248   */\n      tag_246\n      jump\t// in\n    tag_296:\n        /* \"#utility.yul\":1213:1248   */\n      swap1\n      pop\n        /* \"#utility.yul\":1150:1254   */\n      swap2\n      swap1\n      pop\n      jump\t// out\n        /* \"#utility.yul\":1260:1402   */\n    tag_248:\n        /* \"#utility.yul\":1363:1395   */\n      tag_298\n        /* \"#utility.yul\":1389:1394   */\n      dup2\n        /* \"#utility.yul\":1363:1395   */\n      tag_247\n      jump\t// in\n    tag_298:\n        /* \"#utility.yul\":1358:1361   */\n      dup3\n        /* \"#utility.yul\":1351:1396   */\n      mstore\n        /* \"#utility.yul\":1260:1402   */\n      pop\n      pop\n      jump\t// out\n        /* \"#utility.yul\":1408:1662   */\n    tag_28:\n        /* \"#utility.yul\":1517:1521   */\n      0x00\n        /* \"#utility.yul\":1555:1557   */\n      0x20\n        /* \"#utility.yul\":1544:1553   */\n      dup3\n        /* \"#utility.yul\":1540:1558   */\n      add\n        /* \"#utility.yul\":1532:1558   */\n      swap1\n      pop\n        /* \"#utility.yul\":1568:1655   */\n      tag_300\n        /* \"#utility.yul\":1652:1653   */\n      0x00\n        /* \"#utility.yul\":1641:1650   */\n      dup4\n        /* \"#utility.yul\":1637:1654   */\n      add\n        /* \"#utility.yul\":1628:1634   */\n      dup5\n        /* \"#utility.yul\":1568:1655   */\n      tag_248\n      jump\t// in\n    tag_300:\n        /* \"#utility.yul\":1408:1662   */\n      swap3\n      swap2\n      pop\n      pop\n      jump\t// out\n        /* \"#utility.yul\":1668:1745   */\n    tag_249:\n        /* \"#utility.yul\":1705:1712   */\n      0x00\n        /* \"#utility.yul\":1734:1739   */\n      dup2\n        /* \"#utility.yul\":1723:1739   */\n      swap1\n      pop\n        /* \"#utility.yul\":1668:1745   */\n      swap2\n      swap1\n      pop\n      jump\t// out\n        /* \"#utility.yul\":1751:1869   */\n    tag_250:\n        /* \"#utility.yul\":1838:1862   */\n      tag_303\n        /* \"#utility.yul\":1856:1861   */\n      dup2\n        /* \"#utility.yul\":1838:1862   */\n      tag_249\n      jump\t// in\n    tag_303:\n        /* \"#utility.yul\":1833:1836   */\n      dup3\n        /* \"#utility.yul\":1826:1863   */\n      mstore\n        /* \"#utility.yul\":1751:1869   */\n      pop\n      pop\n      jump\t// out\n        /* \"#utility.yul\":1875:2097   */\n    tag_33:\n        /* \"#utility.yul\":1968:1972   */\n      0x00\n        /* \"#utility.yul\":2006:2008   */\n      0x20\n        /* \"#utility.yul\":1995:2004   */\n      dup3\n        /* \"#utility.yul\":1991:2009   */\n      add\n        /* \"#utility.yul\":1983:2009   */\n      swap1\n      pop\n        /* \"#utility.yul\":2019:2090   */\n      tag_305\n        /* \"#utility.yul\":2087:2088   */\n      0x00\n        /* \"#utility.yul\":2076:2085   */\n      dup4\n        /* \"#utility.yul\":2072:2089   */\n      add\n        /* \"#utility.yul\":2063:2069   */\n      dup5\n        /* \"#utility.yul\":2019:2090   */\n      tag_250\n      jump\t// in\n    tag_305:\n        /* \"#utility.yul\":1875:2097   */\n      swap3\n      swap2\n      pop\n      pop\n      jump\t// out\n        /* \"#utility.yul\":2103:2199   */\n    tag_251:\n        /* \"#utility.yul\":2140:2147   */\n      0x00\n        /* \"#utility.yul\":2169:2193   */\n      tag_307\n        /* \"#utility.yul\":2187:2192   */\n      dup3\n        /* \"#utility.yul\":2169:2193   */\n      tag_246\n      jump\t// in\n    tag_307:\n        /* \"#utility.yul\":2158:2193   */\n      swap1\n      pop\n        /* \"#utility.yul\":2103:2199   */\n      swap2\n      swap1\n      pop\n      jump\t// out\n        /* \"#utility.yul\":2205:2323   */\n    tag_252:\n        /* \"#utility.yul\":2292:2316   */\n      tag_309\n        /* \"#utility.yul\":2310:2315   */\n      dup2\n        /* \"#utility.yul\":2292:2316   */\n      tag_251\n      jump\t// in\n    tag_309:\n        /* \"#utility.yul\":2287:2290   */\n      dup3\n        /* \"#utility.yul\":2280:2317   */\n      mstore\n        /* \"#utility.yul\":2205:2323   */\n      pop\n      pop\n      jump\t// out\n        /* \"#utility.yul\":2329:2551   */\n    tag_42:\n        /* \"#utility.yul\":2422:2426   */\n      0x00\n        /* \"#utility.yul\":2460:2462   */\n      0x20\n        /* \"#utility.yul\":2449:2458   */\n      dup3\n        /* \"#utility.yul\":2445:2463   */\n      add\n        /* \"#utility.yul\":2437:2463   */\n      swap1\n      pop\n        /* \"#utility.yul\":2473:2544   */\n      tag_311\n        /* \"#utility.yul\":2541:2542   */\n      0x00\n        /* \"#utility.yul\":2530:2539   */\n      dup4\n        /* \"#utility.yul\":2526:2543   */\n      add\n        /* \"#utility.yul\":2517:2523   */\n      dup5\n        /* \"#utility.yul\":2473:2544   */\n      tag_252\n      jump\t// in\n    tag_311:\n        /* \"#utility.yul\":2329:2551   */\n      swap3\n      swap2\n      pop\n      pop\n      jump\t// out\n        /* \"#utility.yul\":2557:2737   */\n    tag_86:\n        /* \"#utility.yul\":2605:2682   */\n      0x4e487b7100000000000000000000000000000000000000000000000000000000\n        /* \"#utility.yul\":2602:2603   */\n      0x00\n        /* \"#utility.yul\":2595:2683   */\n      mstore\n        /* \"#utility.yul\":2702:2706   */\n      0x21\n        /* \"#utility.yul\":2699:2700   */\n      0x04\n        /* \"#utility.yul\":2692:2707   */\n      mstore\n        /* \"#utility.yul\":2726:2730   */\n      0x24\n        /* \"#utility.yul\":2723:2724   */\n      0x00\n        /* \"#utility.yul\":2716:2731   */\n      revert\n        /* \"#utility.yul\":2743:2863   */\n    tag_253:\n        /* \"#utility.yul\":2831:2832   */\n      0x03\n        /* \"#utility.yul\":2824:2829   */\n      dup2\n        /* \"#utility.yul\":2821:2833   */\n      lt\n        /* \"#utility.yul\":2811:2857   */\n      tag_314\n      jumpi\n        /* \"#utility.yul\":2837:2855   */\n      tag_315\n      tag_86\n      jump\t// in\n    tag_315:\n        /* \"#utility.yul\":2811:2857   */\n    tag_314:\n        /* \"#utility.yul\":2743:2863   */\n      pop\n      jump\t// out\n        /* \"#utility.yul\":2869:3010   */\n    tag_254:\n        /* \"#utility.yul\":2921:2928   */\n      0x00\n        /* \"#utility.yul\":2950:2955   */\n      dup2\n        /* \"#utility.yul\":2939:2955   */\n      swap1\n      pop\n        /* \"#utility.yul\":2956:3004   */\n      tag_317\n        /* \"#utility.yul\":2998:3003   */\n      dup3\n        /* \"#utility.yul\":2956:3004   */\n      tag_253\n      jump\t// in\n    tag_317:\n        /* \"#utility.yul\":2869:3010   */\n      swap2\n      swap1\n      pop\n      jump\t// out\n        /* \"#utility.yul\":3016:3157   */\n    tag_255:\n        /* \"#utility.yul\":3079:3088   */\n      0x00\n        /* \"#utility.yul\":3112:3151   */\n      tag_319\n        /* \"#utility.yul\":3145:3150   */\n      dup3\n        /* \"#utility.yul\":3112:3151   */\n      tag_254\n      jump\t// in\n    tag_319:\n        /* \"#utility.yul\":3099:3151   */\n      swap1\n      pop\n        /* \"#utility.yul\":3016:3157   */\n      swap2\n      swap1\n      pop\n      jump\t// out\n        /* \"#utility.yul\":3163:3320   */\n    tag_256:\n        /* \"#utility.yul\":3263:3313   */\n      tag_321\n        /* \"#utility.yul\":3307:3312   */\n      dup2\n        /* \"#utility.yul\":3263:3313   */\n      tag_255\n      jump\t// in\n    tag_321:\n        /* \"#utility.yul\":3258:3261   */\n      dup3\n        /* \"#utility.yul\":3251:3314   */\n      mstore\n        /* \"#utility.yul\":3163:3320   */\n      pop\n      pop\n      jump\t// out\n        /* \"#utility.yul\":3326:3574   */\n    tag_51:\n        /* \"#utility.yul\":3432:3436   */\n      0x00\n        /* \"#utility.yul\":3470:3472   */\n      0x20\n        /* \"#utility.yul\":3459:3468   */\n      dup3\n        /* \"#utility.yul\":3455:3473   */\n      add\n        /* \"#utility.yul\":3447:3473   */\n      swap1\n      pop\n        /* \"#utility.yul\":3483:3567   */\n      tag_323\n        /* \"#utility.yul\":3564:3565   */\n      0x00\n        /* \"#utility.yul\":3553:3562   */\n      dup4\n        /* \"#utility.yul\":3549:3566   */\n      add\n        /* \"#utility.yul\":3540:3546   */\n      dup5\n        /* \"#utility.yul\":3483:3567   */\n      tag_256\n      jump\t// in\n    tag_323:\n        /* \"#utility.yul\":3326:3574   */\n      swap3\n      swap2\n      pop\n      pop\n      jump\t// out\n        /* \"#utility.yul\":3580:3697   */\n    tag_257:\n        /* \"#utility.yul\":3689:3690   */\n      0x00\n        /* \"#utility.yul\":3686:3687   */\n      dup1\n        /* \"#utility.yul\":3679:3691   */\n      revert\n        /* \"#utility.yul\":3703:3820   */\n    tag_258:\n        /* \"#utility.yul\":3812:3813   */\n      0x00\n        /* \"#utility.yul\":3809:3810   */\n      dup1\n        /* \"#utility.yul\":3802:3814   */\n      revert\n        /* \"#utility.yul\":3826:3928   */\n    tag_259:\n        /* \"#utility.yul\":3867:3873   */\n      0x00\n        /* \"#utility.yul\":3918:3920   */\n      0x1f\n        /* \"#utility.yul\":3914:3921   */\n      not\n        /* \"#utility.yul\":3909:3911   */\n      0x1f\n        /* \"#utility.yul\":3902:3907   */\n      dup4\n        /* \"#utility.yul\":3898:3912   */\n      add\n        /* \"#utility.yul\":3894:3922   */\n      and\n        /* \"#utility.yul\":3884:3922   */\n      swap1\n      pop\n        /* \"#utility.yul\":3826:3928   */\n      swap2\n      swap1\n      pop\n      jump\t// out\n        /* \"#utility.yul\":3934:4114   */\n    tag_260:\n        /* \"#utility.yul\":3982:4059   */\n      0x4e487b7100000000000000000000000000000000000000000000000000000000\n        /* \"#utility.yul\":3979:3980   */\n      0x00\n        /* \"#utility.yul\":3972:4060   */\n      mstore\n        /* \"#utility.yul\":4079:4083   */\n      0x41\n        /* \"#utility.yul\":4076:4077   */\n      0x04\n        /* \"#utility.yul\":4069:4084   */\n      mstore\n        /* \"#utility.yul\":4103:4107   */\n      0x24\n        /* \"#utility.yul\":4100:4101   */\n      0x00\n        /* \"#utility.yul\":4093:4108   */\n      revert\n        /* \"#utility.yul\":4120:4401   */\n    tag_261:\n        /* \"#utility.yul\":4203:4230   */\n      tag_329\n        /* \"#utility.yul\":4225:4229   */\n      dup3\n        /* \"#utility.yul\":4203:4230   */\n      tag_259\n      jump\t// in\n    tag_329:\n        /* \"#utility.yul\":4195:4201   */\n      dup2\n        /* \"#utility.yul\":4191:4231   */\n      add\n        /* \"#utility.yul\":4333:4339   */\n      dup2\n        /* \"#utility.yul\":4321:4331   */\n      dup2\n        /* \"#utility.yul\":4318:4340   */\n      lt\n        /* \"#utility.yul\":4297:4315   */\n      0xffffffffffffffff\n        /* \"#utility.yul\":4285:4295   */\n      dup3\n        /* \"#utility.yul\":4282:4316   */\n      gt\n        /* \"#utility.yul\":4279:4341   */\n      or\n        /* \"#utility.yul\":4276:4364   */\n      iszero\n      tag_330\n      jumpi\n        /* \"#utility.yul\":4344:4362   */\n      tag_331\n      tag_260\n      jump\t// in\n    tag_331:\n        /* \"#utility.yul\":4276:4364   */\n    tag_330:\n        /* \"#utility.yul\":4384:4394   */\n      dup1\n        /* \"#utility.yul\":4380:4382   */\n      0x40\n        /* \"#utility.yul\":4373:4395   */\n      mstore\n        /* \"#utility.yul\":4163:4401   */\n      pop\n        /* \"#utility.yul\":4120:4401   */\n      pop\n      pop\n      jump\t// out\n        /* \"#utility.yul\":4407:4536   */\n    tag_262:\n        /* \"#utility.yul\":4441:4447   */\n      0x00\n        /* \"#utility.yul\":4468:4488   */\n      tag_333\n      tag_240\n      jump\t// in\n    tag_333:\n        /* \"#utility.yul\":4458:4488   */\n      swap1\n      pop\n        /* \"#utility.yul\":4497:4530   */\n      tag_334\n        /* \"#utility.yul\":4525:4529   */\n      dup3\n        /* \"#utility.yul\":4517:4523   */\n      dup3\n        /* \"#utility.yul\":4497:4530   */\n      tag_261\n      jump\t// in\n    tag_334:\n        /* \"#utility.yul\":4407:4536   */\n      swap2\n      swap1\n      pop\n      jump\t// out\n        /* \"#utility.yul\":4542:4850   */\n    tag_263:\n        /* \"#utility.yul\":4604:4608   */\n      0x00\n        /* \"#utility.yul\":4694:4712   */\n      0xffffffffffffffff\n        /* \"#utility.yul\":4686:4692   */\n      dup3\n        /* \"#utility.yul\":4683:4713   */\n      gt\n        /* \"#utility.yul\":4680:4736   */\n      iszero\n      tag_336\n      jumpi\n        /* \"#utility.yul\":4716:4734   */\n      tag_337\n      tag_260\n      jump\t// in\n    tag_337:\n        /* \"#utility.yul\":4680:4736   */\n    tag_336:\n        /* \"#utility.yul\":4754:4783   */\n      tag_338\n        /* \"#utility.yul\":4776:4782   */\n      dup3\n        /* \"#utility.yul\":4754:4783   */\n      tag_259\n      jump\t// in\n    tag_338:\n        /* \"#utility.yul\":4746:4783   */\n      swap1\n      pop\n        /* \"#utility.yul\":4838:4842   */\n      0x20\n        /* \"#utility.yul\":4832:4836   */\n      dup2\n        /* \"#utility.yul\":4828:4843   */\n      add\n        /* \"#utility.yul\":4820:4843   */\n      swap1\n      pop\n        /* \"#utility.yul\":4542:4850   */\n      swap2\n      swap1\n      pop\n      jump\t// out\n        /* \"#utility.yul\":4856:5010   */\n    tag_264:\n        /* \"#utility.yul\":4940:4946   */\n      dup3\n        /* \"#utility.yul\":4935:4938   */\n      dup2\n        /* \"#utility.yul\":4930:4933   */\n      dup4\n        /* \"#utility.yul\":4917:4947   */\n      calldatacopy\n        /* \"#utility.yul\":5002:5003   */\n      0x00\n        /* \"#utility.yul\":4993:4999   */\n      dup4\n        /* \"#utility.yul\":4988:4991   */\n      dup4\n        /* \"#utility.yul\":4984:5000   */\n      add\n        /* \"#utility.yul\":4977:5004   */\n      mstore\n        /* \"#utility.yul\":4856:5010   */\n      pop\n      pop\n      pop\n      jump\t// out\n        /* \"#utility.yul\":5016:5428   */\n    tag_265:\n        /* \"#utility.yul\":5094:5099   */\n      0x00\n        /* \"#utility.yul\":5119:5185   */\n      tag_341\n        /* \"#utility.yul\":5135:5184   */\n      tag_342\n        /* \"#utility.yul\":5177:5183   */\n      dup5\n        /* \"#utility.yul\":5135:5184   */\n      tag_263\n      jump\t// in\n    tag_342:\n        /* \"#utility.yul\":5119:5185   */\n      tag_262\n      jump\t// in\n    tag_341:\n        /* \"#utility.yul\":5110:5185   */\n      swap1\n      pop\n        /* \"#utility.yul\":5208:5214   */\n      dup3\n        /* \"#utility.yul\":5201:5206   */\n      dup2\n        /* \"#utility.yul\":5194:5215   */\n      mstore\n        /* \"#utility.yul\":5246:5250   */\n      0x20\n        /* \"#utility.yul\":5239:5244   */\n      dup2\n        /* \"#utility.yul\":5235:5251   */\n      add\n        /* \"#utility.yul\":5284:5287   */\n      dup5\n        /* \"#utility.yul\":5275:5281   */\n      dup5\n        /* \"#utility.yul\":5270:5273   */\n      dup5\n        /* \"#utility.yul\":5266:5282   */\n      add\n        /* \"#utility.yul\":5263:5288   */\n      gt\n        /* \"#utility.yul\":5260:5372   */\n      iszero\n      tag_343\n      jumpi\n        /* \"#utility.yul\":5291:5370   */\n      tag_344\n      tag_258\n      jump\t// in\n    tag_344:\n        /* \"#utility.yul\":5260:5372   */\n    tag_343:\n        /* \"#utility.yul\":5381:5422   */\n      tag_345\n        /* \"#utility.yul\":5415:5421   */\n      dup5\n        /* \"#utility.yul\":5410:5413   */\n      dup3\n        /* \"#utility.yul\":5405:5408   */\n      dup6\n        /* \"#utility.yul\":5381:5422   */\n      tag_264\n      jump\t// in\n    tag_345:\n        /* \"#utility.yul\":5100:5428   */\n      pop\n        /* \"#utility.yul\":5016:5428   */\n      swap4\n      swap3\n      pop\n      pop\n      pop\n      jump\t// out\n        /* \"#utility.yul\":5448:5788   */\n    tag_266:\n        /* \"#utility.yul\":5504:5509   */\n      0x00\n        /* \"#utility.yul\":5553:5556   */\n      dup3\n        /* \"#utility.yul\":5546:5550   */\n      0x1f\n        /* \"#utility.yul\":5538:5544   */\n      dup4\n        /* \"#utility.yul\":5534:5551   */\n      add\n        /* \"#utility.yul\":5530:5557   */\n      slt\n        /* \"#utility.yul\":5520:5642   */\n      tag_347\n      jumpi\n        /* \"#utility.yul\":5561:5640   */\n      tag_348\n      tag_257\n      jump\t// in\n    tag_348:\n        /* \"#utility.yul\":5520:5642   */\n    tag_347:\n        /* \"#utility.yul\":5678:5684   */\n      dup2\n        /* \"#utility.yul\":5665:5685   */\n      calldataload\n        /* \"#utility.yul\":5703:5782   */\n      tag_349\n        /* \"#utility.yul\":5778:5781   */\n      dup5\n        /* \"#utility.yul\":5770:5776   */\n      dup3\n        /* \"#utility.yul\":5763:5767   */\n      0x20\n        /* \"#utility.yul\":5755:5761   */\n      dup7\n        /* \"#utility.yul\":5751:5768   */\n      add\n        /* \"#utility.yul\":5703:5782   */\n      tag_265\n      jump\t// in\n    tag_349:\n        /* \"#utility.yul\":5694:5782   */\n      swap2\n      pop\n        /* \"#utility.yul\":5510:5788   */\n      pop\n        /* \"#utility.yul\":5448:5788   */\n      swap3\n      swap2\n      pop\n      pop\n      jump\t// out\n        /* \"#utility.yul\":5794:5916   */\n    tag_267:\n        /* \"#utility.yul\":5867:5891   */\n      tag_351\n        /* \"#utility.yul\":5885:5890   */\n      dup2\n        /* \"#utility.yul\":5867:5891   */\n      tag_249\n      jump\t// in\n    tag_351:\n        /* \"#utility.yul\":5860:5865   */\n      dup2\n        /* \"#utility.yul\":5857:5892   */\n      eq\n        /* \"#utility.yul\":5847:5910   */\n      tag_352\n      jumpi\n        /* \"#utility.yul\":5906:5907   */\n      0x00\n        /* \"#utility.yul\":5903:5904   */\n      dup1\n        /* \"#utility.yul\":5896:5908   */\n      revert\n        /* \"#utility.yul\":5847:5910   */\n    tag_352:\n        /* \"#utility.yul\":5794:5916   */\n      pop\n      jump\t// out\n        /* \"#utility.yul\":5922:6061   */\n    tag_268:\n        /* \"#utility.yul\":5968:5973   */\n      0x00\n        /* \"#utility.yul\":6006:6012   */\n      dup2\n        /* \"#utility.yul\":5993:6013   */\n      calldataload\n        /* \"#utility.yul\":5984:6013   */\n      swap1\n      pop\n        /* \"#utility.yul\":6022:6055   */\n      tag_354\n        /* \"#utility.yul\":6049:6054   */\n      dup2\n        /* \"#utility.yul\":6022:6055   */\n      tag_267\n      jump\t// in\n    tag_354:\n        /* \"#utility.yul\":5922:6061   */\n      swap3\n      swap2\n      pop\n      pop\n      jump\t// out\n        /* \"#utility.yul\":6067:7046   */\n    tag_57:\n        /* \"#utility.yul\":6164:6170   */\n      0x00\n        /* \"#utility.yul\":6172:6178   */\n      dup1\n        /* \"#utility.yul\":6180:6186   */\n      0x00\n        /* \"#utility.yul\":6229:6231   */\n      0x60\n        /* \"#utility.yul\":6217:6226   */\n      dup5\n        /* \"#utility.yul\":6208:6215   */\n      dup7\n        /* \"#utility.yul\":6204:6227   */\n      sub\n        /* \"#utility.yul\":6200:6232   */\n      slt\n        /* \"#utility.yul\":6197:6316   */\n      iszero\n      tag_356\n      jumpi\n        /* \"#utility.yul\":6235:6314   */\n      tag_357\n      tag_241\n      jump\t// in\n    tag_357:\n        /* \"#utility.yul\":6197:6316   */\n    tag_356:\n        /* \"#utility.yul\":6383:6384   */\n      0x00\n        /* \"#utility.yul\":6372:6381   */\n      dup5\n        /* \"#utility.yul\":6368:6385   */\n      add\n        /* \"#utility.yul\":6355:6386   */\n      calldataload\n        /* \"#utility.yul\":6413:6431   */\n      0xffffffffffffffff\n        /* \"#utility.yul\":6405:6411   */\n      dup2\n        /* \"#utility.yul\":6402:6432   */\n      gt\n        /* \"#utility.yul\":6399:6516   */\n      iszero\n      tag_358\n      jumpi\n        /* \"#utility.yul\":6435:6514   */\n      tag_359\n      tag_242\n      jump\t// in\n    tag_359:\n        /* \"#utility.yul\":6399:6516   */\n    tag_358:\n        /* \"#utility.yul\":6540:6603   */\n      tag_360\n        /* \"#utility.yul\":6595:6602   */\n      dup7\n        /* \"#utility.yul\":6586:6592   */\n      dup3\n        /* \"#utility.yul\":6575:6584   */\n      dup8\n        /* \"#utility.yul\":6571:6593   */\n      add\n        /* \"#utility.yul\":6540:6603   */\n      tag_266\n      jump\t// in\n    tag_360:\n        /* \"#utility.yul\":6530:6603   */\n      swap4\n      pop\n        /* \"#utility.yul\":6326:6613   */\n      pop\n        /* \"#utility.yul\":6680:6682   */\n      0x20\n        /* \"#utility.yul\":6669:6678   */\n      dup5\n        /* \"#utility.yul\":6665:6683   */\n      add\n        /* \"#utility.yul\":6652:6684   */\n      calldataload\n        /* \"#utility.yul\":6711:6729   */\n      0xffffffffffffffff\n        /* \"#utility.yul\":6703:6709   */\n      dup2\n        /* \"#utility.yul\":6700:6730   */\n      gt\n        /* \"#utility.yul\":6697:6814   */\n      iszero\n      tag_361\n      jumpi\n        /* \"#utility.yul\":6733:6812   */\n      tag_362\n      tag_242\n      jump\t// in\n    tag_362:\n        /* \"#utility.yul\":6697:6814   */\n    tag_361:\n        /* \"#utility.yul\":6838:6901   */\n      tag_363\n        /* \"#utility.yul\":6893:6900   */\n      dup7\n        /* \"#utility.yul\":6884:6890   */\n      dup3\n        /* \"#utility.yul\":6873:6882   */\n      dup8\n        /* \"#utility.yul\":6869:6891   */\n      add\n        /* \"#utility.yul\":6838:6901   */\n      tag_266\n      jump\t// in\n    tag_363:\n        /* \"#utility.yul\":6828:6901   */\n      swap3\n      pop\n        /* \"#utility.yul\":6623:6911   */\n      pop\n        /* \"#utility.yul\":6950:6952   */\n      0x40\n        /* \"#utility.yul\":6976:7029   */\n      tag_364\n        /* \"#utility.yul\":7021:7028   */\n      dup7\n        /* \"#utility.yul\":7012:7018   */\n      dup3\n        /* \"#utility.yul\":7001:7010   */\n      dup8\n        /* \"#utility.yul\":6997:7019   */\n      add\n        /* \"#utility.yul\":6976:7029   */\n      tag_268\n      jump\t// in\n    tag_364:\n        /* \"#utility.yul\":6966:7029   */\n      swap2\n      pop\n        /* \"#utility.yul\":6921:7039   */\n      pop\n        /* \"#utility.yul\":6067:7046   */\n      swap3\n      pop\n      swap3\n      pop\n      swap3\n      jump\t// out\n        /* \"#utility.yul\":7052:7167   */\n    tag_269:\n        /* \"#utility.yul\":7137:7160   */\n      tag_366\n        /* \"#utility.yul\":7154:7159   */\n      dup2\n        /* \"#utility.yul\":7137:7160   */\n      tag_243\n      jump\t// in\n    tag_366:\n        /* \"#utility.yul\":7132:7135   */\n      dup3\n        /* \"#utility.yul\":7125:7161   */\n      mstore\n        /* \"#utility.yul\":7052:7167   */\n      pop\n      pop\n      jump\t// out\n        /* \"#utility.yul\":7173:7391   */\n    tag_63:\n        /* \"#utility.yul\":7264:7268   */\n      0x00\n        /* \"#utility.yul\":7302:7304   */\n      0x20\n        /* \"#utility.yul\":7291:7300   */\n      dup3\n        /* \"#utility.yul\":7287:7305   */\n      add\n        /* \"#utility.yul\":7279:7305   */\n      swap1\n      pop\n        /* \"#utility.yul\":7315:7384   */\n      tag_368\n        /* \"#utility.yul\":7381:7382   */\n      0x00\n        /* \"#utility.yul\":7370:7379   */\n      dup4\n        /* \"#utility.yul\":7366:7383   */\n      add\n        /* \"#utility.yul\":7357:7363   */\n      dup5\n        /* \"#utility.yul\":7315:7384   */\n      tag_269\n      jump\t// in\n    tag_368:\n        /* \"#utility.yul\":7173:7391   */\n      swap3\n      swap2\n      pop\n      pop\n      jump\t// out\n        /* \"#utility.yul\":7397:7496   */\n    tag_270:\n        /* \"#utility.yul\":7449:7455   */\n      0x00\n        /* \"#utility.yul\":7483:7488   */\n      dup2\n        /* \"#utility.yul\":7477:7489   */\n      mload\n        /* \"#utility.yul\":7467:7489   */\n      swap1\n      pop\n        /* \"#utility.yul\":7397:7496   */\n      swap2\n      swap1\n      pop\n      jump\t// out\n        /* \"#utility.yul\":7502:7671   */\n    tag_271:\n        /* \"#utility.yul\":7586:7597   */\n      0x00\n        /* \"#utility.yul\":7620:7626   */\n      dup3\n        /* \"#utility.yul\":7615:7618   */\n      dup3\n        /* \"#utility.yul\":7608:7627   */\n      mstore\n        /* \"#utility.yul\":7660:7664   */\n      0x20\n        /* \"#utility.yul\":7655:7658   */\n      dup3\n        /* \"#utility.yul\":7651:7665   */\n      add\n        /* \"#utility.yul\":7636:7665   */\n      swap1\n      pop\n        /* \"#utility.yul\":7502:7671   */\n      swap3\n      swap2\n      pop\n      pop\n      jump\t// out\n        /* \"#utility.yul\":7677:7984   */\n    tag_272:\n        /* \"#utility.yul\":7745:7746   */\n      0x00\n        /* \"#utility.yul\":7755:7868   */\n    tag_372:\n        /* \"#utility.yul\":7769:7775   */\n      dup4\n        /* \"#utility.yul\":7766:7767   */\n      dup2\n        /* \"#utility.yul\":7763:7776   */\n      lt\n        /* \"#utility.yul\":7755:7868   */\n      iszero\n      tag_374\n      jumpi\n        /* \"#utility.yul\":7854:7855   */\n      dup1\n        /* \"#utility.yul\":7849:7852   */\n      dup3\n        /* \"#utility.yul\":7845:7856   */\n      add\n        /* \"#utility.yul\":7839:7857   */\n      mload\n        /* \"#utility.yul\":7835:7836   */\n      dup2\n        /* \"#utility.yul\":7830:7833   */\n      dup5\n        /* \"#utility.yul\":7826:7837   */\n      add\n        /* \"#utility.yul\":7819:7858   */\n      mstore\n        /* \"#utility.yul\":7791:7793   */\n      0x20\n        /* \"#utility.yul\":7788:7789   */\n      dup2\n        /* \"#utility.yul\":7784:7794   */\n      add\n        /* \"#utility.yul\":7779:7794   */\n      swap1\n      pop\n        /* \"#utility.yul\":7755:7868   */\n      jump(tag_372)\n    tag_374:\n        /* \"#utility.yul\":7886:7892   */\n      dup4\n        /* \"#utility.yul\":7883:7884   */\n      dup2\n        /* \"#utility.yul\":7880:7893   */\n      gt\n        /* \"#utility.yul\":7877:7978   */\n      iszero\n      tag_375\n      jumpi\n        /* \"#utility.yul\":7966:7967   */\n      0x00\n        /* \"#utility.yul\":7957:7963   */\n      dup5\n        /* \"#utility.yul\":7952:7955   */\n      dup5\n        /* \"#utility.yul\":7948:7964   */\n      add\n        /* \"#utility.yul\":7941:7968   */\n      mstore\n        /* \"#utility.yul\":7877:7978   */\n    tag_375:\n        /* \"#utility.yul\":7726:7984   */\n      pop\n        /* \"#utility.yul\":7677:7984   */\n      pop\n      pop\n      pop\n      jump\t// out\n        /* \"#utility.yul\":7990:8354   */\n    tag_273:\n        /* \"#utility.yul\":8078:8081   */\n      0x00\n        /* \"#utility.yul\":8106:8145   */\n      tag_377\n        /* \"#utility.yul\":8139:8144   */\n      dup3\n        /* \"#utility.yul\":8106:8145   */\n      tag_270\n      jump\t// in\n    tag_377:\n        /* \"#utility.yul\":8161:8232   */\n      tag_378\n        /* \"#utility.yul\":8225:8231   */\n      dup2\n        /* \"#utility.yul\":8220:8223   */\n      dup6\n        /* \"#utility.yul\":8161:8232   */\n      tag_271\n      jump\t// in\n    tag_378:\n        /* \"#utility.yul\":8154:8232   */\n      swap4\n      pop\n        /* \"#utility.yul\":8241:8293   */\n      tag_379\n        /* \"#utility.yul\":8286:8292   */\n      dup2\n        /* \"#utility.yul\":8281:8284   */\n      dup6\n        /* \"#utility.yul\":8274:8278   */\n      0x20\n        /* \"#utility.yul\":8267:8272   */\n      dup7\n        /* \"#utility.yul\":8263:8279   */\n      add\n        /* \"#utility.yul\":8241:8293   */\n      tag_272\n      jump\t// in\n    tag_379:\n        /* \"#utility.yul\":8318:8347   */\n      tag_380\n        /* \"#utility.yul\":8340:8346   */\n      dup2\n        /* \"#utility.yul\":8318:8347   */\n      tag_259\n      jump\t// in\n    tag_380:\n        /* \"#utility.yul\":8313:8316   */\n      dup5\n        /* \"#utility.yul\":8309:8348   */\n      add\n        /* \"#utility.yul\":8302:8348   */\n      swap2\n      pop\n        /* \"#utility.yul\":8082:8354   */\n      pop\n        /* \"#utility.yul\":7990:8354   */\n      swap3\n      swap2\n      pop\n      pop\n      jump\t// out\n        /* \"#utility.yul\":8360:8481   */\n    tag_274:\n        /* \"#utility.yul\":8449:8450   */\n      0x05\n        /* \"#utility.yul\":8442:8447   */\n      dup2\n        /* \"#utility.yul\":8439:8451   */\n      lt\n        /* \"#utility.yul\":8429:8475   */\n      tag_382\n      jumpi\n        /* \"#utility.yul\":8455:8473   */\n      tag_383\n      tag_86\n      jump\t// in\n    tag_383:\n        /* \"#utility.yul\":8429:8475   */\n    tag_382:\n        /* \"#utility.yul\":8360:8481   */\n      pop\n      jump\t// out\n        /* \"#utility.yul\":8487:8630   */\n    tag_275:\n        /* \"#utility.yul\":8540:8547   */\n      0x00\n        /* \"#utility.yul\":8569:8574   */\n      dup2\n        /* \"#utility.yul\":8558:8574   */\n      swap1\n      pop\n        /* \"#utility.yul\":8575:8624   */\n      tag_385\n        /* \"#utility.yul\":8618:8623   */\n      dup3\n        /* \"#utility.yul\":8575:8624   */\n      tag_274\n      jump\t// in\n    tag_385:\n        /* \"#utility.yul\":8487:8630   */\n      swap2\n      swap1\n      pop\n      jump\t// out\n        /* \"#utility.yul\":8636:8779   */\n    tag_276:\n        /* \"#utility.yul\":8700:8709   */\n      0x00\n        /* \"#utility.yul\":8733:8773   */\n      tag_387\n        /* \"#utility.yul\":8767:8772   */\n      dup3\n        /* \"#utility.yul\":8733:8773   */\n      tag_275\n      jump\t// in\n    tag_387:\n        /* \"#utility.yul\":8720:8773   */\n      swap1\n      pop\n        /* \"#utility.yul\":8636:8779   */\n      swap2\n      swap1\n      pop\n      jump\t// out\n        /* \"#utility.yul\":8785:8944   */\n    tag_277:\n        /* \"#utility.yul\":8886:8937   */\n      tag_389\n        /* \"#utility.yul\":8931:8936   */\n      dup2\n        /* \"#utility.yul\":8886:8937   */\n      tag_276\n      jump\t// in\n    tag_389:\n        /* \"#utility.yul\":8881:8884   */\n      dup3\n        /* \"#utility.yul\":8874:8938   */\n      mstore\n        /* \"#utility.yul\":8785:8944   */\n      pop\n      pop\n      jump\t// out\n        /* \"#utility.yul\":8950:9713   */\n    tag_73:\n        /* \"#utility.yul\":9181:9185   */\n      0x00\n        /* \"#utility.yul\":9219:9222   */\n      0x80\n        /* \"#utility.yul\":9208:9217   */\n      dup3\n        /* \"#utility.yul\":9204:9223   */\n      add\n        /* \"#utility.yul\":9196:9223   */\n      swap1\n      pop\n        /* \"#utility.yul\":9269:9278   */\n      dup2\n        /* \"#utility.yul\":9263:9267   */\n      dup2\n        /* \"#utility.yul\":9259:9279   */\n      sub\n        /* \"#utility.yul\":9255:9256   */\n      0x00\n        /* \"#utility.yul\":9244:9253   */\n      dup4\n        /* \"#utility.yul\":9240:9257   */\n      add\n        /* \"#utility.yul\":9233:9280   */\n      mstore\n        /* \"#utility.yul\":9297:9375   */\n      tag_391\n        /* \"#utility.yul\":9370:9374   */\n      dup2\n        /* \"#utility.yul\":9361:9367   */\n      dup8\n        /* \"#utility.yul\":9297:9375   */\n      tag_273\n      jump\t// in\n    tag_391:\n        /* \"#utility.yul\":9289:9375   */\n      swap1\n      pop\n        /* \"#utility.yul\":9422:9431   */\n      dup2\n        /* \"#utility.yul\":9416:9420   */\n      dup2\n        /* \"#utility.yul\":9412:9432   */\n      sub\n        /* \"#utility.yul\":9407:9409   */\n      0x20\n        /* \"#utility.yul\":9396:9405   */\n      dup4\n        /* \"#utility.yul\":9392:9410   */\n      add\n        /* \"#utility.yul\":9385:9433   */\n      mstore\n        /* \"#utility.yul\":9450:9528   */\n      tag_392\n        /* \"#utility.yul\":9523:9527   */\n      dup2\n        /* \"#utility.yul\":9514:9520   */\n      dup7\n        /* \"#utility.yul\":9450:9528   */\n      tag_273\n      jump\t// in\n    tag_392:\n        /* \"#utility.yul\":9442:9528   */\n      swap1\n      pop\n        /* \"#utility.yul\":9538:9610   */\n      tag_393\n        /* \"#utility.yul\":9606:9608   */\n      0x40\n        /* \"#utility.yul\":9595:9604   */\n      dup4\n        /* \"#utility.yul\":9591:9609   */\n      add\n        /* \"#utility.yul\":9582:9588   */\n      dup6\n        /* \"#utility.yul\":9538:9610   */\n      tag_250\n      jump\t// in\n    tag_393:\n        /* \"#utility.yul\":9620:9706   */\n      tag_394\n        /* \"#utility.yul\":9702:9704   */\n      0x60\n        /* \"#utility.yul\":9691:9700   */\n      dup4\n        /* \"#utility.yul\":9687:9705   */\n      add\n        /* \"#utility.yul\":9678:9684   */\n      dup5\n        /* \"#utility.yul\":9620:9706   */\n      tag_277\n      jump\t// in\n    tag_394:\n        /* \"#utility.yul\":8950:9713   */\n      swap6\n      swap5\n      pop\n      pop\n      pop\n      pop\n      pop\n      jump\t// out\n        /* \"#utility.yul\":9719:9899   */\n    tag_278:\n        /* \"#utility.yul\":9767:9844   */\n      0x4e487b7100000000000000000000000000000000000000000000000000000000\n        /* \"#utility.yul\":9764:9765   */\n      0x00\n        /* \"#utility.yul\":9757:9845   */\n      mstore\n        /* \"#utility.yul\":9864:9868   */\n      0x11\n        /* \"#utility.yul\":9861:9862   */\n      0x04\n        /* \"#utility.yul\":9854:9869   */\n      mstore\n        /* \"#utility.yul\":9888:9892   */\n      0x24\n        /* \"#utility.yul\":9885:9886   */\n      0x00\n        /* \"#utility.yul\":9878:9893   */\n      revert\n        /* \"#utility.yul\":9905:10432   */\n    tag_92:\n        /* \"#utility.yul\":9944:9948   */\n      0x00\n        /* \"#utility.yul\":9964:9983   */\n      tag_397\n        /* \"#utility.yul\":9981:9982   */\n      dup3\n        /* \"#utility.yul\":9964:9983   */\n      tag_243\n      jump\t// in\n    tag_397:\n        /* \"#utility.yul\":9959:9983   */\n      swap2\n      pop\n        /* \"#utility.yul\":9997:10016   */\n      tag_398\n        /* \"#utility.yul\":10014:10015   */\n      dup4\n        /* \"#utility.yul\":9997:10016   */\n      tag_243\n      jump\t// in\n    tag_398:\n        /* \"#utility.yul\":9992:10016   */\n      swap3\n      pop\n        /* \"#utility.yul\":10186:10187   */\n      dup3\n        /* \"#utility.yul\":10118:10184   */\n      0x8000000000000000000000000000000000000000000000000000000000000000\n        /* \"#utility.yul\":10114:10188   */\n      add\n        /* \"#utility.yul\":10111:10112   */\n      dup3\n        /* \"#utility.yul\":10107:10189   */\n      slt\n        /* \"#utility.yul\":10102:10103   */\n      0x00\n        /* \"#utility.yul\":10099:10100   */\n      dup5\n        /* \"#utility.yul\":10095:10104   */\n      slt\n        /* \"#utility.yul\":10088:10105   */\n      iszero\n        /* \"#utility.yul\":10084:10190   */\n      and\n        /* \"#utility.yul\":10081:10213   */\n      iszero\n      tag_399\n      jumpi\n        /* \"#utility.yul\":10193:10211   */\n      tag_400\n      tag_278\n      jump\t// in\n    tag_400:\n        /* \"#utility.yul\":10081:10213   */\n    tag_399:\n        /* \"#utility.yul\":10372:10373   */\n      dup3\n        /* \"#utility.yul\":10304:10370   */\n      0x7fffffffffffffffffffffffffffffffffffffffffffffffffffffffffffffff\n        /* \"#utility.yul\":10300:10374   */\n      add\n        /* \"#utility.yul\":10297:10298   */\n      dup3\n        /* \"#utility.yul\":10293:10375   */\n      sgt\n        /* \"#utility.yul\":10289:10290   */\n      0x00\n        /* \"#utility.yul\":10286:10287   */\n      dup5\n        /* \"#utility.yul\":10282:10291   */\n      slt\n        /* \"#utility.yul\":10278:10376   */\n      and\n        /* \"#utility.yul\":10275:10399   */\n      iszero\n      tag_401\n      jumpi\n        /* \"#utility.yul\":10379:10397   */\n      tag_402\n      tag_278\n      jump\t// in\n    tag_402:\n        /* \"#utility.yul\":10275:10399   */\n    tag_401:\n        /* \"#utility.yul\":10424:10425   */\n      dup3\n        /* \"#utility.yul\":10421:10422   */\n      dup3\n        /* \"#utility.yul\":10417:10426   */\n      sub\n        /* \"#utility.yul\":10409:10426   */\n      swap1\n      pop\n        /* \"#utility.yul\":9905:10432   */\n      swap3\n      swap2\n      pop\n      pop\n      jump\t// out\n        /* \"#utility.yul\":10438:10669   */\n    tag_153:\n        /* \"#utility.yul\":10476:10479   */\n      0x00\n        /* \"#utility.yul\":10499:10522   */\n      tag_404\n        /* \"#utility.yul\":10516:10521   */\n      dup3\n        /* \"#utility.yul\":10499:10522   */\n      tag_243\n      jump\t// in\n    tag_404:\n        /* \"#utility.yul\":10490:10522   */\n      swap2\n      pop\n        /* \"#utility.yul\":10544:10610   */\n      0x7fffffffffffffffffffffffffffffffffffffffffffffffffffffffffffffff\n        /* \"#utility.yul\":10537:10542   */\n      dup3\n        /* \"#utility.yul\":10534:10611   */\n      eq\n        /* \"#utility.yul\":10531:10634   */\n      iszero\n      tag_405\n      jumpi\n        /* \"#utility.yul\":10614:10632   */\n      tag_406\n      tag_278\n      jump\t// in\n    tag_406:\n        /* \"#utility.yul\":10531:10634   */\n    tag_405:\n        /* \"#utility.yul\":10661:10662   */\n      0x01\n        /* \"#utility.yul\":10654:10659   */\n      dup3\n        /* \"#utility.yul\":10650:10663   */\n      add\n        /* \"#utility.yul\":10643:10663   */\n      swap1\n      pop\n        /* \"#utility.yul\":10438:10669   */\n      swap2\n      swap1\n      pop\n      jump\t// out\n        /* \"#utility.yul\":10675:10988   */\n    tag_155:\n        /* \"#utility.yul\":10788:10792   */\n      0x00\n        /* \"#utility.yul\":10826:10828   */\n      0x20\n        /* \"#utility.yul\":10815:10824   */\n      dup3\n        /* \"#utility.yul\":10811:10829   */\n      add\n        /* \"#utility.yul\":10803:10829   */\n      swap1\n      pop\n        /* \"#utility.yul\":10875:10884   */\n      dup2\n        /* \"#utility.yul\":10869:10873   */\n      dup2\n        /* \"#utility.yul\":10865:10885   */\n      sub\n        /* \"#utility.yul\":10861:10862   */\n      0x00\n        /* \"#utility.yul\":10850:10859   */\n      dup4\n        /* \"#utility.yul\":10846:10863   */\n      add\n        /* \"#utility.yul\":10839:10886   */\n      mstore\n        /* \"#utility.yul\":10903:10981   */\n      tag_408\n        /* \"#utility.yul\":10976:10980   */\n      dup2\n        /* \"#utility.yul\":10967:10973   */\n      dup5\n        /* \"#utility.yul\":10903:10981   */\n      tag_273\n      jump\t// in\n    tag_408:\n        /* \"#utility.yul\":10895:10981   */\n      swap1\n      pop\n        /* \"#utility.yul\":10675:10988   */\n      swap3\n      swap2\n      pop\n      pop\n      jump\t// out\n        /* \"#utility.yul\":10994:11174   */\n    tag_279:\n        /* \"#utility.yul\":11042:11119   */\n      0x4e487b7100000000000000000000000000000000000000000000000000000000\n        /* \"#utility.yul\":11039:11040   */\n      0x00\n        /* \"#utility.yul\":11032:11120   */\n      mstore\n        /* \"#utility.yul\":11139:11143   */\n      0x22\n        /* \"#utility.yul\":11136:11137   */\n      0x04\n        /* \"#utility.yul\":11129:11144   */\n      mstore\n        /* \"#utility.yul\":11163:11167   */\n      0x24\n        /* \"#utility.yul\":11160:11161   */\n      0x00\n        /* \"#utility.yul\":11153:11168   */\n      revert\n        /* \"#utility.yul\":11180:11500   */\n    tag_177:\n        /* \"#utility.yul\":11224:11230   */\n      0x00\n        /* \"#utility.yul\":11261:11262   */\n      0x02\n        /* \"#utility.yul\":11255:11259   */\n      dup3\n        /* \"#utility.yul\":11251:11263   */\n      div\n        /* \"#utility.yul\":11241:11263   */\n      swap1\n      pop\n        /* \"#utility.yul\":11308:11309   */\n      0x01\n        /* \"#utility.yul\":11302:11306   */\n      dup3\n        /* \"#utility.yul\":11298:11310   */\n      and\n        /* \"#utility.yul\":11329:11347   */\n      dup1\n        /* \"#utility.yul\":11319:11400   */\n      tag_411\n      jumpi\n        /* \"#utility.yul\":11385:11389   */\n      0x7f\n        /* \"#utility.yul\":11377:11383   */\n      dup3\n        /* \"#utility.yul\":11373:11390   */\n      and\n        /* \"#utility.yul\":11363:11390   */\n      swap2\n      pop\n        /* \"#utility.yul\":11319:11400   */\n    tag_411:\n        /* \"#utility.yul\":11447:11449   */\n      0x20\n        /* \"#utility.yul\":11439:11445   */\n      dup3\n        /* \"#utility.yul\":11436:11450   */\n      lt\n        /* \"#utility.yul\":11416:11434   */\n      dup2\n        /* \"#utility.yul\":11413:11451   */\n      eq\n        /* \"#utility.yul\":11410:11494   */\n      iszero\n      tag_412\n      jumpi\n        /* \"#utility.yul\":11466:11484   */\n      tag_413\n      tag_279\n      jump\t// in\n    tag_413:\n        /* \"#utility.yul\":11410:11494   */\n    tag_412:\n        /* \"#utility.yul\":11231:11500   */\n      pop\n        /* \"#utility.yul\":11180:11500   */\n      swap2\n      swap1\n      pop\n      jump\t// out\n        /* \"#utility.yul\":11506:11834   */\n    tag_209:\n        /* \"#utility.yul\":11625:11629   */\n      0x00\n        /* \"#utility.yul\":11663:11665   */\n      0x40\n        /* \"#utility.yul\":11652:11661   */\n      dup3\n        /* \"#utility.yul\":11648:11666   */\n      add\n        /* \"#utility.yul\":11640:11666   */\n      swap1\n      pop\n        /* \"#utility.yul\":11676:11745   */\n      tag_415\n        /* \"#utility.yul\":11742:11743   */\n      0x00\n        /* \"#utility.yul\":11731:11740   */\n      dup4\n        /* \"#utility.yul\":11727:11744   */\n      add\n        /* \"#utility.yul\":11718:11724   */\n      dup6\n        /* \"#utility.yul\":11676:11745   */\n      tag_269\n      jump\t// in\n    tag_415:\n        /* \"#utility.yul\":11755:11827   */\n      tag_416\n        /* \"#utility.yul\":11823:11825   */\n      0x20\n        /* \"#utility.yul\":11812:11821   */\n      dup4\n        /* \"#utility.yul\":11808:11826   */\n      add\n        /* \"#utility.yul\":11799:11805   */\n      dup5\n        /* \"#utility.yul\":11755:11827   */\n      tag_250\n      jump\t// in\n    tag_416:\n        /* \"#utility.yul\":11506:11834   */\n      swap4\n      swap3\n      pop\n      pop\n      pop\n      jump\t// out\n\n    auxdata: 0xa26469706673582212201d43feee7d6dcc3c95b678b4669c0cb9a621d4ba059cf95882219a5e754b30a364736f6c634300080c0033\n}\n",
    "bytecode": {
      "linkReferences": {},
      "object": "6080604052600080553480156200001557600080fd5b5060405162001a1b38038062001a1b83398181016040528101906200003b91906200015e565b8160038190555080600260006101000a81548173ffffffffffffffffffffffffffffffffffffffff021916908373ffffffffffffffffffffffffffffffffffffffff1602179055506000600260146101000a81548160ff02191690836002811115620000ac57620000ab620001a5565b5b02179055505050620001d4565b600080fd5b6000819050919050565b620000d381620000be565b8114620000df57600080fd5b50565b600081519050620000f381620000c8565b92915050565b600073ffffffffffffffffffffffffffffffffffffffff82169050919050565b60006200012682620000f9565b9050919050565b620001388162000119565b81146200014457600080fd5b50565b60008151905062000158816200012d565b92915050565b60008060408385031215620001785762000177620000b9565b5b60006200018885828601620000e2565b92505060206200019b8582860162000147565b9150509250929050565b7f4e487b7100000000000000000000000000000000000000000000000000000000600052602160045260246000fd5b61183780620001e46000396000f3fe6080604052600436106100e85760003560e01c80638129fc1c1161008a578063bab5691011610059578063bab5691014610290578063bb6fc950146102d0578063c3966409146102ec578063c916b6de14610303576100e8565b80638129fc1c1461020957806384bf66ac14610213578063965720af1461023c578063b7896a3014610267576100e8565b8063257961bf116100c6578063257961bf1461015f5780632c2ab5ea1461018a5780636dc5434c146101b5578063748807ab146101de576100e8565b8063054f84ed146100ed57806306a4e7cb1461010957806312065fe014610134575b600080fd5b61010760048036038101906101029190611174565b61031a565b005b34801561011557600080fd5b5061011e6104c7565b60405161012b91906111e2565b60405180910390f35b34801561014057600080fd5b506101496104ed565b6040516101569190611216565b60405180910390f35b34801561016b57600080fd5b506101746104f5565b6040516101819190611216565b60405180910390f35b34801561019657600080fd5b5061019f6104fb565b6040516101ac9190611252565b60405180910390f35b3480156101c157600080fd5b506101dc60048036038101906101d79190611174565b610521565b005b3480156101ea57600080fd5b506101f36106a8565b60405161020091906112e4565b60405180910390f35b6102116106bb565b005b34801561021f57600080fd5b5061023a60048036038101906102359190611471565b610746565b005b34801561024857600080fd5b50610251610917565b60405161025e919061150b565b60405180910390f35b34801561027357600080fd5b5061028e60048036038101906102899190611174565b61091d565b005b34801561029c57600080fd5b506102b760048036038101906102b29190611174565b610ae5565b6040516102c794939291906115f6565b60405180910390f35b6102ea60048036038101906102e59190611174565b610c32565b005b3480156102f857600080fd5b50610301610e4f565b005b34801561030f57600080fd5b50610318610f66565b005b600180600281111561032f5761032e61126d565b5b600260149054906101000a900460ff1660028111156103515761035061126d565b5b1461035b57600080fd5b816000600160005461036d9190611678565b82131580156103c2575080600481111561038a5761038961126d565b5b6004600084815260200190815260200160002060030160009054906101000a900460ff1660048111156103c0576103bf61126d565b5b145b6103cb57600080fd5b8334806004600084815260200190815260200160002060020154146103ef57600080fd5b600260009054906101000a900473ffffffffffffffffffffffffffffffffffffffff1673ffffffffffffffffffffffffffffffffffffffff163373ffffffffffffffffffffffffffffffffffffffff161461044957600080fd5b60016004600088815260200190815260200160002060030160006101000a81548160ff021916908360048111156104835761048261126d565b5b02179055507fd58e7b4972479e30bd65e34280dcda90802a617a803cb4b39764a2a30d3a8eae866040516104b7919061150b565b60405180910390a1505050505050565b600160009054906101000a900473ffffffffffffffffffffffffffffffffffffffff1681565b600047905090565b60035481565b600260009054906101000a900473ffffffffffffffffffffffffffffffffffffffff1681565b60018060028111156105365761053561126d565b5b600260149054906101000a900460ff1660028111156105585761055761126d565b5b1461056257600080fd5b81600260016000546105749190611678565b82131580156105c957508060048111156105915761059061126d565b5b6004600084815260200190815260200160002060030160009054906101000a900460ff1660048111156105c7576105c661126d565b5b145b6105d257600080fd5b600260009054906101000a900473ffffffffffffffffffffffffffffffffffffffff1673ffffffffffffffffffffffffffffffffffffffff163373ffffffffffffffffffffffffffffffffffffffff161461062c57600080fd5b60036004600086815260200190815260200160002060030160006101000a81548160ff021916908360048111156106665761066561126d565b5b02179055507f38f72d6c98702d265aec82b55e4b637d84fa97622b2244cd84dca2f171a0cefc8460405161069a919061150b565b60405180910390a150505050565b600260149054906101000a900460ff1681565b6107326040518060400160405280600281526020017f44500000000000000000000000000000000000000000000000000000000000008152506040518060400160405280600c81526020017f44657369676e2050686173650000000000000000000000000000000000000000815250600354610746565b61073a610f66565b610744600061031a565b565b600080600281111561075b5761075a61126d565b5b600260149054906101000a900460ff16600281111561077d5761077c61126d565b5b1461078757600080fd5b600260009054906101000a900473ffffffffffffffffffffffffffffffffffffffff1673ffffffffffffffffffffffffffffffffffffffff163373ffffffffffffffffffffffffffffffffffffffff16146107e157600080fd5b6107e961104d565b8481600001819052508381602001819052506000816060019060048111156108145761081361126d565b5b908160048111156108285761082761126d565b5b81525050828160400181815250508060046000805481526020019081526020016000206000820151816000019080519060200190610867929190611087565b506020820151816001019080519060200190610884929190611087565b506040820151816002015560608201518160030160006101000a81548160ff021916908360048111156108ba576108b961126d565b5b02179055509050506000808154809291906108d49061170c565b91905055507ff29fdea51f7ec4cf45bbb7eb61e67fa64cf90101b5ea7415c5b02b69bac9c594856040516109089190611755565b60405180910390a15050505050565b60005481565b60018060028111156109325761093161126d565b5b600260149054906101000a900460ff1660028111156109545761095361126d565b5b1461095e57600080fd5b8160018060005461096f9190611678565b82131580156109c4575080600481111561098c5761098b61126d565b5b6004600084815260200190815260200160002060030160009054906101000a900460ff1660048111156109c2576109c161126d565b5b145b6109cd57600080fd5b600260009054906101000a900473ffffffffffffffffffffffffffffffffffffffff1673ffffffffffffffffffffffffffffffffffffffff163373ffffffffffffffffffffffffffffffffffffffff161415610a2857600080fd5b33600160006101000a81548173ffffffffffffffffffffffffffffffffffffffff021916908373ffffffffffffffffffffffffffffffffffffffff16021790555060026004600086815260200190815260200160002060030160006101000a81548160ff02191690836004811115610aa357610aa261126d565b5b02179055507fde2dc33fbe2a5b6bf5e0ed721d44dc14441c4eef2cf4975ce14fd7bc0549489c84604051610ad7919061150b565b60405180910390a150505050565b6004602052806000526040600020600091509050806000018054610b08906117a6565b80601f0160208091040260200160405190810160405280929190818152602001828054610b34906117a6565b8015610b815780601f10610b5657610100808354040283529160200191610b81565b820191906000526020600020905b815481529060010190602001808311610b6457829003601f168201915b505050505090806001018054610b96906117a6565b80601f0160208091040260200160405190810160405280929190818152602001828054610bc2906117a6565b8015610c0f5780601f10610be457610100808354040283529160200191610c0f565b820191906000526020600020905b815481529060010190602001808311610bf257829003601f168201915b5050505050908060020154908060030160009054906101000a900460ff16905084565b6001806002811115610c4757610c4661126d565b5b600260149054906101000a900460ff166002811115610c6957610c6861126d565b5b14610c7357600080fd5b8160036001600054610c859190611678565b8213158015610cda5750806004811115610ca257610ca161126d565b5b6004600084815260200190815260200160002060030160009054906101000a900460ff166004811115610cd857610cd761126d565b5b145b610ce357600080fd5b600160009054906101000a900473ffffffffffffffffffffffffffffffffffffffff1673ffffffffffffffffffffffffffffffffffffffff163373ffffffffffffffffffffffffffffffffffffffff1614610d3d57600080fd5b600160009054906101000a900473ffffffffffffffffffffffffffffffffffffffff1673ffffffffffffffffffffffffffffffffffffffff166108fc60046000878152602001908152602001600020600201549081150290604051600060405180830381858888f19350505050158015610dbb573d6000803e3d6000fd5b50600480600086815260200190815260200160002060030160006101000a81548160ff02191690836004811115610df557610df461126d565b5b02179055507fd73e163332c47993ba97b46887362ea1f01120cbc609242b41762901217bfd5d846004600087815260200190815260200160002060020154604051610e419291906117d8565b60405180910390a150505050565b600260009054906101000a900473ffffffffffffffffffffffffffffffffffffffff1673ffffffffffffffffffffffffffffffffffffffff163373ffffffffffffffffffffffffffffffffffffffff161480610ef85750600160009054906101000a900473ffffffffffffffffffffffffffffffffffffffff1673ffffffffffffffffffffffffffffffffffffffff163373ffffffffffffffffffffffffffffffffffffffff16145b610f0157600080fd5b60004714610f0e57600080fd5b60028060146101000a81548160ff02191690836002811115610f3357610f3261126d565b5b02179055507fbef1ef6470add1875c12e547d844894de0608f7d47527676863b44153090bfe260405160405180910390a1565b6000806002811115610f7b57610f7a61126d565b5b600260149054906101000a900460ff166002811115610f9d57610f9c61126d565b5b14610fa757600080fd5b33600260006101000a81548173ffffffffffffffffffffffffffffffffffffffff021916908373ffffffffffffffffffffffffffffffffffffffff1602179055506001600260146101000a81548160ff0219169083600281111561100e5761100d61126d565b5b02179055507f01bc39c23d192137df337abb0c6fe3f63a86ead52f73452ca64136a5dfd7ff43336040516110429190611252565b60405180910390a150565b6040518060800160405280606081526020016060815260200160008152602001600060048111156110815761108061126d565b5b81525090565b828054611093906117a6565b90600052602060002090601f0160209004810192826110b557600085556110fc565b82601f106110ce57805160ff19168380011785556110fc565b828001600101855582156110fc579182015b828111156110fb5782518255916020019190600101906110e0565b5b509050611109919061110d565b5090565b5b8082111561112657600081600090555060010161110e565b5090565b6000604051905090565b600080fd5b600080fd5b6000819050919050565b6111518161113e565b811461115c57600080fd5b50565b60008135905061116e81611148565b92915050565b60006020828403121561118a57611189611134565b5b60006111988482850161115f565b91505092915050565b600073ffffffffffffffffffffffffffffffffffffffff82169050919050565b60006111cc826111a1565b9050919050565b6111dc816111c1565b82525050565b60006020820190506111f760008301846111d3565b92915050565b6000819050919050565b611210816111fd565b82525050565b600060208201905061122b6000830184611207565b92915050565b600061123c826111a1565b9050919050565b61124c81611231565b82525050565b60006020820190506112676000830184611243565b92915050565b7f4e487b7100000000000000000000000000000000000000000000000000000000600052602160045260246000fd5b600381106112ad576112ac61126d565b5b50565b60008190506112be8261129c565b919050565b60006112ce826112b0565b9050919050565b6112de816112c3565b82525050565b60006020820190506112f960008301846112d5565b92915050565b600080fd5b600080fd5b6000601f19601f8301169050919050565b7f4e487b7100000000000000000000000000000000000000000000000000000000600052604160045260246000fd5b61135282611309565b810181811067ffffffffffffffff821117156113715761137061131a565b5b80604052505050565b600061138461112a565b90506113908282611349565b919050565b600067ffffffffffffffff8211156113b0576113af61131a565b5b6113b982611309565b9050602081019050919050565b82818337600083830152505050565b60006113e86113e384611395565b61137a565b90508281526020810184848401111561140457611403611304565b5b61140f8482856113c6565b509392505050565b600082601f83011261142c5761142b6112ff565b5b813561143c8482602086016113d5565b91505092915050565b61144e816111fd565b811461145957600080fd5b50565b60008135905061146b81611445565b92915050565b60008060006060848603121561148a57611489611134565b5b600084013567ffffffffffffffff8111156114a8576114a7611139565b5b6114b486828701611417565b935050602084013567ffffffffffffffff8111156114d5576114d4611139565b5b6114e186828701611417565b92505060406114f28682870161145c565b9150509250925092565b6115058161113e565b82525050565b600060208201905061152060008301846114fc565b92915050565b600081519050919050565b600082825260208201905092915050565b60005b83811015611560578082015181840152602081019050611545565b8381111561156f576000848401525b50505050565b600061158082611526565b61158a8185611531565b935061159a818560208601611542565b6115a381611309565b840191505092915050565b600581106115bf576115be61126d565b5b50565b60008190506115d0826115ae565b919050565b60006115e0826115c2565b9050919050565b6115f0816115d5565b82525050565b600060808201905081810360008301526116108187611575565b905081810360208301526116248186611575565b90506116336040830185611207565b61164060608301846115e7565b95945050505050565b7f4e487b7100000000000000000000000000000000000000000000000000000000600052601160045260246000fd5b60006116838261113e565b915061168e8361113e565b9250827f8000000000000000000000000000000000000000000000000000000000000000018212600084121516156116c9576116c8611649565b5b827f7fffffffffffffffffffffffffffffffffffffffffffffffffffffffffffffff01821360008412161561170157611700611649565b5b828203905092915050565b60006117178261113e565b91507f7fffffffffffffffffffffffffffffffffffffffffffffffffffffffffffffff82141561174a57611749611649565b5b600182019050919050565b6000602082019050818103600083015261176f8184611575565b905092915050565b7f4e487b7100000000000000000000000000000000000000000000000000000000600052602260045260246000fd5b600060028204905060018216806117be57607f821691505b602082108114156117d2576117d1611777565b5b50919050565b60006040820190506117ed60008301856114fc565b6117fa6020830184611207565b939250505056fea26469706673582212201d43feee7d6dcc3c95b678b4669c0cb9a621d4ba059cf95882219a5e754b30a364736f6c634300080c0033",
      "opcodes": "PUSH1 0x80 PUSH1 0x40 MSTORE PUSH1 0x0 DUP1 SSTORE CALLVALUE DUP1 ISZERO PUSH3 0x15 JUMPI PUSH1 0x0 DUP1 REVERT JUMPDEST POP PUSH1 0x40 MLOAD PUSH3 0x1A1B CODESIZE SUB DUP1 PUSH3 0x1A1B DUP4 CODECOPY DUP2 DUP2 ADD PUSH1 0x40 MSTORE DUP2 ADD SWAP1 PUSH3 0x3B SWAP2 SWAP1 PUSH3 0x15E JUMP JUMPDEST DUP2 PUSH1 0x3 DUP2 SWAP1 SSTORE POP DUP1 PUSH1 0x2 PUSH1 0x0 PUSH2 0x100 EXP DUP2 SLOAD DUP2 PUSH20 0xFFFFFFFFFFFFFFFFFFFFFFFFFFFFFFFFFFFFFFFF MUL NOT AND SWAP1 DUP4 PUSH20 0xFFFFFFFFFFFFFFFFFFFFFFFFFFFFFFFFFFFFFFFF AND MUL OR SWAP1 SSTORE POP PUSH1 0x0 PUSH1 0x2 PUSH1 0x14 PUSH2 0x100 EXP DUP2 SLOAD DUP2 PUSH1 0xFF MUL NOT AND SWAP1 DUP4 PUSH1 0x2 DUP2 GT ISZERO PUSH3 0xAC JUMPI PUSH3 0xAB PUSH3 0x1A5 JUMP JUMPDEST JUMPDEST MUL OR SWAP1 SSTORE POP POP POP PUSH3 0x1D4 JUMP JUMPDEST PUSH1 0x0 DUP1 REVERT JUMPDEST PUSH1 0x0 DUP2 SWAP1 POP SWAP2 SWAP1 POP JUMP JUMPDEST PUSH3 0xD3 DUP2 PUSH3 0xBE JUMP JUMPDEST DUP2 EQ PUSH3 0xDF JUMPI PUSH1 0x0 DUP1 REVERT JUMPDEST POP JUMP JUMPDEST PUSH1 0x0 DUP2 MLOAD SWAP1 POP PUSH3 0xF3 DUP2 PUSH3 0xC8 JUMP JUMPDEST SWAP3 SWAP2 POP POP JUMP JUMPDEST PUSH1 0x0 PUSH20 0xFFFFFFFFFFFFFFFFFFFFFFFFFFFFFFFFFFFFFFFF DUP3 AND SWAP1 POP SWAP2 SWAP1 POP JUMP JUMPDEST PUSH1 0x0 PUSH3 0x126 DUP3 PUSH3 0xF9 JUMP JUMPDEST SWAP1 POP SWAP2 SWAP1 POP JUMP JUMPDEST PUSH3 0x138 DUP2 PUSH3 0x119 JUMP JUMPDEST DUP2 EQ PUSH3 0x144 JUMPI PUSH1 0x0 DUP1 REVERT JUMPDEST POP JUMP JUMPDEST PUSH1 0x0 DUP2 MLOAD SWAP1 POP PUSH3 0x158 DUP2 PUSH3 0x12D JUMP JUMPDEST SWAP3 SWAP2 POP POP JUMP JUMPDEST PUSH1 0x0 DUP1 PUSH1 0x40 DUP4 DUP6 SUB SLT ISZERO PUSH3 0x178 JUMPI PUSH3 0x177 PUSH3 0xB9 JUMP JUMPDEST JUMPDEST PUSH1 0x0 PUSH3 0x188 DUP6 DUP3 DUP7 ADD PUSH3 0xE2 JUMP JUMPDEST SWAP3 POP POP PUSH1 0x20 PUSH3 0x19B DUP6 DUP3 DUP7 ADD PUSH3 0x147 JUMP JUMPDEST SWAP2 POP POP SWAP3 POP SWAP3 SWAP1 POP JUMP JUMPDEST PUSH32 0x4E487B7100000000000000000000000000000000000000000000000000000000 PUSH1 0x0 MSTORE PUSH1 0x21 PUSH1 0x4 MSTORE PUSH1 0x24 PUSH1 0x0 REVERT JUMPDEST PUSH2 0x1837 DUP1 PUSH3 0x1E4 PUSH1 0x0 CODECOPY PUSH1 0x0 RETURN INVALID PUSH1 0x80 PUSH1 0x40 MSTORE PUSH1 0x4 CALLDATASIZE LT PUSH2 0xE8 JUMPI PUSH1 0x0 CALLDATALOAD PUSH1 0xE0 SHR DUP1 PUSH4 0x8129FC1C GT PUSH2 0x8A JUMPI DUP1 PUSH4 0xBAB56910 GT PUSH2 0x59 JUMPI DUP1 PUSH4 0xBAB56910 EQ PUSH2 0x290 JUMPI DUP1 PUSH4 0xBB6FC950 EQ PUSH2 0x2D0 JUMPI DUP1 PUSH4 0xC3966409 EQ PUSH2 0x2EC JUMPI DUP1 PUSH4 0xC916B6DE EQ PUSH2 0x303 JUMPI PUSH2 0xE8 JUMP JUMPDEST DUP1 PUSH4 0x8129FC1C EQ PUSH2 0x209 JUMPI DUP1 PUSH4 0x84BF66AC EQ PUSH2 0x213 JUMPI DUP1 PUSH4 0x965720AF EQ PUSH2 0x23C JUMPI DUP1 PUSH4 0xB7896A30 EQ PUSH2 0x267 JUMPI PUSH2 0xE8 JUMP JUMPDEST DUP1 PUSH4 0x257961BF GT PUSH2 0xC6 JUMPI DUP1 PUSH4 0x257961BF EQ PUSH2 0x15F JUMPI DUP1 PUSH4 0x2C2AB5EA EQ PUSH2 0x18A JUMPI DUP1 PUSH4 0x6DC5434C EQ PUSH2 0x1B5 JUMPI DUP1 PUSH4 0x748807AB EQ PUSH2 0x1DE JUMPI PUSH2 0xE8 JUMP JUMPDEST DUP1 PUSH4 0x54F84ED EQ PUSH2 0xED JUMPI DUP1 PUSH4 0x6A4E7CB EQ PUSH2 0x109 JUMPI DUP1 PUSH4 0x12065FE0 EQ PUSH2 0x134 JUMPI JUMPDEST PUSH1 0x0 DUP1 REVERT JUMPDEST PUSH2 0x107 PUSH1 0x4 DUP1 CALLDATASIZE SUB DUP2 ADD SWAP1 PUSH2 0x102 SWAP2 SWAP1 PUSH2 0x1174 JUMP JUMPDEST PUSH2 0x31A JUMP JUMPDEST STOP JUMPDEST CALLVALUE DUP1 ISZERO PUSH2 0x115 JUMPI PUSH1 0x0 DUP1 REVERT JUMPDEST POP PUSH2 0x11E PUSH2 0x4C7 JUMP JUMPDEST PUSH1 0x40 MLOAD PUSH2 0x12B SWAP2 SWAP1 PUSH2 0x11E2 JUMP JUMPDEST PUSH1 0x40 MLOAD DUP1 SWAP2 SUB SWAP1 RETURN JUMPDEST CALLVALUE DUP1 ISZERO PUSH2 0x140 JUMPI PUSH1 0x0 DUP1 REVERT JUMPDEST POP PUSH2 0x149 PUSH2 0x4ED JUMP JUMPDEST PUSH1 0x40 MLOAD PUSH2 0x156 SWAP2 SWAP1 PUSH2 0x1216 JUMP JUMPDEST PUSH1 0x40 MLOAD DUP1 SWAP2 SUB SWAP1 RETURN JUMPDEST CALLVALUE DUP1 ISZERO PUSH2 0x16B JUMPI PUSH1 0x0 DUP1 REVERT JUMPDEST POP PUSH2 0x174 PUSH2 0x4F5 JUMP JUMPDEST PUSH1 0x40 MLOAD PUSH2 0x181 SWAP2 SWAP1 PUSH2 0x1216 JUMP JUMPDEST PUSH1 0x40 MLOAD DUP1 SWAP2 SUB SWAP1 RETURN JUMPDEST CALLVALUE DUP1 ISZERO PUSH2 0x196 JUMPI PUSH1 0x0 DUP1 REVERT JUMPDEST POP PUSH2 0x19F PUSH2 0x4FB JUMP JUMPDEST PUSH1 0x40 MLOAD PUSH2 0x1AC SWAP2 SWAP1 PUSH2 0x1252 JUMP JUMPDEST PUSH1 0x40 MLOAD DUP1 SWAP2 SUB SWAP1 RETURN JUMPDEST CALLVALUE DUP1 ISZERO PUSH2 0x1C1 JUMPI PUSH1 0x0 DUP1 REVERT JUMPDEST POP PUSH2 0x1DC PUSH1 0x4 DUP1 CALLDATASIZE SUB DUP2 ADD SWAP1 PUSH2 0x1D7 SWAP2 SWAP1 PUSH2 0x1174 JUMP JUMPDEST PUSH2 0x521 JUMP JUMPDEST STOP JUMPDEST CALLVALUE DUP1 ISZERO PUSH2 0x1EA JUMPI PUSH1 0x0 DUP1 REVERT JUMPDEST POP PUSH2 0x1F3 PUSH2 0x6A8 JUMP JUMPDEST PUSH1 0x40 MLOAD PUSH2 0x200 SWAP2 SWAP1 PUSH2 0x12E4 JUMP JUMPDEST PUSH1 0x40 MLOAD DUP1 SWAP2 SUB SWAP1 RETURN JUMPDEST PUSH2 0x211 PUSH2 0x6BB JUMP JUMPDEST STOP JUMPDEST CALLVALUE DUP1 ISZERO PUSH2 0x21F JUMPI PUSH1 0x0 DUP1 REVERT JUMPDEST POP PUSH2 0x23A PUSH1 0x4 DUP1 CALLDATASIZE SUB DUP2 ADD SWAP1 PUSH2 0x235 SWAP2 SWAP1 PUSH2 0x1471 JUMP JUMPDEST PUSH2 0x746 JUMP JUMPDEST STOP JUMPDEST CALLVALUE DUP1 ISZERO PUSH2 0x248 JUMPI PUSH1 0x0 DUP1 REVERT JUMPDEST POP PUSH2 0x251 PUSH2 0x917 JUMP JUMPDEST PUSH1 0x40 MLOAD PUSH2 0x25E SWAP2 SWAP1 PUSH2 0x150B JUMP JUMPDEST PUSH1 0x40 MLOAD DUP1 SWAP2 SUB SWAP1 RETURN JUMPDEST CALLVALUE DUP1 ISZERO PUSH2 0x273 JUMPI PUSH1 0x0 DUP1 REVERT JUMPDEST POP PUSH2 0x28E PUSH1 0x4 DUP1 CALLDATASIZE SUB DUP2 ADD SWAP1 PUSH2 0x289 SWAP2 SWAP1 PUSH2 0x1174 JUMP JUMPDEST PUSH2 0x91D JUMP JUMPDEST STOP JUMPDEST CALLVALUE DUP1 ISZERO PUSH2 0x29C JUMPI PUSH1 0x0 DUP1 REVERT JUMPDEST POP PUSH2 0x2B7 PUSH1 0x4 DUP1 CALLDATASIZE SUB DUP2 ADD SWAP1 PUSH2 0x2B2 SWAP2 SWAP1 PUSH2 0x1174 JUMP JUMPDEST PUSH2 0xAE5 JUMP JUMPDEST PUSH1 0x40 MLOAD PUSH2 0x2C7 SWAP5 SWAP4 SWAP3 SWAP2 SWAP1 PUSH2 0x15F6 JUMP JUMPDEST PUSH1 0x40 MLOAD DUP1 SWAP2 SUB SWAP1 RETURN JUMPDEST PUSH2 0x2EA PUSH1 0x4 DUP1 CALLDATASIZE SUB DUP2 ADD SWAP1 PUSH2 0x2E5 SWAP2 SWAP1 PUSH2 0x1174 JUMP JUMPDEST PUSH2 0xC32 JUMP JUMPDEST STOP JUMPDEST CALLVALUE DUP1 ISZERO PUSH2 0x2F8 JUMPI PUSH1 0x0 DUP1 REVERT JUMPDEST POP PUSH2 0x301 PUSH2 0xE4F JUMP JUMPDEST STOP JUMPDEST CALLVALUE DUP1 ISZERO PUSH2 0x30F JUMPI PUSH1 0x0 DUP1 REVERT JUMPDEST POP PUSH2 0x318 PUSH2 0xF66 JUMP JUMPDEST STOP JUMPDEST PUSH1 0x1 DUP1 PUSH1 0x2 DUP2 GT ISZERO PUSH2 0x32F JUMPI PUSH2 0x32E PUSH2 0x126D JUMP JUMPDEST JUMPDEST PUSH1 0x2 PUSH1 0x14 SWAP1 SLOAD SWAP1 PUSH2 0x100 EXP SWAP1 DIV PUSH1 0xFF AND PUSH1 0x2 DUP2 GT ISZERO PUSH2 0x351 JUMPI PUSH2 0x350 PUSH2 0x126D JUMP JUMPDEST JUMPDEST EQ PUSH2 0x35B JUMPI PUSH1 0x0 DUP1 REVERT JUMPDEST DUP2 PUSH1 0x0 PUSH1 0x1 PUSH1 0x0 SLOAD PUSH2 0x36D SWAP2 SWAP1 PUSH2 0x1678 JUMP JUMPDEST DUP3 SGT ISZERO DUP1 ISZERO PUSH2 0x3C2 JUMPI POP DUP1 PUSH1 0x4 DUP2 GT ISZERO PUSH2 0x38A JUMPI PUSH2 0x389 PUSH2 0x126D JUMP JUMPDEST JUMPDEST PUSH1 0x4 PUSH1 0x0 DUP5 DUP2 MSTORE PUSH1 0x20 ADD SWAP1 DUP2 MSTORE PUSH1 0x20 ADD PUSH1 0x0 KECCAK256 PUSH1 0x3 ADD PUSH1 0x0 SWAP1 SLOAD SWAP1 PUSH2 0x100 EXP SWAP1 DIV PUSH1 0xFF AND PUSH1 0x4 DUP2 GT ISZERO PUSH2 0x3C0 JUMPI PUSH2 0x3BF PUSH2 0x126D JUMP JUMPDEST JUMPDEST EQ JUMPDEST PUSH2 0x3CB JUMPI PUSH1 0x0 DUP1 REVERT JUMPDEST DUP4 CALLVALUE DUP1 PUSH1 0x4 PUSH1 0x0 DUP5 DUP2 MSTORE PUSH1 0x20 ADD SWAP1 DUP2 MSTORE PUSH1 0x20 ADD PUSH1 0x0 KECCAK256 PUSH1 0x2 ADD SLOAD EQ PUSH2 0x3EF JUMPI PUSH1 0x0 DUP1 REVERT JUMPDEST PUSH1 0x2 PUSH1 0x0 SWAP1 SLOAD SWAP1 PUSH2 0x100 EXP SWAP1 DIV PUSH20 0xFFFFFFFFFFFFFFFFFFFFFFFFFFFFFFFFFFFFFFFF AND PUSH20 0xFFFFFFFFFFFFFFFFFFFFFFFFFFFFFFFFFFFFFFFF AND CALLER PUSH20 0xFFFFFFFFFFFFFFFFFFFFFFFFFFFFFFFFFFFFFFFF AND EQ PUSH2 0x449 JUMPI PUSH1 0x0 DUP1 REVERT JUMPDEST PUSH1 0x1 PUSH1 0x4 PUSH1 0x0 DUP9 DUP2 MSTORE PUSH1 0x20 ADD SWAP1 DUP2 MSTORE PUSH1 0x20 ADD PUSH1 0x0 KECCAK256 PUSH1 0x3 ADD PUSH1 0x0 PUSH2 0x100 EXP DUP2 SLOAD DUP2 PUSH1 0xFF MUL NOT AND SWAP1 DUP4 PUSH1 0x4 DUP2 GT ISZERO PUSH2 0x483 JUMPI PUSH2 0x482 PUSH2 0x126D JUMP JUMPDEST JUMPDEST MUL OR SWAP1 SSTORE POP PUSH32 0xD58E7B4972479E30BD65E34280DCDA90802A617A803CB4B39764A2A30D3A8EAE DUP7 PUSH1 0x40 MLOAD PUSH2 0x4B7 SWAP2 SWAP1 PUSH2 0x150B JUMP JUMPDEST PUSH1 0x40 MLOAD DUP1 SWAP2 SUB SWAP1 LOG1 POP POP POP POP POP POP JUMP JUMPDEST PUSH1 0x1 PUSH1 0x0 SWAP1 SLOAD SWAP1 PUSH2 0x100 EXP SWAP1 DIV PUSH20 0xFFFFFFFFFFFFFFFFFFFFFFFFFFFFFFFFFFFFFFFF AND DUP2 JUMP JUMPDEST PUSH1 0x0 SELFBALANCE SWAP1 POP SWAP1 JUMP JUMPDEST PUSH1 0x3 SLOAD DUP2 JUMP JUMPDEST PUSH1 0x2 PUSH1 0x0 SWAP1 SLOAD SWAP1 PUSH2 0x100 EXP SWAP1 DIV PUSH20 0xFFFFFFFFFFFFFFFFFFFFFFFFFFFFFFFFFFFFFFFF AND DUP2 JUMP JUMPDEST PUSH1 0x1 DUP1 PUSH1 0x2 DUP2 GT ISZERO PUSH2 0x536 JUMPI PUSH2 0x535 PUSH2 0x126D JUMP JUMPDEST JUMPDEST PUSH1 0x2 PUSH1 0x14 SWAP1 SLOAD SWAP1 PUSH2 0x100 EXP SWAP1 DIV PUSH1 0xFF AND PUSH1 0x2 DUP2 GT ISZERO PUSH2 0x558 JUMPI PUSH2 0x557 PUSH2 0x126D JUMP JUMPDEST JUMPDEST EQ PUSH2 0x562 JUMPI PUSH1 0x0 DUP1 REVERT JUMPDEST DUP2 PUSH1 0x2 PUSH1 0x1 PUSH1 0x0 SLOAD PUSH2 0x574 SWAP2 SWAP1 PUSH2 0x1678 JUMP JUMPDEST DUP3 SGT ISZERO DUP1 ISZERO PUSH2 0x5C9 JUMPI POP DUP1 PUSH1 0x4 DUP2 GT ISZERO PUSH2 0x591 JUMPI PUSH2 0x590 PUSH2 0x126D JUMP JUMPDEST JUMPDEST PUSH1 0x4 PUSH1 0x0 DUP5 DUP2 MSTORE PUSH1 0x20 ADD SWAP1 DUP2 MSTORE PUSH1 0x20 ADD PUSH1 0x0 KECCAK256 PUSH1 0x3 ADD PUSH1 0x0 SWAP1 SLOAD SWAP1 PUSH2 0x100 EXP SWAP1 DIV PUSH1 0xFF AND PUSH1 0x4 DUP2 GT ISZERO PUSH2 0x5C7 JUMPI PUSH2 0x5C6 PUSH2 0x126D JUMP JUMPDEST JUMPDEST EQ JUMPDEST PUSH2 0x5D2 JUMPI PUSH1 0x0 DUP1 REVERT JUMPDEST PUSH1 0x2 PUSH1 0x0 SWAP1 SLOAD SWAP1 PUSH2 0x100 EXP SWAP1 DIV PUSH20 0xFFFFFFFFFFFFFFFFFFFFFFFFFFFFFFFFFFFFFFFF AND PUSH20 0xFFFFFFFFFFFFFFFFFFFFFFFFFFFFFFFFFFFFFFFF AND CALLER PUSH20 0xFFFFFFFFFFFFFFFFFFFFFFFFFFFFFFFFFFFFFFFF AND EQ PUSH2 0x62C JUMPI PUSH1 0x0 DUP1 REVERT JUMPDEST PUSH1 0x3 PUSH1 0x4 PUSH1 0x0 DUP7 DUP2 MSTORE PUSH1 0x20 ADD SWAP1 DUP2 MSTORE PUSH1 0x20 ADD PUSH1 0x0 KECCAK256 PUSH1 0x3 ADD PUSH1 0x0 PUSH2 0x100 EXP DUP2 SLOAD DUP2 PUSH1 0xFF MUL NOT AND SWAP1 DUP4 PUSH1 0x4 DUP2 GT ISZERO PUSH2 0x666 JUMPI PUSH2 0x665 PUSH2 0x126D JUMP JUMPDEST JUMPDEST MUL OR SWAP1 SSTORE POP PUSH32 0x38F72D6C98702D265AEC82B55E4B637D84FA97622B2244CD84DCA2F171A0CEFC DUP5 PUSH1 0x40 MLOAD PUSH2 0x69A SWAP2 SWAP1 PUSH2 0x150B JUMP JUMPDEST PUSH1 0x40 MLOAD DUP1 SWAP2 SUB SWAP1 LOG1 POP POP POP POP JUMP JUMPDEST PUSH1 0x2 PUSH1 0x14 SWAP1 SLOAD SWAP1 PUSH2 0x100 EXP SWAP1 DIV PUSH1 0xFF AND DUP2 JUMP JUMPDEST PUSH2 0x732 PUSH1 0x40 MLOAD DUP1 PUSH1 0x40 ADD PUSH1 0x40 MSTORE DUP1 PUSH1 0x2 DUP2 MSTORE PUSH1 0x20 ADD PUSH32 0x4450000000000000000000000000000000000000000000000000000000000000 DUP2 MSTORE POP PUSH1 0x40 MLOAD DUP1 PUSH1 0x40 ADD PUSH1 0x40 MSTORE DUP1 PUSH1 0xC DUP2 MSTORE PUSH1 0x20 ADD PUSH32 0x44657369676E2050686173650000000000000000000000000000000000000000 DUP2 MSTORE POP PUSH1 0x3 SLOAD PUSH2 0x746 JUMP JUMPDEST PUSH2 0x73A PUSH2 0xF66 JUMP JUMPDEST PUSH2 0x744 PUSH1 0x0 PUSH2 0x31A JUMP JUMPDEST JUMP JUMPDEST PUSH1 0x0 DUP1 PUSH1 0x2 DUP2 GT ISZERO PUSH2 0x75B JUMPI PUSH2 0x75A PUSH2 0x126D JUMP JUMPDEST JUMPDEST PUSH1 0x2 PUSH1 0x14 SWAP1 SLOAD SWAP1 PUSH2 0x100 EXP SWAP1 DIV PUSH1 0xFF AND PUSH1 0x2 DUP2 GT ISZERO PUSH2 0x77D JUMPI PUSH2 0x77C PUSH2 0x126D JUMP JUMPDEST JUMPDEST EQ PUSH2 0x787 JUMPI PUSH1 0x0 DUP1 REVERT JUMPDEST PUSH1 0x2 PUSH1 0x0 SWAP1 SLOAD SWAP1 PUSH2 0x100 EXP SWAP1 DIV PUSH20 0xFFFFFFFFFFFFFFFFFFFFFFFFFFFFFFFFFFFFFFFF AND PUSH20 0xFFFFFFFFFFFFFFFFFFFFFFFFFFFFFFFFFFFFFFFF AND CALLER PUSH20 0xFFFFFFFFFFFFFFFFFFFFFFFFFFFFFFFFFFFFFFFF AND EQ PUSH2 0x7E1 JUMPI PUSH1 0x0 DUP1 REVERT JUMPDEST PUSH2 0x7E9 PUSH2 0x104D JUMP JUMPDEST DUP5 DUP2 PUSH1 0x0 ADD DUP2 SWAP1 MSTORE POP DUP4 DUP2 PUSH1 0x20 ADD DUP2 SWAP1 MSTORE POP PUSH1 0x0 DUP2 PUSH1 0x60 ADD SWAP1 PUSH1 0x4 DUP2 GT ISZERO PUSH2 0x814 JUMPI PUSH2 0x813 PUSH2 0x126D JUMP JUMPDEST JUMPDEST SWAP1 DUP2 PUSH1 0x4 DUP2 GT ISZERO PUSH2 0x828 JUMPI PUSH2 0x827 PUSH2 0x126D JUMP JUMPDEST JUMPDEST DUP2 MSTORE POP POP DUP3 DUP2 PUSH1 0x40 ADD DUP2 DUP2 MSTORE POP POP DUP1 PUSH1 0x4 PUSH1 0x0 DUP1 SLOAD DUP2 MSTORE PUSH1 0x20 ADD SWAP1 DUP2 MSTORE PUSH1 0x20 ADD PUSH1 0x0 KECCAK256 PUSH1 0x0 DUP3 ADD MLOAD DUP2 PUSH1 0x0 ADD SWAP1 DUP1 MLOAD SWAP1 PUSH1 0x20 ADD SWAP1 PUSH2 0x867 SWAP3 SWAP2 SWAP1 PUSH2 0x1087 JUMP JUMPDEST POP PUSH1 0x20 DUP3 ADD MLOAD DUP2 PUSH1 0x1 ADD SWAP1 DUP1 MLOAD SWAP1 PUSH1 0x20 ADD SWAP1 PUSH2 0x884 SWAP3 SWAP2 SWAP1 PUSH2 0x1087 JUMP JUMPDEST POP PUSH1 0x40 DUP3 ADD MLOAD DUP2 PUSH1 0x2 ADD SSTORE PUSH1 0x60 DUP3 ADD MLOAD DUP2 PUSH1 0x3 ADD PUSH1 0x0 PUSH2 0x100 EXP DUP2 SLOAD DUP2 PUSH1 0xFF MUL NOT AND SWAP1 DUP4 PUSH1 0x4 DUP2 GT ISZERO PUSH2 0x8BA JUMPI PUSH2 0x8B9 PUSH2 0x126D JUMP JUMPDEST JUMPDEST MUL OR SWAP1 SSTORE POP SWAP1 POP POP PUSH1 0x0 DUP1 DUP2 SLOAD DUP1 SWAP3 SWAP2 SWAP1 PUSH2 0x8D4 SWAP1 PUSH2 0x170C JUMP JUMPDEST SWAP2 SWAP1 POP SSTORE POP PUSH32 0xF29FDEA51F7EC4CF45BBB7EB61E67FA64CF90101B5EA7415C5B02B69BAC9C594 DUP6 PUSH1 0x40 MLOAD PUSH2 0x908 SWAP2 SWAP1 PUSH2 0x1755 JUMP JUMPDEST PUSH1 0x40 MLOAD DUP1 SWAP2 SUB SWAP1 LOG1 POP POP POP POP POP JUMP JUMPDEST PUSH1 0x0 SLOAD DUP2 JUMP JUMPDEST PUSH1 0x1 DUP1 PUSH1 0x2 DUP2 GT ISZERO PUSH2 0x932 JUMPI PUSH2 0x931 PUSH2 0x126D JUMP JUMPDEST JUMPDEST PUSH1 0x2 PUSH1 0x14 SWAP1 SLOAD SWAP1 PUSH2 0x100 EXP SWAP1 DIV PUSH1 0xFF AND PUSH1 0x2 DUP2 GT ISZERO PUSH2 0x954 JUMPI PUSH2 0x953 PUSH2 0x126D JUMP JUMPDEST JUMPDEST EQ PUSH2 0x95E JUMPI PUSH1 0x0 DUP1 REVERT JUMPDEST DUP2 PUSH1 0x1 DUP1 PUSH1 0x0 SLOAD PUSH2 0x96F SWAP2 SWAP1 PUSH2 0x1678 JUMP JUMPDEST DUP3 SGT ISZERO DUP1 ISZERO PUSH2 0x9C4 JUMPI POP DUP1 PUSH1 0x4 DUP2 GT ISZERO PUSH2 0x98C JUMPI PUSH2 0x98B PUSH2 0x126D JUMP JUMPDEST JUMPDEST PUSH1 0x4 PUSH1 0x0 DUP5 DUP2 MSTORE PUSH1 0x20 ADD SWAP1 DUP2 MSTORE PUSH1 0x20 ADD PUSH1 0x0 KECCAK256 PUSH1 0x3 ADD PUSH1 0x0 SWAP1 SLOAD SWAP1 PUSH2 0x100 EXP SWAP1 DIV PUSH1 0xFF AND PUSH1 0x4 DUP2 GT ISZERO PUSH2 0x9C2 JUMPI PUSH2 0x9C1 PUSH2 0x126D JUMP JUMPDEST JUMPDEST EQ JUMPDEST PUSH2 0x9CD JUMPI PUSH1 0x0 DUP1 REVERT JUMPDEST PUSH1 0x2 PUSH1 0x0 SWAP1 SLOAD SWAP1 PUSH2 0x100 EXP SWAP1 DIV PUSH20 0xFFFFFFFFFFFFFFFFFFFFFFFFFFFFFFFFFFFFFFFF AND PUSH20 0xFFFFFFFFFFFFFFFFFFFFFFFFFFFFFFFFFFFFFFFF AND CALLER PUSH20 0xFFFFFFFFFFFFFFFFFFFFFFFFFFFFFFFFFFFFFFFF AND EQ ISZERO PUSH2 0xA28 JUMPI PUSH1 0x0 DUP1 REVERT JUMPDEST CALLER PUSH1 0x1 PUSH1 0x0 PUSH2 0x100 EXP DUP2 SLOAD DUP2 PUSH20 0xFFFFFFFFFFFFFFFFFFFFFFFFFFFFFFFFFFFFFFFF MUL NOT AND SWAP1 DUP4 PUSH20 0xFFFFFFFFFFFFFFFFFFFFFFFFFFFFFFFFFFFFFFFF AND MUL OR SWAP1 SSTORE POP PUSH1 0x2 PUSH1 0x4 PUSH1 0x0 DUP7 DUP2 MSTORE PUSH1 0x20 ADD SWAP1 DUP2 MSTORE PUSH1 0x20 ADD PUSH1 0x0 KECCAK256 PUSH1 0x3 ADD PUSH1 0x0 PUSH2 0x100 EXP DUP2 SLOAD DUP2 PUSH1 0xFF MUL NOT AND SWAP1 DUP4 PUSH1 0x4 DUP2 GT ISZERO PUSH2 0xAA3 JUMPI PUSH2 0xAA2 PUSH2 0x126D JUMP JUMPDEST JUMPDEST MUL OR SWAP1 SSTORE POP PUSH32 0xDE2DC33FBE2A5B6BF5E0ED721D44DC14441C4EEF2CF4975CE14FD7BC0549489C DUP5 PUSH1 0x40 MLOAD PUSH2 0xAD7 SWAP2 SWAP1 PUSH2 0x150B JUMP JUMPDEST PUSH1 0x40 MLOAD DUP1 SWAP2 SUB SWAP1 LOG1 POP POP POP POP JUMP JUMPDEST PUSH1 0x4 PUSH1 0x20 MSTORE DUP1 PUSH1 0x0 MSTORE PUSH1 0x40 PUSH1 0x0 KECCAK256 PUSH1 0x0 SWAP2 POP SWAP1 POP DUP1 PUSH1 0x0 ADD DUP1 SLOAD PUSH2 0xB08 SWAP1 PUSH2 0x17A6 JUMP JUMPDEST DUP1 PUSH1 0x1F ADD PUSH1 0x20 DUP1 SWAP2 DIV MUL PUSH1 0x20 ADD PUSH1 0x40 MLOAD SWAP1 DUP2 ADD PUSH1 0x40 MSTORE DUP1 SWAP3 SWAP2 SWAP1 DUP2 DUP2 MSTORE PUSH1 0x20 ADD DUP3 DUP1 SLOAD PUSH2 0xB34 SWAP1 PUSH2 0x17A6 JUMP JUMPDEST DUP1 ISZERO PUSH2 0xB81 JUMPI DUP1 PUSH1 0x1F LT PUSH2 0xB56 JUMPI PUSH2 0x100 DUP1 DUP4 SLOAD DIV MUL DUP4 MSTORE SWAP2 PUSH1 0x20 ADD SWAP2 PUSH2 0xB81 JUMP JUMPDEST DUP3 ADD SWAP2 SWAP1 PUSH1 0x0 MSTORE PUSH1 0x20 PUSH1 0x0 KECCAK256 SWAP1 JUMPDEST DUP2 SLOAD DUP2 MSTORE SWAP1 PUSH1 0x1 ADD SWAP1 PUSH1 0x20 ADD DUP1 DUP4 GT PUSH2 0xB64 JUMPI DUP3 SWAP1 SUB PUSH1 0x1F AND DUP3 ADD SWAP2 JUMPDEST POP POP POP POP POP SWAP1 DUP1 PUSH1 0x1 ADD DUP1 SLOAD PUSH2 0xB96 SWAP1 PUSH2 0x17A6 JUMP JUMPDEST DUP1 PUSH1 0x1F ADD PUSH1 0x20 DUP1 SWAP2 DIV MUL PUSH1 0x20 ADD PUSH1 0x40 MLOAD SWAP1 DUP2 ADD PUSH1 0x40 MSTORE DUP1 SWAP3 SWAP2 SWAP1 DUP2 DUP2 MSTORE PUSH1 0x20 ADD DUP3 DUP1 SLOAD PUSH2 0xBC2 SWAP1 PUSH2 0x17A6 JUMP JUMPDEST DUP1 ISZERO PUSH2 0xC0F JUMPI DUP1 PUSH1 0x1F LT PUSH2 0xBE4 JUMPI PUSH2 0x100 DUP1 DUP4 SLOAD DIV MUL DUP4 MSTORE SWAP2 PUSH1 0x20 ADD SWAP2 PUSH2 0xC0F JUMP JUMPDEST DUP3 ADD SWAP2 SWAP1 PUSH1 0x0 MSTORE PUSH1 0x20 PUSH1 0x0 KECCAK256 SWAP1 JUMPDEST DUP2 SLOAD DUP2 MSTORE SWAP1 PUSH1 0x1 ADD SWAP1 PUSH1 0x20 ADD DUP1 DUP4 GT PUSH2 0xBF2 JUMPI DUP3 SWAP1 SUB PUSH1 0x1F AND DUP3 ADD SWAP2 JUMPDEST POP POP POP POP POP SWAP1 DUP1 PUSH1 0x2 ADD SLOAD SWAP1 DUP1 PUSH1 0x3 ADD PUSH1 0x0 SWAP1 SLOAD SWAP1 PUSH2 0x100 EXP SWAP1 DIV PUSH1 0xFF AND SWAP1 POP DUP5 JUMP JUMPDEST PUSH1 0x1 DUP1 PUSH1 0x2 DUP2 GT ISZERO PUSH2 0xC47 JUMPI PUSH2 0xC46 PUSH2 0x126D JUMP JUMPDEST JUMPDEST PUSH1 0x2 PUSH1 0x14 SWAP1 SLOAD SWAP1 PUSH2 0x100 EXP SWAP1 DIV PUSH1 0xFF AND PUSH1 0x2 DUP2 GT ISZERO PUSH2 0xC69 JUMPI PUSH2 0xC68 PUSH2 0x126D JUMP JUMPDEST JUMPDEST EQ PUSH2 0xC73 JUMPI PUSH1 0x0 DUP1 REVERT JUMPDEST DUP2 PUSH1 0x3 PUSH1 0x1 PUSH1 0x0 SLOAD PUSH2 0xC85 SWAP2 SWAP1 PUSH2 0x1678 JUMP JUMPDEST DUP3 SGT ISZERO DUP1 ISZERO PUSH2 0xCDA JUMPI POP DUP1 PUSH1 0x4 DUP2 GT ISZERO PUSH2 0xCA2 JUMPI PUSH2 0xCA1 PUSH2 0x126D JUMP JUMPDEST JUMPDEST PUSH1 0x4 PUSH1 0x0 DUP5 DUP2 MSTORE PUSH1 0x20 ADD SWAP1 DUP2 MSTORE PUSH1 0x20 ADD PUSH1 0x0 KECCAK256 PUSH1 0x3 ADD PUSH1 0x0 SWAP1 SLOAD SWAP1 PUSH2 0x100 EXP SWAP1 DIV PUSH1 0xFF AND PUSH1 0x4 DUP2 GT ISZERO PUSH2 0xCD8 JUMPI PUSH2 0xCD7 PUSH2 0x126D JUMP JUMPDEST JUMPDEST EQ JUMPDEST PUSH2 0xCE3 JUMPI PUSH1 0x0 DUP1 REVERT JUMPDEST PUSH1 0x1 PUSH1 0x0 SWAP1 SLOAD SWAP1 PUSH2 0x100 EXP SWAP1 DIV PUSH20 0xFFFFFFFFFFFFFFFFFFFFFFFFFFFFFFFFFFFFFFFF AND PUSH20 0xFFFFFFFFFFFFFFFFFFFFFFFFFFFFFFFFFFFFFFFF AND CALLER PUSH20 0xFFFFFFFFFFFFFFFFFFFFFFFFFFFFFFFFFFFFFFFF AND EQ PUSH2 0xD3D JUMPI PUSH1 0x0 DUP1 REVERT JUMPDEST PUSH1 0x1 PUSH1 0x0 SWAP1 SLOAD SWAP1 PUSH2 0x100 EXP SWAP1 DIV PUSH20 0xFFFFFFFFFFFFFFFFFFFFFFFFFFFFFFFFFFFFFFFF AND PUSH20 0xFFFFFFFFFFFFFFFFFFFFFFFFFFFFFFFFFFFFFFFF AND PUSH2 0x8FC PUSH1 0x4 PUSH1 0x0 DUP8 DUP2 MSTORE PUSH1 0x20 ADD SWAP1 DUP2 MSTORE PUSH1 0x20 ADD PUSH1 0x0 KECCAK256 PUSH1 0x2 ADD SLOAD SWAP1 DUP2 ISZERO MUL SWAP1 PUSH1 0x40 MLOAD PUSH1 0x0 PUSH1 0x40 MLOAD DUP1 DUP4 SUB DUP2 DUP6 DUP9 DUP9 CALL SWAP4 POP POP POP POP ISZERO DUP1 ISZERO PUSH2 0xDBB JUMPI RETURNDATASIZE PUSH1 0x0 DUP1 RETURNDATACOPY RETURNDATASIZE PUSH1 0x0 REVERT JUMPDEST POP PUSH1 0x4 DUP1 PUSH1 0x0 DUP7 DUP2 MSTORE PUSH1 0x20 ADD SWAP1 DUP2 MSTORE PUSH1 0x20 ADD PUSH1 0x0 KECCAK256 PUSH1 0x3 ADD PUSH1 0x0 PUSH2 0x100 EXP DUP2 SLOAD DUP2 PUSH1 0xFF MUL NOT AND SWAP1 DUP4 PUSH1 0x4 DUP2 GT ISZERO PUSH2 0xDF5 JUMPI PUSH2 0xDF4 PUSH2 0x126D JUMP JUMPDEST JUMPDEST MUL OR SWAP1 SSTORE POP PUSH32 0xD73E163332C47993BA97B46887362EA1F01120CBC609242B41762901217BFD5D DUP5 PUSH1 0x4 PUSH1 0x0 DUP8 DUP2 MSTORE PUSH1 0x20 ADD SWAP1 DUP2 MSTORE PUSH1 0x20 ADD PUSH1 0x0 KECCAK256 PUSH1 0x2 ADD SLOAD PUSH1 0x40 MLOAD PUSH2 0xE41 SWAP3 SWAP2 SWAP1 PUSH2 0x17D8 JUMP JUMPDEST PUSH1 0x40 MLOAD DUP1 SWAP2 SUB SWAP1 LOG1 POP POP POP POP JUMP JUMPDEST PUSH1 0x2 PUSH1 0x0 SWAP1 SLOAD SWAP1 PUSH2 0x100 EXP SWAP1 DIV PUSH20 0xFFFFFFFFFFFFFFFFFFFFFFFFFFFFFFFFFFFFFFFF AND PUSH20 0xFFFFFFFFFFFFFFFFFFFFFFFFFFFFFFFFFFFFFFFF AND CALLER PUSH20 0xFFFFFFFFFFFFFFFFFFFFFFFFFFFFFFFFFFFFFFFF AND EQ DUP1 PUSH2 0xEF8 JUMPI POP PUSH1 0x1 PUSH1 0x0 SWAP1 SLOAD SWAP1 PUSH2 0x100 EXP SWAP1 DIV PUSH20 0xFFFFFFFFFFFFFFFFFFFFFFFFFFFFFFFFFFFFFFFF AND PUSH20 0xFFFFFFFFFFFFFFFFFFFFFFFFFFFFFFFFFFFFFFFF AND CALLER PUSH20 0xFFFFFFFFFFFFFFFFFFFFFFFFFFFFFFFFFFFFFFFF AND EQ JUMPDEST PUSH2 0xF01 JUMPI PUSH1 0x0 DUP1 REVERT JUMPDEST PUSH1 0x0 SELFBALANCE EQ PUSH2 0xF0E JUMPI PUSH1 0x0 DUP1 REVERT JUMPDEST PUSH1 0x2 DUP1 PUSH1 0x14 PUSH2 0x100 EXP DUP2 SLOAD DUP2 PUSH1 0xFF MUL NOT AND SWAP1 DUP4 PUSH1 0x2 DUP2 GT ISZERO PUSH2 0xF33 JUMPI PUSH2 0xF32 PUSH2 0x126D JUMP JUMPDEST JUMPDEST MUL OR SWAP1 SSTORE POP PUSH32 0xBEF1EF6470ADD1875C12E547D844894DE0608F7D47527676863B44153090BFE2 PUSH1 0x40 MLOAD PUSH1 0x40 MLOAD DUP1 SWAP2 SUB SWAP1 LOG1 JUMP JUMPDEST PUSH1 0x0 DUP1 PUSH1 0x2 DUP2 GT ISZERO PUSH2 0xF7B JUMPI PUSH2 0xF7A PUSH2 0x126D JUMP JUMPDEST JUMPDEST PUSH1 0x2 PUSH1 0x14 SWAP1 SLOAD SWAP1 PUSH2 0x100 EXP SWAP1 DIV PUSH1 0xFF AND PUSH1 0x2 DUP2 GT ISZERO PUSH2 0xF9D JUMPI PUSH2 0xF9C PUSH2 0x126D JUMP JUMPDEST JUMPDEST EQ PUSH2 0xFA7 JUMPI PUSH1 0x0 DUP1 REVERT JUMPDEST CALLER PUSH1 0x2 PUSH1 0x0 PUSH2 0x100 EXP DUP2 SLOAD DUP2 PUSH20 0xFFFFFFFFFFFFFFFFFFFFFFFFFFFFFFFFFFFFFFFF MUL NOT AND SWAP1 DUP4 PUSH20 0xFFFFFFFFFFFFFFFFFFFFFFFFFFFFFFFFFFFFFFFF AND MUL OR SWAP1 SSTORE POP PUSH1 0x1 PUSH1 0x2 PUSH1 0x14 PUSH2 0x100 EXP DUP2 SLOAD DUP2 PUSH1 0xFF MUL NOT AND SWAP1 DUP4 PUSH1 0x2 DUP2 GT ISZERO PUSH2 0x100E JUMPI PUSH2 0x100D PUSH2 0x126D JUMP JUMPDEST JUMPDEST MUL OR SWAP1 SSTORE POP PUSH32 0x1BC39C23D192137DF337ABB0C6FE3F63A86EAD52F73452CA64136A5DFD7FF43 CALLER PUSH1 0x40 MLOAD PUSH2 0x1042 SWAP2 SWAP1 PUSH2 0x1252 JUMP JUMPDEST PUSH1 0x40 MLOAD DUP1 SWAP2 SUB SWAP1 LOG1 POP JUMP JUMPDEST PUSH1 0x40 MLOAD DUP1 PUSH1 0x80 ADD PUSH1 0x40 MSTORE DUP1 PUSH1 0x60 DUP2 MSTORE PUSH1 0x20 ADD PUSH1 0x60 DUP2 MSTORE PUSH1 0x20 ADD PUSH1 0x0 DUP2 MSTORE PUSH1 0x20 ADD PUSH1 0x0 PUSH1 0x4 DUP2 GT ISZERO PUSH2 0x1081 JUMPI PUSH2 0x1080 PUSH2 0x126D JUMP JUMPDEST JUMPDEST DUP2 MSTORE POP SWAP1 JUMP JUMPDEST DUP3 DUP1 SLOAD PUSH2 0x1093 SWAP1 PUSH2 0x17A6 JUMP JUMPDEST SWAP1 PUSH1 0x0 MSTORE PUSH1 0x20 PUSH1 0x0 KECCAK256 SWAP1 PUSH1 0x1F ADD PUSH1 0x20 SWAP1 DIV DUP2 ADD SWAP3 DUP3 PUSH2 0x10B5 JUMPI PUSH1 0x0 DUP6 SSTORE PUSH2 0x10FC JUMP JUMPDEST DUP3 PUSH1 0x1F LT PUSH2 0x10CE JUMPI DUP1 MLOAD PUSH1 0xFF NOT AND DUP4 DUP1 ADD OR DUP6 SSTORE PUSH2 0x10FC JUMP JUMPDEST DUP3 DUP1 ADD PUSH1 0x1 ADD DUP6 SSTORE DUP3 ISZERO PUSH2 0x10FC JUMPI SWAP2 DUP3 ADD JUMPDEST DUP3 DUP2 GT ISZERO PUSH2 0x10FB JUMPI DUP3 MLOAD DUP3 SSTORE SWAP2 PUSH1 0x20 ADD SWAP2 SWAP1 PUSH1 0x1 ADD SWAP1 PUSH2 0x10E0 JUMP JUMPDEST JUMPDEST POP SWAP1 POP PUSH2 0x1109 SWAP2 SWAP1 PUSH2 0x110D JUMP JUMPDEST POP SWAP1 JUMP JUMPDEST JUMPDEST DUP1 DUP3 GT ISZERO PUSH2 0x1126 JUMPI PUSH1 0x0 DUP2 PUSH1 0x0 SWAP1 SSTORE POP PUSH1 0x1 ADD PUSH2 0x110E JUMP JUMPDEST POP SWAP1 JUMP JUMPDEST PUSH1 0x0 PUSH1 0x40 MLOAD SWAP1 POP SWAP1 JUMP JUMPDEST PUSH1 0x0 DUP1 REVERT JUMPDEST PUSH1 0x0 DUP1 REVERT JUMPDEST PUSH1 0x0 DUP2 SWAP1 POP SWAP2 SWAP1 POP JUMP JUMPDEST PUSH2 0x1151 DUP2 PUSH2 0x113E JUMP JUMPDEST DUP2 EQ PUSH2 0x115C JUMPI PUSH1 0x0 DUP1 REVERT JUMPDEST POP JUMP JUMPDEST PUSH1 0x0 DUP2 CALLDATALOAD SWAP1 POP PUSH2 0x116E DUP2 PUSH2 0x1148 JUMP JUMPDEST SWAP3 SWAP2 POP POP JUMP JUMPDEST PUSH1 0x0 PUSH1 0x20 DUP3 DUP5 SUB SLT ISZERO PUSH2 0x118A JUMPI PUSH2 0x1189 PUSH2 0x1134 JUMP JUMPDEST JUMPDEST PUSH1 0x0 PUSH2 0x1198 DUP5 DUP3 DUP6 ADD PUSH2 0x115F JUMP JUMPDEST SWAP2 POP POP SWAP3 SWAP2 POP POP JUMP JUMPDEST PUSH1 0x0 PUSH20 0xFFFFFFFFFFFFFFFFFFFFFFFFFFFFFFFFFFFFFFFF DUP3 AND SWAP1 POP SWAP2 SWAP1 POP JUMP JUMPDEST PUSH1 0x0 PUSH2 0x11CC DUP3 PUSH2 0x11A1 JUMP JUMPDEST SWAP1 POP SWAP2 SWAP1 POP JUMP JUMPDEST PUSH2 0x11DC DUP2 PUSH2 0x11C1 JUMP JUMPDEST DUP3 MSTORE POP POP JUMP JUMPDEST PUSH1 0x0 PUSH1 0x20 DUP3 ADD SWAP1 POP PUSH2 0x11F7 PUSH1 0x0 DUP4 ADD DUP5 PUSH2 0x11D3 JUMP JUMPDEST SWAP3 SWAP2 POP POP JUMP JUMPDEST PUSH1 0x0 DUP2 SWAP1 POP SWAP2 SWAP1 POP JUMP JUMPDEST PUSH2 0x1210 DUP2 PUSH2 0x11FD JUMP JUMPDEST DUP3 MSTORE POP POP JUMP JUMPDEST PUSH1 0x0 PUSH1 0x20 DUP3 ADD SWAP1 POP PUSH2 0x122B PUSH1 0x0 DUP4 ADD DUP5 PUSH2 0x1207 JUMP JUMPDEST SWAP3 SWAP2 POP POP JUMP JUMPDEST PUSH1 0x0 PUSH2 0x123C DUP3 PUSH2 0x11A1 JUMP JUMPDEST SWAP1 POP SWAP2 SWAP1 POP JUMP JUMPDEST PUSH2 0x124C DUP2 PUSH2 0x1231 JUMP JUMPDEST DUP3 MSTORE POP POP JUMP JUMPDEST PUSH1 0x0 PUSH1 0x20 DUP3 ADD SWAP1 POP PUSH2 0x1267 PUSH1 0x0 DUP4 ADD DUP5 PUSH2 0x1243 JUMP JUMPDEST SWAP3 SWAP2 POP POP JUMP JUMPDEST PUSH32 0x4E487B7100000000000000000000000000000000000000000000000000000000 PUSH1 0x0 MSTORE PUSH1 0x21 PUSH1 0x4 MSTORE PUSH1 0x24 PUSH1 0x0 REVERT JUMPDEST PUSH1 0x3 DUP2 LT PUSH2 0x12AD JUMPI PUSH2 0x12AC PUSH2 0x126D JUMP JUMPDEST JUMPDEST POP JUMP JUMPDEST PUSH1 0x0 DUP2 SWAP1 POP PUSH2 0x12BE DUP3 PUSH2 0x129C JUMP JUMPDEST SWAP2 SWAP1 POP JUMP JUMPDEST PUSH1 0x0 PUSH2 0x12CE DUP3 PUSH2 0x12B0 JUMP JUMPDEST SWAP1 POP SWAP2 SWAP1 POP JUMP JUMPDEST PUSH2 0x12DE DUP2 PUSH2 0x12C3 JUMP JUMPDEST DUP3 MSTORE POP POP JUMP JUMPDEST PUSH1 0x0 PUSH1 0x20 DUP3 ADD SWAP1 POP PUSH2 0x12F9 PUSH1 0x0 DUP4 ADD DUP5 PUSH2 0x12D5 JUMP JUMPDEST SWAP3 SWAP2 POP POP JUMP JUMPDEST PUSH1 0x0 DUP1 REVERT JUMPDEST PUSH1 0x0 DUP1 REVERT JUMPDEST PUSH1 0x0 PUSH1 0x1F NOT PUSH1 0x1F DUP4 ADD AND SWAP1 POP SWAP2 SWAP1 POP JUMP JUMPDEST PUSH32 0x4E487B7100000000000000000000000000000000000000000000000000000000 PUSH1 0x0 MSTORE PUSH1 0x41 PUSH1 0x4 MSTORE PUSH1 0x24 PUSH1 0x0 REVERT JUMPDEST PUSH2 0x1352 DUP3 PUSH2 0x1309 JUMP JUMPDEST DUP2 ADD DUP2 DUP2 LT PUSH8 0xFFFFFFFFFFFFFFFF DUP3 GT OR ISZERO PUSH2 0x1371 JUMPI PUSH2 0x1370 PUSH2 0x131A JUMP JUMPDEST JUMPDEST DUP1 PUSH1 0x40 MSTORE POP POP POP JUMP JUMPDEST PUSH1 0x0 PUSH2 0x1384 PUSH2 0x112A JUMP JUMPDEST SWAP1 POP PUSH2 0x1390 DUP3 DUP3 PUSH2 0x1349 JUMP JUMPDEST SWAP2 SWAP1 POP JUMP JUMPDEST PUSH1 0x0 PUSH8 0xFFFFFFFFFFFFFFFF DUP3 GT ISZERO PUSH2 0x13B0 JUMPI PUSH2 0x13AF PUSH2 0x131A JUMP JUMPDEST JUMPDEST PUSH2 0x13B9 DUP3 PUSH2 0x1309 JUMP JUMPDEST SWAP1 POP PUSH1 0x20 DUP2 ADD SWAP1 POP SWAP2 SWAP1 POP JUMP JUMPDEST DUP3 DUP2 DUP4 CALLDATACOPY PUSH1 0x0 DUP4 DUP4 ADD MSTORE POP POP POP JUMP JUMPDEST PUSH1 0x0 PUSH2 0x13E8 PUSH2 0x13E3 DUP5 PUSH2 0x1395 JUMP JUMPDEST PUSH2 0x137A JUMP JUMPDEST SWAP1 POP DUP3 DUP2 MSTORE PUSH1 0x20 DUP2 ADD DUP5 DUP5 DUP5 ADD GT ISZERO PUSH2 0x1404 JUMPI PUSH2 0x1403 PUSH2 0x1304 JUMP JUMPDEST JUMPDEST PUSH2 0x140F DUP5 DUP3 DUP6 PUSH2 0x13C6 JUMP JUMPDEST POP SWAP4 SWAP3 POP POP POP JUMP JUMPDEST PUSH1 0x0 DUP3 PUSH1 0x1F DUP4 ADD SLT PUSH2 0x142C JUMPI PUSH2 0x142B PUSH2 0x12FF JUMP JUMPDEST JUMPDEST DUP2 CALLDATALOAD PUSH2 0x143C DUP5 DUP3 PUSH1 0x20 DUP7 ADD PUSH2 0x13D5 JUMP JUMPDEST SWAP2 POP POP SWAP3 SWAP2 POP POP JUMP JUMPDEST PUSH2 0x144E DUP2 PUSH2 0x11FD JUMP JUMPDEST DUP2 EQ PUSH2 0x1459 JUMPI PUSH1 0x0 DUP1 REVERT JUMPDEST POP JUMP JUMPDEST PUSH1 0x0 DUP2 CALLDATALOAD SWAP1 POP PUSH2 0x146B DUP2 PUSH2 0x1445 JUMP JUMPDEST SWAP3 SWAP2 POP POP JUMP JUMPDEST PUSH1 0x0 DUP1 PUSH1 0x0 PUSH1 0x60 DUP5 DUP7 SUB SLT ISZERO PUSH2 0x148A JUMPI PUSH2 0x1489 PUSH2 0x1134 JUMP JUMPDEST JUMPDEST PUSH1 0x0 DUP5 ADD CALLDATALOAD PUSH8 0xFFFFFFFFFFFFFFFF DUP2 GT ISZERO PUSH2 0x14A8 JUMPI PUSH2 0x14A7 PUSH2 0x1139 JUMP JUMPDEST JUMPDEST PUSH2 0x14B4 DUP7 DUP3 DUP8 ADD PUSH2 0x1417 JUMP JUMPDEST SWAP4 POP POP PUSH1 0x20 DUP5 ADD CALLDATALOAD PUSH8 0xFFFFFFFFFFFFFFFF DUP2 GT ISZERO PUSH2 0x14D5 JUMPI PUSH2 0x14D4 PUSH2 0x1139 JUMP JUMPDEST JUMPDEST PUSH2 0x14E1 DUP7 DUP3 DUP8 ADD PUSH2 0x1417 JUMP JUMPDEST SWAP3 POP POP PUSH1 0x40 PUSH2 0x14F2 DUP7 DUP3 DUP8 ADD PUSH2 0x145C JUMP JUMPDEST SWAP2 POP POP SWAP3 POP SWAP3 POP SWAP3 JUMP JUMPDEST PUSH2 0x1505 DUP2 PUSH2 0x113E JUMP JUMPDEST DUP3 MSTORE POP POP JUMP JUMPDEST PUSH1 0x0 PUSH1 0x20 DUP3 ADD SWAP1 POP PUSH2 0x1520 PUSH1 0x0 DUP4 ADD DUP5 PUSH2 0x14FC JUMP JUMPDEST SWAP3 SWAP2 POP POP JUMP JUMPDEST PUSH1 0x0 DUP2 MLOAD SWAP1 POP SWAP2 SWAP1 POP JUMP JUMPDEST PUSH1 0x0 DUP3 DUP3 MSTORE PUSH1 0x20 DUP3 ADD SWAP1 POP SWAP3 SWAP2 POP POP JUMP JUMPDEST PUSH1 0x0 JUMPDEST DUP4 DUP2 LT ISZERO PUSH2 0x1560 JUMPI DUP1 DUP3 ADD MLOAD DUP2 DUP5 ADD MSTORE PUSH1 0x20 DUP2 ADD SWAP1 POP PUSH2 0x1545 JUMP JUMPDEST DUP4 DUP2 GT ISZERO PUSH2 0x156F JUMPI PUSH1 0x0 DUP5 DUP5 ADD MSTORE JUMPDEST POP POP POP POP JUMP JUMPDEST PUSH1 0x0 PUSH2 0x1580 DUP3 PUSH2 0x1526 JUMP JUMPDEST PUSH2 0x158A DUP2 DUP6 PUSH2 0x1531 JUMP JUMPDEST SWAP4 POP PUSH2 0x159A DUP2 DUP6 PUSH1 0x20 DUP7 ADD PUSH2 0x1542 JUMP JUMPDEST PUSH2 0x15A3 DUP2 PUSH2 0x1309 JUMP JUMPDEST DUP5 ADD SWAP2 POP POP SWAP3 SWAP2 POP POP JUMP JUMPDEST PUSH1 0x5 DUP2 LT PUSH2 0x15BF JUMPI PUSH2 0x15BE PUSH2 0x126D JUMP JUMPDEST JUMPDEST POP JUMP JUMPDEST PUSH1 0x0 DUP2 SWAP1 POP PUSH2 0x15D0 DUP3 PUSH2 0x15AE JUMP JUMPDEST SWAP2 SWAP1 POP JUMP JUMPDEST PUSH1 0x0 PUSH2 0x15E0 DUP3 PUSH2 0x15C2 JUMP JUMPDEST SWAP1 POP SWAP2 SWAP1 POP JUMP JUMPDEST PUSH2 0x15F0 DUP2 PUSH2 0x15D5 JUMP JUMPDEST DUP3 MSTORE POP POP JUMP JUMPDEST PUSH1 0x0 PUSH1 0x80 DUP3 ADD SWAP1 POP DUP2 DUP2 SUB PUSH1 0x0 DUP4 ADD MSTORE PUSH2 0x1610 DUP2 DUP8 PUSH2 0x1575 JUMP JUMPDEST SWAP1 POP DUP2 DUP2 SUB PUSH1 0x20 DUP4 ADD MSTORE PUSH2 0x1624 DUP2 DUP7 PUSH2 0x1575 JUMP JUMPDEST SWAP1 POP PUSH2 0x1633 PUSH1 0x40 DUP4 ADD DUP6 PUSH2 0x1207 JUMP JUMPDEST PUSH2 0x1640 PUSH1 0x60 DUP4 ADD DUP5 PUSH2 0x15E7 JUMP JUMPDEST SWAP6 SWAP5 POP POP POP POP POP JUMP JUMPDEST PUSH32 0x4E487B7100000000000000000000000000000000000000000000000000000000 PUSH1 0x0 MSTORE PUSH1 0x11 PUSH1 0x4 MSTORE PUSH1 0x24 PUSH1 0x0 REVERT JUMPDEST PUSH1 0x0 PUSH2 0x1683 DUP3 PUSH2 0x113E JUMP JUMPDEST SWAP2 POP PUSH2 0x168E DUP4 PUSH2 0x113E JUMP JUMPDEST SWAP3 POP DUP3 PUSH32 0x8000000000000000000000000000000000000000000000000000000000000000 ADD DUP3 SLT PUSH1 0x0 DUP5 SLT ISZERO AND ISZERO PUSH2 0x16C9 JUMPI PUSH2 0x16C8 PUSH2 0x1649 JUMP JUMPDEST JUMPDEST DUP3 PUSH32 0x7FFFFFFFFFFFFFFFFFFFFFFFFFFFFFFFFFFFFFFFFFFFFFFFFFFFFFFFFFFFFFFF ADD DUP3 SGT PUSH1 0x0 DUP5 SLT AND ISZERO PUSH2 0x1701 JUMPI PUSH2 0x1700 PUSH2 0x1649 JUMP JUMPDEST JUMPDEST DUP3 DUP3 SUB SWAP1 POP SWAP3 SWAP2 POP POP JUMP JUMPDEST PUSH1 0x0 PUSH2 0x1717 DUP3 PUSH2 0x113E JUMP JUMPDEST SWAP2 POP PUSH32 0x7FFFFFFFFFFFFFFFFFFFFFFFFFFFFFFFFFFFFFFFFFFFFFFFFFFFFFFFFFFFFFFF DUP3 EQ ISZERO PUSH2 0x174A JUMPI PUSH2 0x1749 PUSH2 0x1649 JUMP JUMPDEST JUMPDEST PUSH1 0x1 DUP3 ADD SWAP1 POP SWAP2 SWAP1 POP JUMP JUMPDEST PUSH1 0x0 PUSH1 0x20 DUP3 ADD SWAP1 POP DUP2 DUP2 SUB PUSH1 0x0 DUP4 ADD MSTORE PUSH2 0x176F DUP2 DUP5 PUSH2 0x1575 JUMP JUMPDEST SWAP1 POP SWAP3 SWAP2 POP POP JUMP JUMPDEST PUSH32 0x4E487B7100000000000000000000000000000000000000000000000000000000 PUSH1 0x0 MSTORE PUSH1 0x22 PUSH1 0x4 MSTORE PUSH1 0x24 PUSH1 0x0 REVERT JUMPDEST PUSH1 0x0 PUSH1 0x2 DUP3 DIV SWAP1 POP PUSH1 0x1 DUP3 AND DUP1 PUSH2 0x17BE JUMPI PUSH1 0x7F DUP3 AND SWAP2 POP JUMPDEST PUSH1 0x20 DUP3 LT DUP2 EQ ISZERO PUSH2 0x17D2 JUMPI PUSH2 0x17D1 PUSH2 0x1777 JUMP JUMPDEST JUMPDEST POP SWAP2 SWAP1 POP JUMP JUMPDEST PUSH1 0x0 PUSH1 0x40 DUP3 ADD SWAP1 POP PUSH2 0x17ED PUSH1 0x0 DUP4 ADD DUP6 PUSH2 0x14FC JUMP JUMPDEST PUSH2 0x17FA PUSH1 0x20 DUP4 ADD DUP5 PUSH2 0x1207 JUMP JUMPDEST SWAP4 SWAP3 POP POP POP JUMP INVALID LOG2 PUSH5 0x6970667358 0x22 SLT KECCAK256 SAR NUMBER INVALID 0xEE PUSH30 0x6DCC3C95B678B4669C0CB9A621D4BA059CF95882219A5E754B30A364736F PUSH13 0x634300080C0033000000000000 "
    },
    "gasEstimates": {
      "creation": {
        "codeDepositCost": "1239800",
        "executionCost": "infinite",
        "totalCost": "infinite"
      },
      "external": {
        "acceptProject()": "52340",
        "addSchedule(string,string,uint256)": "infinite",
        "approveTask(int256)": "infinite",
        "budget_amt()": "2452",
        "clientAddress()": "2559",
        "endProject()": "29694",
        "freelancerAddress()": "2560",
        "fundTask(int256)": "infinite",
        "getBalance()": "407",
        "initialize()": "infinite",
        "projectState()": "2699",
        "releaseFunds(int256)": "infinite",
        "scheduleRegister(int256)": "infinite",
        "startTask(int256)": "infinite",
        "totalSchedules()": "2496"
      }
    },
    "methodIdentifiers": {
      "acceptProject()": "c916b6de",
      "addSchedule(string,string,uint256)": "84bf66ac",
      "approveTask(int256)": "6dc5434c",
      "budget_amt()": "257961bf",
      "clientAddress()": "2c2ab5ea",
      "endProject()": "c3966409",
      "freelancerAddress()": "06a4e7cb",
      "fundTask(int256)": "054f84ed",
      "getBalance()": "12065fe0",
      "initialize()": "8129fc1c",
      "projectState()": "748807ab",
      "releaseFunds(int256)": "bb6fc950",
      "scheduleRegister(int256)": "bab56910",
      "startTask(int256)": "b7896a30",
      "totalSchedules()": "965720af"
    }
  },
  "storageLayout": {
    "storage": [
      {
        "astId": 62,
        "contract": "Freelance.sol:freelancer",
        "label": "totalSchedules",
        "offset": 0,
        "slot": "0",
        "type": "t_int256"
      },
      {
        "astId": 64,
        "contract": "Freelance.sol:freelancer",
        "label": "freelancerAddress",
        "offset": 0,
        "slot": "1",
        "type": "t_address_payable"
      },
      {
        "astId": 66,
        "contract": "Freelance.sol:freelancer",
        "label": "clientAddress",
        "offset": 0,
        "slot": "2",
        "type": "t_address"
      },
      {
        "astId": 69,
        "contract": "Freelance.sol:freelancer",
        "label": "projectState",
        "offset": 20,
        "slot": "2",
        "type": "t_enum(ProjectState)49"
      },
      {
        "astId": 71,
        "contract": "Freelance.sol:freelancer",
        "label": "budget_amt",
        "offset": 0,
        "slot": "3",
        "type": "t_uint256"
      },
      {
        "astId": 76,
        "contract": "Freelance.sol:freelancer",
        "label": "scheduleRegister",
        "offset": 0,
        "slot": "4",
        "type": "t_mapping(t_int256,t_struct(schedule)59_storage)"
      }
    ],
    "types": {
      "t_address": {
        "encoding": "inplace",
        "label": "address",
        "numberOfBytes": "20"
      },
      "t_address_payable": {
        "encoding": "inplace",
        "label": "address payable",
        "numberOfBytes": "20"
      },
      "t_enum(ProjectState)49": {
        "encoding": "inplace",
        "label": "enum freelancer.ProjectState",
        "numberOfBytes": "1"
      },
      "t_enum(ScheduleState)45": {
        "encoding": "inplace",
        "label": "enum freelancer.ScheduleState",
        "numberOfBytes": "1"
      },
      "t_int256": {
        "encoding": "inplace",
        "label": "int256",
        "numberOfBytes": "32"
      },
      "t_mapping(t_int256,t_struct(schedule)59_storage)": {
        "encoding": "mapping",
        "key": "t_int256",
        "label": "mapping(int256 => struct freelancer.schedule)",
        "numberOfBytes": "32",
        "value": "t_struct(schedule)59_storage"
      },
      "t_string_storage": {
        "encoding": "bytes",
        "label": "string",
        "numberOfBytes": "32"
      },
      "t_struct(schedule)59_storage": {
        "encoding": "inplace",
        "label": "struct freelancer.schedule",
        "members": [
          {
            "astId": 51,
            "contract": "Freelance.sol:freelancer",
            "label": "shortCode",
            "offset": 0,
            "slot": "0",
            "type": "t_string_storage"
          },
          {
            "astId": 53,
            "contract": "Freelance.sol:freelancer",
            "label": "description",
            "offset": 0,
            "slot": "1",
            "type": "t_string_storage"
          },
          {
            "astId": 55,
            "contract": "Freelance.sol:freelancer",
            "label": "value",
            "offset": 0,
            "slot": "2",
            "type": "t_uint256"
          },
          {
            "astId": 58,
            "contract": "Freelance.sol:freelancer",
            "label": "scheduleState",
            "offset": 0,
            "slot": "3",
            "type": "t_enum(ScheduleState)45"
          }
        ],
        "numberOfBytes": "128"
      },
      "t_uint256": {
        "encoding": "inplace",
        "label": "uint256",
        "numberOfBytes": "32"
      }
    }
  },
  "userdoc": {
    "kind": "user",
    "methods": {},
    "version": 1
  }
}